:020000040000FA
:100000000200660235A7FFFFFFFFFF0235AFFFFFCB
:10001000FFFFFF0235DAFFFFFFFFFF0235E2FFFFC0
:10002000FFFFFFFFFFFFFFFFFFFFFF02360DFFFF98
:10003000FFFFFFFFFFFFFFFFFFFFFF02374DFFFF47
:10004000FFFFFF023761FFFFFFFFFF023831FFFFB5
:10005000FFFFFF023910FFFFFFFFFF023942FFFFE2
:10006000FFFFFF02394A75D00075819F7531017518
:10007000320275A001023952F5F0E5A0C394015493
:1000800003C0E0E5A0C3940154FC45F0C32401F58E
:10009000A0E473D0E0F5F0E5A0C3940154FC45F072
:1000A000C32401F5A022D083D082E5A0C3940154DB
:1000B00003C0E0E493C0E0740193C0E07402935481
:1000C00003F5F0E5A0C3940154FC45F02401F5A02C
:1000D00022E479337810B800028004F709D8FCE4F0
:1000E000900201780B790D8002F0A3D8FCD9FAFFB9
:1000F000FFFFFFFFFFFFFFFFFFFFFFFFFFFFFFFF10
:1001000000002110422063308440A550C660E77093
:10011000088129914AA16BB18CC1ADD1CEE1EFF13B
:100120003112100273325222B5529442F772D662E3
:10013000399318837BB35AA3BDD39CC3FFF3DEE38B
:100140006224433420040114E664C774A444855433
:100150006AA54BB528850995EEE5CFF5ACC58DD5DB
:100160005336722611163006D776F6669556B44683
:100170005BB77AA719973887DFF7FEE79DD7BCC72B
:10018000C448E5588668A7784008611802282338D3
:10019000CCC9EDD98EE9AFF9488969990AA92BB97B
:1001A000F55AD44AB77A966A711A500A333A122A23
:1001B000FDDBDCCBBFFB9EEB799B588B3BBB1AABCB
:1001C000A66C877CE44CC55C222C033C600C411C73
:1001D000AEED8FFDECCDCDDD2AAD0BBD688D499D1B
:1001E000977EB66ED55EF44E133E322E511E700EC3
:1001F0009FFFBEEFDDDFFCCF1BBF3AAF599F788F6B
:100200008891A981CAB1EBA10CD12DC14EF16FE14A
:100210008010A100C230E320045025404670676082
:10022000B9839893FBA3DAB33DC31CD37FE35EF39A
:10023000B1029012F322D2323542145277625672D2
:10024000EAB5CBA5A89589856EF54FE52CD50DC5EA
:10025000E234C324A0148104667447642454054422
:10026000DBA7FAB79987B8975FE77EF71DC73CD73A
:10027000D326F2369106B016576676761546345672
:100280004CD96DC90EF92FE9C899E9898AB9ABA98A
:100290004458654806782768C018E1088238A328C2
:1002A0007DCB5CDB3FEB1EFBF98BD89BBBAB9ABBDA
:1002B000754A545A376A167AF10AD01AB32A923A12
:1002C0002EFD0FED6CDD4DCDAABD8BADE89DC98D2A
:1002D000267C076C645C454CA23C832CE01CC10C62
:1002E0001FEF3EFF5DCF7CDF9BAFBABFD98FF89F7A
:1002F000176E367E554E745E932EB23ED10EF01EB2
:1003000000010203040506070809AAAAAAAAAAAAC4
:100310000A0B0C0D0E0F10111213AAAAAAAAAAAA50
:100320001415161718191A1B1C1DAAAAAAAAAAAADC
:100330001E1F2021222324252627AAAAAAAAAAAA68
:1003400028292A2B2C2D2E2F3031AAAAAAAAAAAAF4
:1003500032333435363738393A3BAAAAAAAAAAAA80
:100360003C3D3E3F404142434445AAAAAAAAAAAA0C
:10037000464748494A4B4C4D4E4FAAAAAAAAAAAA98
:1003800050515253545556575859AAAAAAAAAAAA24
:100390005A5B5C5D5E5F60616263FFFF00010203A8
:1003A0000405060708091011121314151617181959
:1003B00020212223242526272829303132333435A1
:1003C0003637383940414243444546474849505101
:1003D0005253545556575859606162636465666755
:1003E00068697071727374757677787980818283A9
:1003F0008485868788899091929394959697989909
:10040000FFFFFFFFFFFFFFFFFFFFFFFFFFFFFFFFFC
:10041000FFFFFFFFFFFFFFFFFFFFFFFFFFFFFFFFEC
:10042000FFFFFFFFFFFFFFFFFFFFFFFFFFFFFFFFDC
:10043000FFFFFFFFFFFFFFFFFFFFFFFFFFFFFFFFCC
:100800001111111111110100000000000000000081
:1008100000000000000000000000000000000000D8
:100820000000000000000000000000000000563042
:100830003232000000004135000000413036003007
:100840002E32000000000000000000000000000048
:100850000000000000000000000000000000000098
:100860000032312D373030322D35343620542F4C74
:1008700044000000000000050408F00080000000B3
:10088000000000000000000000000000A0050301BF
:100890000000000000838383038300000000000049
:1008A0000000000000000000000000000000000048
:1008B0000000000000000000000000000000000038
:1008C00000000000000011111100000000000000F5
:1008D00000000000000001999999991F0502042168
:1008E0001A3C1E00000505143C0502000001011021
:1008F0003C0012999900000000000000001868D91F
:1009000004004001050080200500448E050068BAFF
:100910000500B004F05588130000E8C1FE03E8C1EB
:10092000FE030040062CB664678000000000000053
:1009300000000000000000000000000000000000B7
:1009400000000000000000000000000000000000A7
:100950000000000000000000000000000000000097
:100960000000000000000000000000000000000087
:100970000000A7040000B86B00001D140000000078
:10098000FFFFFFFFFFFFFFFFFFFFFFFF0202080463
:100990007F010500000000000000000000000000D2
:1009A00001330000005000000000000200000000C1
:1009B0000000000055A00504AAAAAAAAAAAAAAAAE9
:1009C0000000000000FB7EFFFFFF1200A652E001C6
:1009D0001200A674E0011200A688E0011200A6A28F
:1009E000E0011200A603E1011200A6CAE101120013
:1009F000A6F4E2011200A694E3011200A6D6E301D8
:100A00001200A6F3E3011200A614E4011200A6539B
:100A1000E4011200A69BE4011200A6D5E401120035
:100A2000A607E5011200A628E5011200A600800035
:100A30001200A617FA001200A631FA001200A66EE4
:100A4000FB001200A685FC001200A6A3FC00120009
:100A5000A6C1FC001200A640FD001200A615FE0073
:100A60001200A681FE001200A6F4FE001200A64E9F
:100A7000FF001200A63FFD011200A673FD01120047
:100A8000A675FB011200A6D4FB011200A6EEFB0125
:100A90001200A655FC011200A63380001200A67EAB
:100AA00080001200A64B81001200A61D83001200D8
:100AB000A6FE84001200A6AD8C001200A6298E00AE
:100AC0001200A6AD8F001200A66A90001200A622A6
:100AD00091001200A62791001200A6979200120022
:100AE000A6B593001200A6EF95001200A606970087
:100AF0001200A69A97001200A6489A001200A67C3F
:100B00009C001200A605A1001200A68EA5001200EE
:100B1000A6E0A8001200A6A3AC001200A6E9B0004F
:100B20001200A6E5B1001200A6D9B2001200A6F389
:100B3000B3001200A6F8B3001200A6D5B60012004A
:100B4000A6B9BD001200A670BF001200A677C100B2
:100B50001200A65DC2001200A614CB001200A61857
:100B6000CD001200A67BCE001200A6FDCE00120022
:100B7000A665D0001200A60FA4011200A634A4019D
:100B80001200A690A6011200A6F0A8011200A683EA
:100B9000A9011200A6C8A9011200A65AAA011200B2
:100BA000A671AB011200A6D4AB011200A6D8D501E4
:100BB0001200A65BD6011200A67BD6011200A6E4A5
:100BC000D6011200A641D8011200A64FD80112008A
:100BD000A65DD8011200A6EBD9011200A625DB0103
:100BE0001200A6FFB0011200A6D7B1011200A6099B
:100BF000B2011200A681B2011200A6AEB20112002B
:100C0000A61BB3011200A63EB4011200A607B5014F
:100C10001200A6A8B5011200A6EBB5011200A6F6B7
:100C2000B6011200A69EB9011200A686BA011200F2
:100C3000A6F5BA011200A647BC011200A680BD01AC
:100C40001200A60080011200A65080011200A679B1
:100C500080011200A61881011200A67981011200FC
:100C6000A6A281011200A66D82011200A6E28401F3
:100C70001200A64E89011200A6038A011200A639AD
:100C80008A011200A63C8A011200A6F88B0112000C
:100C9000A6EB8D011200A6FD8F011200A6009001A7
:100CA0001200A63590011200A67690011200A6E36C
:100CB00091011200A67D92011200A6D392011200AA
:100CC000A6E792011200A6DA95011200A65BE501E3
:100CD0001200A61CF8011200A65CF8011200A6C6BC
:100CE000F8011200A6F5F8011200A617F90112008A
:100CF000A6D3F9011200A632FA011200A65BFA018E
:100D00001200A67CFA011200A695FA011200A6AE06
:100D1000FA011200A6E4FA011200A6F6FA01120086
:100D2000A622EA011200A662EC011200A604ED015F
:100D30001200A615EE011200A67496011200A6AAD2
:100D400096011200A6D396011200A63F9701120049
:100D5000A6D097011200A69E9A011200A62D9F010F
:100D60001200A637A0011200A658A2011200A66C1C
:100D7000A2011200A679A3011200A68FA3011200FE
:100D8000A642CF011200A676D0011200A68FD00194
:100D90001200A6A8D0011200A6BAD0011200A6CB5C
:100DA000D0011200A6D9D0011200A6F2D001120083
:100DB000A622D1011200A663D1011200A6F0D10132
:100DC0001200A659D2011200A6F9D2011200A66E95
:100DD000D3011200A6C0D3011200A6CCD301120089
:100DE000A6E8D3011200A651D4011200A654D401E2
:100DF0001200A6D6D4011200A643D5011200A6887F
:100E0000D5011200A603F4011200A636F401120067
:100E1000A6DAF5011200A67CC6011200A67AC70167
:100E20001200A6F2C7011200A66BC8011200A68E1E
:100E3000C8011200A6BECA011200A6DBCA01120038
:100E4000A690CC011200A602CF011200A622CF016B
:100E50001200A69ED1001200A6B8D1001200A694DE
:100E6000D2001200A658D4001200A6C8D500120065
:100E7000A611D8001200A653D9001200A6F2E20073
:100E80001200A657E4001200A6C0E5001200A64F0B
:100E9000E6001200A640E8001200A6FDEA001200DB
:100EA000A6B4ED001200A6BFEF001200A6F9EF00F5
:100EB0001200A60AF0001200A61DF1001200A6F909
:100EC000F1001200A62BF2001200A6B1BD01120023
:100ED000A61BBF011200A6A9BF011200A628C001CF
:100EE0001200A66FC0011200A6B5C0011200A6ED47
:100EF000C0011200A67EC1011200A649C201120063
:100F0000A69DC2011200A673C3011200A66CC40103
:100F10001200A693C4011200A6BCC4011200A610C0
:100F2000C5011200A624C5011200A611C6011200B7
:100F3000A628F6011200A69AF6011200A6CEF60126
:100F40001200A6A6F7011200A697EE011200A60F46
:100F5000EF011200A642F0011200A6A5F001120056
:100F6000A6C6F0011200A637DB011200A6D2DD01F1
:100F70001200A68EDE011200A60ADF011200A6D51D
:100F8000DF011200A63CE0011200A6DCFD01120008
:100F9000A6A8FF001200A6B0FD011200A69FFC014A
:100FA0001200A66AF101FFFFFFFFFFFFFFFFFFFF37
:100FB000FFFFFFFFFFFFFFFFFFFFFFFFFFFFFFFF41
:100FC000FFFFFFFFFFFFFFFFFFFFFFFFFFFFFFFF31
:100FD000FFFFFFFFFFFFFFFFFFFFFFFFFFFFFFFF21
:100FE000FFFFFFFFFFFFFFFFFFFFFFFFFFFFFFFF11
:100FF000FFFFFFFFFFFFFFFFFFFFFFFFFFFFFFFF01
:10100000FFFFFFFFFFFFFFFFFFFFFFFFFFFFFFFFF0
:10101000FFFFFFFFFFFFFFFFFFFFFFFFFFFFFFFFE0
:10102000010000020003030006040009010012028F
:10103000001503001804002104002104002104000D
:101040002104002104002104002100000000000010
:1010500000000000000000000000000000302E3101
:10106000563036574E4D574B44520000000000009A
:101070000000000000000000000000302E31564744
:1010800057592D4D2D3131383956000000000000E0
:1010900000150000000029000000003D00000000D5
:1010A00017000000002B000000003F0000000101BD
:1010B000020000020102000003010200000102021E
:1010C000000002020200000302020000000302000E
:1010D00000010302000002030200000303020000FB
:1010E00000040200000104020000020402000003E8
:1010F00004020000000602000001060200000206D1
:101100000200000306020002008002000C008002C0
:10111000000D00800200000107020000020702002B
:10112000000307020000000000000000150000009E
:101130000029000000003D00000000170000000032
:101140002B000000003F000000010102000002012E
:10115000020000030102000001020200000202027C
:10116000000003020200000003020000010302006D
:10117000000203020000030302000000040200005A
:101180000104020000020402000003040200000047
:10119000060200000106020000020602000003062B
:1011A000020002008002000C008002000D0080029C
:1011B000000001070200000207020000030702000E
:1011C00001010004000201000400040101039A531C
:1011D0003330382E393234305F31370001E06670F9
:1011E0001008A3E066700A08A3E066700408A3E094
:1011F0006622E4936670130874019366700C087499
:101200000293667005087403936622C021C3E493B9
:1012100096F5210874019396422108740293964230
:101220002108740393964221A2D265D033E5217040
:1012300001D3D02122C3E7960809E7960809E7966B
:101240000809E79622C3E09608A3E09608A3E09673
:1012500008A3E09622C021C3E096F52108A3E096FA
:10126000422108A3E096422108A3E096452170019F
:10127000D3D02122C021C3E49396F52108740193B1
:10128000964221087402939642210874039396456E
:10129000217001D3D02122080808E630E711121B83
:1012A000981212AF080808C64480C61818182218E9
:1012B0001818E9799EC608CAC608CBC608CCC6C3AA
:1012C00070207996CACBCC7019798ECBCC701379FB
:1012D00086CC700EF9802ACA33CACB33CBCC33CC40
:1012E000331930E7F2CCCBCA3350147004EA30E043
:1012F0000DE4CA3ACACB3BCBCC3CCC500209C3E983
:1013000013C6CC182313C6CB18C6CA18C6F92212A6
:10131000135A30F03912139F803412135A20F014EC
:1013200030E72B74FFFCFBFA747F8022E4FCFBFAAD
:101330007480801AB48008BC00F2BB00EF800F50AC
:10134000EBF9E4C39AFAE49BFBE49CFCE499C6CC79
:1013500018C6CB18C6CA18C6F922E4C9C608CAC638
:1013600008CBC6D3330308CCC63392F0C3947F4076
:101370002E94184019C9B90704CACBCC225025C3F2
:1013800009CA33CACB33CBCC33CC33D9F422F46083
:101390000DC9CCC313CB13CBCA13CAD9F6CC22E4E4
:1013A000FCFBFA2214FCFBFA22E626184618461823
:1013B0004622E72719471947194722181818E6083F
:1013C00046087009E626087005E633F4220822195B
:1013D0001919E70947097009E727097005E733F488
:1013E000220922E6084608C3134608336002E633A2
:1013F000F422E7094709C3134709336002E733F4CE
:10140000221213E3601C1213F260171213A9700763
:101410001213B27001D322C0D01213B27006D0D012
:10142000B322C32233D0D0501430E0F6C3E796087D
:1014300009E7960809E7960809E796B32220E0D560
:10144000E6970809E6970809E6970809E697B322A0
:101450001213E3601B1213F260161213A970071225
:1014600013B2600CB322C0D01213B27005D0D022D8
:10147000C32233D0D0501330E0EBC3E7960809E71E
:10148000960809E7960809E7962220E0E4E697081F
:1014900009E6970809E6970809E69722001213E380
:1014A000604F1213F26012E7548066F61213BB709D
:1014B000111213B2703B090909F4F618F618F61860
:1014C000F6221213CF70151213A908080860EAE675
:1014D000447FF618768018E4F618F6221213A960F5
:1014E000161213B27012E4F608F608F608E65480F5
:1014F000F609090918181822EAC0E0EBC0E0ECC0B0
:10150000E0EDC0E0E687F0A4FBACF008E687F0A4CD
:101510002CFCE435F0FA1809E687F0A42C4B6002A5
:101520007401CA35F0FCE433FB09E687F0D2F7A476
:101530002CCB35F0FC1908E687F0A42BCC35F0FB5A
:10154000E433FD0819E687F0D2E7A42C4ACB35F046
:10155000CD3400FC09E687F0D2E7A42DCC35F0FDB0
:10156000E433FA0918E687F0D2F7A42CCD35F0CA97
:101570003400FC08E687F0D2E7D2F7A42ACC35F095
:101580007A7E20E70B0ACB33CBCD33CDCC33CC33B3
:10159000CB3350147004ED30E00ED2F1E4CD3DCDEC
:1015A000CC3CCC3B5005DA05C2F1EB547FC6330886
:1015B000E63392F0FBE73309E733C39A502D2B70E3
:1015C000190C0D4C4D70151806E608C333700D202C
:1015D000F10AA2F013F6E418800B4024E4F630F090
:1015E00002768018F618F618F68024D33B145010B3
:1015F00074FFA2F013F6187680E418F618F6800F40
:10160000A2F013F618E63303F618ECF618EDF6D050
:10161000E0FDD0E0FCD0E0FBD0E0FA221213F26053
:10162000461213E3603DE9687008F618F618F618DC
:10163000F622748067F7121650090909748067F75B
:10164000221213E3601D1213F27005191919801A82
:101650001213BB701F1213CFC37003E6673319193F
:101660001940071818182208080874FFF618F61809
:10167000F618F6221213CF60171213B2702192F0EF
:101680001213A97019501720F01408080809090945
:10169000E7F61819E7F61819E7F61819E7F622120F
:1016A00013A960E6E869701F0808E62480F608E4DC
:1016B00036F618547FB47F0CE654806007F6E418C1
:1016C000F618F622181822E9C6CC08C6CD08C6CEF0
:1016D00008C6CFC0E0E8C0E0EAC0E0EBC0E009E93E
:1016E000F809E7FA09E7FBE6F918E6F8C3EC98ED24
:1016F00099EE9AEBC2E7F5F0EFC2E795F0500E6075
:101700000CEBCFFBEACEFAE9CDF9E8CCF8EAA2E798
:10171000D2E7FAEB33FB13F5F0EEA2E7D2E7FEEFE8
:1017200033FFC5F013A2E730E601B313C5F0C3C021
:10173000E0C0F07F00C39BFB605E9418600F401D0B
:1017400014601AD0E023F9D0E0F80218228AF0E9F8
:10175000486003D2F0E4AFF0FAF9F8803BEB30E4F4
:101760000D89F0EA6003D2F0E4AFF0F9CAF8EB308B
:10177000E30D88F0EF6002D2F0AFF0E4CAC9F8EBF5
:1017800054076014FBC3EA13FAE913F9E813F8EFFE
:10179000135002D2E0FFDBEDD0E0C0E030E739C308
:1017A000E49FFFF5F0EC98FC42F0ED99FD42F0EE7D
:1017B0009AFE42F0D0E0F9D0E0F8E5F0607AE92353
:1017C000F9EE20E742D8028067C3EF33FFEC33FC29
:1017D000ED33FDEE33FE80EAEC28FCED39FDEE3A08
:1017E000FED0E023F9D0E0F84002801BC3EE13FEE8
:1017F000ED13FDEC13FCEF135002D2E0FF08B8002C
:10180000067F7F74FF802EEF3350178CF020F0029C
:1018100060100CBC000C0DBD00080EBE000408E8F2
:1018200060DFE933E813FFEE2313FE4F4D4C8008D1
:10183000E95480FFE4FEFDFCEE33EF33F47004FC6A
:10184000FD7E80D0E0FBD0E0FAD0E0F8D0E0CFC65B
:1018500018CEC618CDC618CCC6F9221213E37004F0
:10186000181818221213F2700D74FFF61819F618D2
:1018700019F61819F622E7548066F61213A9700FAC
:101880001213B270F014F608F608F608F680D112BA
:1018900013B2700CF608F608768008E6447F80ECF8
:1018A0001213D2700C1213BE60BFE65480F6E480AF
:1018B000BB1213BE700519191980A5E869700C7662
:1018C0003F18768018F618F6E8F922E6CDC0E01841
:1018D000ECC0E0E633CD33CDD313F6E719FCE719BE
:1018E0001933CC33C3947F400ECD9D502408E65469
:1018F00080F6E418F6800FF4043D14501408E64412
:101900007FF6187680E418F618F6D0E0FCD0E0FDFB
:1019100022CCD313CCFD18E4C6CBC0E018E4C6CA71
:10192000C0E00808ED08C633E613F618E433C675C0
:10193000F003C3CA97CA09CB97CB199C40047D0812
:10194000802EBD0003021A0416B6FF05060608160F
:1019500018C3CA33CACB33CB33CA27CA09CB37CB58
:10196000193CC37D08803E187D0820E75CC633C65D
:10197000CA33CACB33CB33DDF1D5F0EB30E77BCACA
:1019800097CA09CB974ACB199C406F4B7025E6202C
:10199000E0218066187D08C3CA97CA09CB97CB1986
:1019A0009CD3C633C6CA33CACB33CB3350C9DDE769
:1019B000D5F0E1D3E4C636C608C636C608C636C674
:1019C00008C636C61818188031C3CA97CA09CB97FB
:1019D000CB199CB34097C633C6CA33CACB33CB337B
:1019E000DD34D5F02EC6A2E0C640C8CA27CA09CB4E
:1019F00037194A70BECB3CB480B90808E63308E614
:101A000033601F181818D0E0FAD0E0FBD0E0FCD00B
:101A1000E0FD22187D08CA27CA09CB37CB193CD371
:101A2000808013F618E4B67F11F618B6FF0EF6188C
:101A3000C60470D20808768080CAF618F618F680B8
:101A4000C5080808EAC0E0EBC0E086F0E7A4FA1891
:101A50000986F0E7A42AFA180986F0E7A42AFA18FA
:101A60000986F0E7A42AFA1986F0E7A4FBE5F02A34
:101A7000FA190886F0E7A42BFBE5F03AFA19088674
:101A8000F0E7A42BFBE5F03AFA18180986F0E7A472
:101A9000C5F02BFBE43AFA1908E7C5F0C6A426F610
:101AA000E5F03BFBE43AFA1886F0E7A4F6E5F00827
:101AB00026F6E43B08F6E43A08F6D0E0FBD0E0FA7C
:101AC00022E4CFC0E0E4CEC0E0E4CDC0E0E4CCC08E
:101AD000E075F020E626F608E633F608E633F60869
:101AE000E633F6181818EC33FCED33FDEE33FEEF59
:101AF00033FFC3EC9709ED9709EE9709EF97191992
:101B000019400FFFEC97FC09ED97FD09EE97FE19C0
:101B10001906D5F0BFECF709EDF709EEF709EFF775
:101B2000191919D0E0FCD0E0FDD0E0FED0E0FF2292
:101B3000121B9B181818121AC1121B871919192287
:101B4000121B87191919080808E618181820E7E069
:101B5000121AC1121B9B18181822090909E7191932
:101B60001920E7DC080808E618181820E703021A0D
:101B7000C1121B9B181818121AC1121B9B18181897
:101B8000121B8719191922E4C397F709E497F7097B
:101B9000E497F709E497F722181818E4C396F608B3
:101BA000E496F608E496F608E496F622C6F4C6082B
:101BB000C6F4C608C6F4C608C6F4C62260160808ED
:101BC00008C6C313C618C613C618C613C618C6134C
:101BD000C6D5E0EA2270090808082260161818180D
:101BE000C6C333C608C633C608C633C608C633C61E
:101BF000D5E0EA22E627F60809E637F60809E637CF
:101C0000F60809E637F622E026F608A3E036F608DD
:101C1000A3E036F608A3E036F622E49326F608742D
:101C2000019336F60874029336F60874039336F679
:101C300022E026F008A3E036F008A3E036F008A37F
:101C4000E036F022C3E697F60809E697F60809E6BB
:101C500097F60809E697F622C3E0C696F608A3E0D1
:101C6000C696F608A3E0C696F608A3E0C696F62246
:101C7000C3E096F008A3E096F008A3E096F008A36E
:101C8000E096F022E49356F60874019356F6087431
:101C9000029356F60874039356F622E056F008A312
:101CA000E056F008A3E056F008A3E056F022E493D3
:101CB00046F60874019346F60874029346F60874D3
:101CC000039346F622E046F008A3E046F008A3E0BE
:101CD00046F008A3E046F022E0F608A3E0F608A3E9
:101CE000E0F608A3E0F622E493F608740193F60800
:101CF000740293F608740393F622E6F008A3E6F064
:101D000008A3E6F008A3E6F022E0FAA3E0FBA3E0D4
:101D1000FCA3E0FD22EAF0A3EBF0A3ECF0A3EDF0CE
:101D200022E0FCA3E0FDA3E0FEA3E0FF22ECF0A391
:101D3000EDF0A3EEF0A3EFF022E0F8A3E0F9A3E0CA
:101D4000FAA3E0FB22E8F0A3E9F0A3EAF0A3EBF0AA
:101D500022CAC0E0E6F0A308DAFAD0E0FA22CAC04C
:101D6000E0E0A3C582CCC582C583CDC583F0A3C501
:101D700082CCC582C583CDC583DAE6D0E0CA22CA4B
:101D8000C0E0E493A3C582CCC582C583CDC583F0F2
:101D9000A3C582CCC582C583CDC583DAE5D0E0CAB0
:101DA00022B90010BB0008E88AF084F8AAF022E407
:101DB000FBC8FA22EB70227B10C833C8C933C93381
:101DC0005007C39AC3DBF280069A50012ADBEAC8A7
:101DD00033F4C8C933F4C9FA2275F008E4C833C82B
:101DE000C933C933C99AC99B5004C92AC93BD5F024
:101DF000ECFBC833F4C8E4C9FA22600D08C6A2E7B8
:101E000013C618C613C6D5E0F322600C08C6C31368
:101E1000C618C613C6D5E0F422700422600D18C699
:101E2000C333C608C633C6D5E0F41822253110AF37
:101E300008F531400C15328008F53140021532D2D8
:101E4000AF2200C0D0253110AF08F531500C05325B
:101E50008008F53150020532D2AFD0D0222531F5BD
:101E60008210AF08F531400C15328008F531400280
:101E70001532D2AF85328322C5822531C582C58312
:101E8000353210AF07F5328582318007F532858211
:101E900031D2AFC583222531F582E43532F5832274
:101EA0002531F8E43532F9222531FAE43532FB22C6
:101EB0002531FCE43532FD22E4732531C582C0E0D2
:101EC000E53234FFC583C0E0E531C3958224F810C4
:101ED000AF088583328582318008858332858231DF
:101EE000D2AFCEF0A3E520F0A37821E608F0A3DE80
:101EF000FAEFF0A3E58124FAF8E608F0A3E608F08B
:101F0000A3E608F0A30808E608F0A3E608F0A31586
:101F1000811581D0E0FED0E0F8158115811581E8AA
:101F2000C0E0EEC0E022853283853182E0A3FEE08E
:101F3000A3F5207821E0A3F608DFFAE0A3FFE0A3F1
:101F4000C0E0E0A3C0E0E0A3C0E0E0A3C0E0E0A305
:101F5000C0E010AF088582318583328008858231E8
:101F6000858332D2AFD083D0820200937404800480
:101F700074028000C0E0F404121E5DD0E0121D5116
:101F8000227404800474028000CCC0E0EDC0E0E55F
:101F900031C39CCCAD3250011D10AF068C318D3257
:101FA00080068C318D32D2AF121D5ED0E0FDD0E0C4
:101FB000FC227404800474028000CCC0E0EDC0E018
:101FC000E531C39CCCAD3250011D10AF068C318D74
:101FD0003280068C318D32D2AF121D7FD0E0FDD021
:101FE000E0FC22D083D082C5F0E493A3C5F0C39572
:101FF000F0F5F0E493A3C395F04005E5F00480010B
:10200000E475F002A42582F582E5F03583F583E4DA
:1020100093A3C0E0E493C0E022D083D082ECC0E080
:10202000EDC0E0E493A3FCE493A3FDED4C600D123E
:102030002065EC24FFFCED34FFFD80EFE493A3FC6E
:10204000E493A3FDED4C600D1220A4EC24FFFCED05
:1020500034FFFD80EFD0E0FDD0E0FCE493A3C0E0CE
:10206000E493C0E022C0E0C3E49396087401939621
:1020700018400FE4936670080874019366187000A6
:102080007019A3A3C3E49396087401939618A3A3AD
:10209000400DD0E0D0E0D0E0022055A3A3A3A3A33D
:1020A000A3D0E022C0E0C0F088F0E4936670080896
:1020B00074019366187000A8F0A3A3700BD0F0D041
:1020C000E0D0E0D0E0022055A3A3D0F0D0E0220081
:1020D0001F0AFA00E1F505640000007102C702C79B
:1020E00082E482F2822C0BE40AF00AFC0A080B1448
:1020F0000B1A0B200B260B320BDE0A380B3E0B445F
:102100000B4A0BF60A500B2C0B620B0E0B2C0B5CC4
:102110000B680B6E0B2C0B2C0B560B020B000000EC
:10212000000004040003000003000100000000049C
:10213000040B04C1160000FF00000000340400136B
:102140000000000000000100000404000300000380
:1021500000010001000004040B04D5160000FF007C
:10216000010000340400131400000000000200000D
:102170000404000300000000010002000004040B3E
:1021800004E9160000FF00020000340400132800D8
:10219000000000000B00000400000200000000012D
:1021A000000B0000040000020000010000000C0011
:1021B000000400000F0000000001000C00000400FB
:1021C000000F0000010000001500000404000300DF
:1021D000000000010015000004040B0300000000D3
:1021E00000001700000404001B000000000100189C
:1021F000000004040B1B0000000000002900000484
:1022000004000300000400010029000004040B0383
:102210000000000000002B00000404001B0000046C
:102220000001002C000004040B1B00000000000053
:102230003D0000040400030000080001003D000010
:1022400004040B030000000000003F000004040031
:102250001B00000800010040000004040B1B0000EC
:1022600000000100FE000004040B1600000000FF47
:1022700000FE00003404001600000000000001020F
:1022800040020000100000000000010102400200B6
:1022900000100000010000020102400200001000D6
:1022A00000020000030102400200001000000300D1
:1022B00000000202400300001000000400000102C0
:1022C000024003000010000005000002020240036B
:1022D000000010000006000003020240030000108E
:1022E0000000070000000302400300001000000887
:1022F000000001030240030000100000090000027A
:102300000302400300001000000A00000303024023
:102310000300001000000B00000004024003000056
:102320001000001100000104024003000010000032
:10233000120000020402400300001000001300001D
:102340000304024003000010000014000000060215
:10235000400200001000000D0000010602400200D3
:10236000001000000E0000020602400200001000F3
:10237000000F0000030602400200001000001000E1
:1023800000010702400300001000001700000207D0
:102390000240030000100000180000030702400381
:1023A000000010000019000200800240020000102E
:1023B00000000C000C00800240020000100000151C
:1023C000000D008002400200001000001600000016
:1023D00011034803000007404500000100110308F5
:1023E0000C0009090B0040450000300348030000C1
:1023F00007404300000100300308320009090A00C9
:102400004043000130034803000007004100000181
:1024100001300308120009090700004100033003DE
:102420004803000007C041000001033003080E000C
:1024300009090800C0410004300348030000078078
:10244000420000010430030810000909090080421D
:10245000000D30034803000007C0450000010D30A7
:1024600003081C0009090C00C04500123003480392
:10247000000007804F000001123003080F0001091F
:102480001600804F0000360348030000074050004C
:102490000001003603081D00090917004050000024
:1024A0003703480300000700470000010037030816
:1024B000140009090D000047010100048004000018
:1024C0000DC001000002010004800300000DC401E2
:1024D0000000050100042002000005800000000645
:1024E00001000480050000050A0201000701000444
:1024F00080050000050F0201000C010004800700A8
:10250000000DC001000001020004C0010000050030
:1025100002020002020004C00100000501020300E3
:1025200003020004C00100000502020400040200CE
:1025300004C0010000050302050005020004C002FA
:102540000000050802060001030004C001000005A8
:10255000E100070002030004C001000005E20008DA
:102560000003030004C001000005E30009000403A8
:102570000004C001000005E4000A0005030004C0D7
:1025800001000005E5000B0008030004C001000085
:1025900005EB001C0001040004000600000500001B
:1025A0001A0002040004000600000506000C0003E7
:1025B00004000400200000050C00000004040004D6
:1025C00020060000052C0000000504000420060081
:1025D0000005320000000604000420060000053853
:1025E0000000000704000420040000054000000073
:1025F000090400044803000006400100000B040029
:1026000004200A0000054F0000000C040004200A0A
:10261000000005590000000D040004201000000512
:10262000630000000E0400040006000005730000B3
:10263000000F040004000B00000544000000010529
:102640000004080200060100000000FF0500040865
:102650000E000001000000000106000480010000DF
:102660000579000D000107000480010000057A00D3
:102670000E000307000480010000057B000F00012D
:102680000800048001000005040210000208000494
:10269000800100000505021100010900048001000D
:1026A000000540021D000209000400010000059918
:1026B0000017000309000400010000059A0017003C
:1026C0000409000400010000059B00170005090033
:1026D0000400010000059C00180006090004000128
:1026E0000000059D001700010A0004800400000599
:1026F00041021D00020A0004C00200000546021D3E
:1027000000030A0004C00200000548021D00040A7C
:102710000004C0020000054A021D00050A0004C0B2
:10272000020000054C021D00010B00040002000025
:1027300005DB001200020B00040002000005DD00B2
:102740001200030B00040002000005DF001200016C
:102750001100048001000005FD001F0004110004A9
:10276000800600000538021B00011200040005006D
:102770000005F1001900021200044001000005F6F6
:10278000001300031200040002000005FB00140007
:10279000041200040804000005F700000001140002
:1027A0000440020000059300150001150004080A0A
:1027B0000000170000000000000104402A00000A89
:1027C0008005010001000104402A00080A8005027A
:1027D0000000000204402A00000AC00701000100B6
:1027E0000204402A00080AC0070200010003044056
:1027F00004003B08400E16000101040400050062BD
:102800000C400A000001020404000500620C400CA8
:10281000000000030404080500001500000000018A
:102820000080042020000005000A0000020080044F
:102830002020000005200A00000300800420200062
:1028400000059E0000000400800420080000052C04
:10285000020000010000050831023B0B01000000EE
:10286000011000050831003B0B01000000010001D0
:1028700005083102020B02000100011001050831B8
:1028800000020B0200010001000205083102010BE9
:102890000300020001100205083100010B030002D1
:1028A0000001000305083102010B040003000110C0
:1028B0000305083100010B040003000100040508B2
:1028C0000D02FD0B06000400010006050831023D63
:1028D0000B05000500011006050831003D0B050041
:1028E00005000000000608000002110000000000C2
:1028F00000010608000002110000010000000206AD
:102900000800000211000002000000030608000099
:10291000021100000300000004060800000211007C
:102920000004000100001D480300091A1400004EB5
:102930000101001D080600091A1400004E010200E2
:102940001D080400091A1400004E0103001D48046C
:1029500000091A1400004E0104001D480400091A61
:102960001400004E0100001E480300091A1500C0A3
:102970004E0101001E080600091A1500C04E010292
:10298000001E080400091A1500C04E0103001E486D
:102990000400091A1500C04E0104001E4804000975
:1029A0001A1500C04E0100004F001B000008D001A6
:1029B0000000000A004F00080000120000000000A4
:1029C00000014F004400000E00000000001D211B0C
:1029D000027C221A03CE231204B824470553280B85
:1029E00006E228051D2329051E6429054FA5290394
:1029F000090200002040017026000020000101278C
:102A00000000200601142800002005010129000013
:102A1000200101040000524FD0011B5300002095FB
:102A200000045400002097000255000020E7000138
:102A300056000020E8000157000020E9000258007D
:102A40000020EB000159000020EC00015A0000209A
:102A5000ED00015B000020EE00015C000020EF00B3
:102A6000015D000020F000015E0000202802015FEF
:102A70000000202902026000002019020164000009
:102A8000201E0201650000201F02016600002020B8
:102A900002016700002021020169000020230201D9
:102AA0006A0000202402046B000020E60001800080
:102AB000002014020181000020150203000202021E
:102AC0000000000101000201000301001B010004DD
:102AD0000100050100062000072000082000092051
:102AE000000A20000B00000C04000D00001500007F
:102AF0000E01000F0100100000130000140000166A
:102B000000001700001800001900001A00001C0047
:102B1000001D04001E00001F00012000022104000F
:102B2000990001359A00411A9B00011B9B00811BF3
:102B30009C0001289D00011CD4000000040102D467
:102B4000000000000102D4000000010102D40000D6
:102B500000020102D3000000040103D300000000C2
:102B60000103D3000000010103D3000000020103B0
:102B7000D0000000040103D0000000000103D000D9
:102B80000000010103D00000000201031D0100004C
:102B9000000202000000000400020000000000002B
:102BA000020000000001000200000000020002D745
:102BB000100000040103D7100000000103D710002B
:102BC00000010103D71000000201031D01000004F1
:102BD00002021D01000008020200000000000002C5
:102BE000000000000100020000000002000200FFDF
:102BF000FFFF00000104000002041100002070002B
:102C0000002000000025005500FE29020000730F7F
:102C1000000000AA00FE0000524FD0010000010099
:102C2000524F0200524F0300524F00FF552055FFF4
:102C300055200100002003000020040000200500B2
:102C4000002006000020000100000700002008000E
:102C50000020090000203000002040110000FFFF8C
:102C600000FFFFFF0000030C0004050C0004DB0064
:102C700000002D010000010000800A00000000118A
:102C80000000FFFFFF7F0000008001000000010A3C
:102C9000000400013003000D3003010100040201B3
:102CA00000040C010004D4000000D3000000D00098
:102CB0000000D710000001040004020400040E0408
:102CC0000004C04D0000C14D000040000040400025
:102CD00040800040C0007040013128313031303137
:102CE00031303130313C0C00C016C116313C00008F
:102CF000350435310300401A441A310200001B0428
:102D00001B310200801B841B313E00001C041C0D83
:102D1000FE0000280428120A00034104410E0A00A4
:102D2000C341C441100A0083428442320A00434333
:102D300044430C0A00434544451C0A00C345C445AE
:102D4000140A0003470447040C00C04DC14D120A89
:102D500000034E044E120A00C34EC44E0F020083FD
:102D60004F844F1D0A0043504450004103C04103AB
:102D7000C04D01804203404308404502C045050064
:102D80004704004E03C04E03804F03405005161207
:102D90000000790F0000710F0000400F0000E02ECE
:102DA0000C0110270A01401F080188130501B80B08
:102DB0000301D0070201E80301010019400A800C59
:102DC000200A6009180A4006100AB0040C0A200301
:102DD000080AF401050A9001040AC800020A640006
:102DE000010A4001000000040000AE01000079006B
:102DF0000000C011000080140000F10B090C210C30
:102E0000ED0B050C1D0CE90B010C190CF800000072
:102E100045C758000000000000008000C800000006
:102E2000A9ECFFFF6300000094110000C1E8FFFF60
:102E30006519000010270000E80300009009000059
:102E400080FBFFFFA100000080F8FFFF01010000F0
:102E50000300000000050000000000100C2F00001F
:102E6000D0070000DC010000E2010000FF00FBFFD2
:102E7000D962040108000000580000006000000052
:102E8000C000000001001800000800003E3E08409D
:102E9000003E7C0880003EBA08C0003E8C0900025B
:102EA0003E201000082A201040082A201080082AFE
:102EB0002010C0082A201000092A201040092A20CA
:102EC0001080092A2010C0092A4A10000A206A101E
:102ED000200A201F020000003172AA090908080711
:102EE00007050504040303020201010E060C0E0689
:102EF0000A0A0E0E0E0E02080608080B0007050C43
:102F00000D0F000F0D0E0F0B070F0E0C005D005F75
:102F10000004005C005E005B005A0059006400552C
:102F2000005800540056000000370014001C002414
:102F3000002C004C003C00440053525751500000FC
:102F4000030001000800100018001A00020003002E
:102F500007003300320031003000340064003500D7
:102F600036000600050001000000000031080000E6
:102F70003110000031200000310000003408000052
:102F80003410000034200000340000003608000037
:102F9000361000003620000036000000290800002E
:102FA0002910000029200000290000002A08000044
:102FB0002A1000002A2000002A0000002E0800002D
:102FC0002E1000002E2000002E00000090080000AF
:102FD00090100000902000005008000050100000E9
:102FE0005020000000020000000400000008000063
:102FF000001000000020000000000000010001009F
:1030000000020002000003000300000400040000AE
:103010000500000100060001010007000201000890
:103020000003010009000401000A000002000B0077
:103030000102000C000202000D000302000E000459
:1030400002000F0100000010010100001101020048
:10305000001201030000130104000014010001002C
:1030600015010101001601020100170103010018FA
:103070000104010019010002001A010102001B01F4
:103080000202001C010302001D010402001E0200D6
:1030900000001F02010000200202000021020300C4
:1030A00000220204000023020001002402010100AA
:1030B0002502020100260203010027020401002864
:1030C0000200020029020102002A020202002B0271
:1030D0000302002C020402002D030000002E030155
:1030E00000002F030200003003030000310304003E
:1030F0000032030001003303010100340302010028
:1031000035030301003603040100370300020038D1
:103110000301020039030202003A030302003B03E9
:103120000402003C00000C003D01000C003E0000C9
:10313000150055000029005600003D0057010015FC
:103140000058010029005901003D005A02001500F5
:103150005B020029005C02003D005D000003006886
:10316000000017006900002B006A00003F006B019F
:103170000100043F02010004400104000441020474
:103180000004430E040004450904000447010B0039
:103190000448020B000449030B00044A0001010229
:1031A0004B000201025E000301025F000102024CBB
:1031B00000020202600003020261000003024D00EF
:1031C00001030262000203026300030302640000C1
:1031D00006024E00010602650002060266000306B2
:1031E0000267000107026C000207026D000307027C
:1031F0006E000004026F00010402700002040271FC
:103200000003040272080080025002008002500C89
:10321000008002730D00800274000000040043046B
:10322000004304004304004304004304004304003B
:1032300043040043040043040043040043040043E8
:103240000400430400430400430801430801430809
:1032500001430801430801430801430801430801F1
:10326000430801430801430801430801430801439F
:103270000801430801430C02430C02430C02430CB7
:1032800002430C02430C02430C02430C02430C02A7
:10329000430C02430C02430C02430C02430C024356
:1032A0000C02430B03430C03430D03430E03430F74
:1032B00003432C03432D03432E03432F03433003C7
:1032C000433103433203433303433403433503435E
:1032D0000100430B01431F00011F00020000130007
:1032E0000000000013000000200013200000000078
:1032F0008000000B00000B00000B1C008E19008FDB
:1033000000008600008700000021008800001200F5
:1033100000020000120000110100430200430300FC
:10332000430500430600430700430900430A0043E6
:103330000B00431D008E1E008E1A008F1B008F2174
:103340000086220086230086210087220087230032
:103350008704004D01004D02004D03004D21008403
:1033600022008423008400008C21008C22008C2306
:10337000008C2200882300880100300351010430B2
:1033800003530000400260030100000480000200BB
:103390008000000240024000000205000600030415
:1033A00084000000000000000000FFF7FFFF00089D
:1033B00000000105000040000000BFFFFFFF80008B
:1033C00000007FFFFFFFFFFEFFFF21000000FEFF68
:1033D000FFFF02000000FDFFFFFF04000000FBFFF5
:1033E000FFFF00200000FFDFFFFF00100000FFEFE5
:1033F000FFFF00400000E3000000FFFF7FFFE4004C
:103400000000FF7F00000000E00010789D04EC2920
:103410000600290A000061F9FFFFB103000011A2B4
:103420000A12A20A14A20A13960A159C0A08D20AC2
:1034300016D80A17C00A18BA0A1AC60A1BCC0A1DDF
:10344000EA0A01A80A02AE0AFFFFFFFF8001070196
:10345000FF00FD00F600F800FB000204000000047D
:10346000080040052C0040052C0040052CABF84915
:103470004000002041C046EE4400007A440000C0F5
:103480003F00C0FAC30080FFCE00000044337F98A5
:10349000450000C84B000040400000964400590021
:1034A00059002301310112009900060006020306AB
:1034B0000104060205000305001F1C1F1E1F1E1F1E
:1034C0001F1E0000000000001F1E1F00001F003B09
:1034D000005A0078009700B500D400F300110130C5
:1034E000014E01100E000080510100C0010000805B
:1034F00004000001020408102040800100000002C6
:10350000000000040000000800000010000000207F
:1035100000000040000000800000000001000000EA
:10352000020000000400000008000000100000007D
:1035300020000000400000008000000000010000AA
:10354000000200000004000000080000001000005D
:10355000002000000040000000800000000001008A
:10356000000002000000040000000800000010003D
:1035700000002000000040000000801800000080D3
:1035800096184B83F9223F01FC7F470000803E00E4
:10359000008040FBD71E39652699BB5834A33DE116
:1035A0005D25BFDB0FC93FC0D075D010D0D032C071
:1035B000E0C0D075D018C082C083758C55758A560E
:1035C000900D16E0600BE014F0E0700553A67FC28A
:1035D0008CD083D082D0D0D0E032C0D075D010D083
:1035E000D032C0E0C0D075D018C082C083758D5570
:1035F000758B56900D14E0600BE014F0E0700553ED
:10360000A6F7C28ED083D082D0D0D0E032C0E0C046
:10361000D075D010C021C022C023C024C082C08376
:10362000C0F0C2CF75CDAA75CCAB900D11E064018E
:103630007006900D12E004F0900D12E0642D701EE3
:10364000900E09E004F0E0940B401F900E0AE07029
:1036500019900E09E4F0900D06E04410800BE09400
:10366000334007900D06E054EFF0900D12E0C39444
:103670004050030236FEE4F0900D03E0F8A3E0F9B9
:10368000E849707A900CC9E07074900D037401F0F1
:10369000A3E4F0900D06E04401F0900CC67401F034
:1036A0007521ED7522107821121F70900DED782193
:1036B000121CD8A37821121C07A37821121C07AA78
:1036C00021AB22AC23AD24120CB27402121E42753F
:1036D00021EE7522107821121F70900DF9782112B9
:1036E0001CD8A37821121C07A37821121C07AA2139
:1036F000AB22AC23AD24120CB27402121E42120F84
:103700004C120F34120CD6120A90900652E060034D
:10371000E014F0900D10E004F0E0C394644009E47C
:10372000F0900D07E0D2E0F0900CC5E06003E014EB
:10373000F0120E02900CCEE004F0D0F0D083D082D4
:10374000D024D023D022D021D0D0D0E032C0D07528
:10375000D010A2C05002C2C0A2C15002C2C1D0D07B
:1037600032C0E0C0D075D018C021C082C083C0F084
:10377000902840E0F521902843E05221E521A2E77E
:103780005029902840E0C2E7F043A608758D557592
:103790008B56D28E900D15E0900D1460047402804B
:1037A000027404F07A007903120C5EE521A2E45061
:1037B00007902840E0C2E4F0E521A2E550079028F8
:1037C00040E0C2E5F0E521A2E25011902840E0C2BD
:1037D000E2F0902836E0C2E1F0120F5EE521A2E3AC
:1037E0005011902836E0C2E0F0902840E0C2E3F0AB
:1037F000120F52E521A2E05011902826E0C2E1F01C
:10380000902840E0C2E0F0120F40E521A2E1501103
:10381000902826E0C2E0F0902840E0C2E1F0120FCC
:103820003A5391EFD0F0D083D082D021D0D0D0E0E5
:1038300032C0E0C0D075D018C021C082C083C0F0B3
:10384000902848E0F52190284BE05221E521A2E79D
:103850005029902848E0C2E7F043A680758C557542
:103860008A56D28C900D17E0900D16600474028079
:10387000027404F07A017903120C5EE521A2E6508D
:1038800007902848E0C2E6F0E521A2E2500E902819
:103890003EE0C2E1F0902848E0C2E2F0E521A2E378
:1038A000500E90283EE0C2E0F0902848E0C2E3F0DD
:1038B000E521A2E45007902848E0C2E4F0E521A207
:1038C000E5501590284BE0C2E5F0902838E0C2E0C2
:1038D000F0902848E0C2E5F0E521A2E0500E9028E3
:1038E0002EE0C2E1F0902848E0C2E0F0E521A2E13C
:1038F000500E90282EE0C2E0F0902848E0C2E1F09F
:103900005391DFD0F0D083D082D021D0D0D0E0321C
:10391000C0E0C0D075D010C082C083E591A2E6504F
:1039200018902850E0A2E25004E0C2E2F0E0A2E3E6
:103930005004E0C2E3F05391BFD083D082D0D0D006
:10394000E032C0D075D010D0D032C0D075D010D0F9
:10395000D032E5A1A2E0404BE5A1A2E25009120F4E
:1039600076E960EE120DEAE5A1A2E35006120F7CA3
:10397000E960DF120DBA120C04120F82120DCC1284
:103980000DDE120DD2120DD8900B55E0645060047C
:10399000790280069011CBE493F9120DA8120DF074
:1039A000E960AFC286C285120DBA7903120DB4E97F
:1039B00060A07E0080109011CBE493F9120DA81244
:1039C0000DF0E9608D0EEEC39414503475CEA575DC
:1039D000CF5A75CEA575CF5A79BB120DA279BB12FD
:1039E0000DA2E5A1A2E040DD120DCC120DDE120DFC
:1039F000D2120DD8900B55E0645060BA790280BCA9
:103A0000C2AF120DAE120D0675CEA575CF5A120FAC
:103A10006475CEA575CF5A120E5075CEA575CF5AC6
:103A2000120D3675CEA575CF5A120DC075CEA5757F
:103A3000CF5AD2AF120E56120C4C75CEA575CF5A76
:103A400075CEA575CF5A120E9E900D05E0F8A3E035
:103A5000F9E8496005120F6A8025900D07E06005BE
:103A6000120F70801A900D09E0F8A3E0F9E84960A0
:103A700005120B928009900D08E06003120CE29091
:103A80000E07E064AA7004A3E0645570AD023952D9
:103A9000FFFFFFFFFFFFFFFFFFFFFFFFFFFFFFFF36
:103AA000FFFFFFFFFFFFFFFFFFFFFFFFFFFFFFFF26
:103AB000FFFFFFFFFFFFFFFFFFFFFFFFFFFFFFFF16
:103AC000FFFFFFFFFFFFFFFFFFFFFFFFFFFFFFFF06
:10800000C082C083801D8C828D83E4938A828B839F
:10801000F08C828D83A3AC82AD838A828B83A3AAEA
:1080200082AB83E9F874FF28190470DAD083D08218
:1080300002009374F7121EBAEAFEEBFF8E828F8362
:10804000A3A3A3A3A3A3A3E0640170217906EE2454
:1080500010F582E43FF583E0FCA3E0FD7A007B00AD
:10806000120B868E828F83A3A3740680098E828F63
:1080700083A3A3A3A3E4F079007F01021F2674F277
:10808000121EBAEAFEEBFF8E828F83A3A3A3A3A3E3
:10809000A3A3E06401600E8E828F83A3A3A3A3E455
:1080A000F0F9028146900E05E0A2E04008900BC86E
:1080B000E064557079EE2410F521E43FF522EE24BA
:1080C00002F523E43FF5247906852182852283E0A9
:1080D000FAA3E0FB120A12E9703F79068521828536
:1080E0002283E0FCA3E0FD7A007B00120B80752563
:1080F000067526007825121F70852182852283E06F
:10810000FCA3E0FD7AC27B0B120F8E7402121E429A
:10811000852382852483E4802A8E828F83A3A3A370
:10812000A3A3E04401F085238285248380138E82FB
:108130008F83A3A3A3A3A3E04404F08E828F83A321
:10814000A37401F079007F06021F2674F2121EBA92
:10815000EAFEEBFF752300800205239029F0E493EB
:10816000F8E523C3985029EE240BF582E43FF5830C
:10817000E0F985232175220074027821121E1974FA
:10818000CC2521F58274293522F583E4936970C9E1
:108190009029F0E493F8E523C398505075240074B7
:1081A000027823121E1974CC2523F874293524F97A
:1081B00088828983A3E493F525740193F526EE2440
:1081C00008F521E43FF522852182F5837404121F0E
:1081D0008988828983A3A3A3E493F9AA25AB2612F5
:1081E0000AB47404121E4274FF6970188E828F8361
:1081F000A3A3A3A3A37402F0A3E4F08E828F83A3AE
:10820000A30282B48E828F83A3A3A3A3A3A3A3A359
:10821000A3E0F4700F8E828F83A3A3A3A3A3A3A3D1
:10822000E0D2E6F08E828F83A3E0FA74146A6003D2
:108230000282B88521828522837821121CD8902B56
:10824000EE7821121C84902BF278211211F26068D2
:10825000902BF678211211F2605EEE2402FCE43FCE
:10826000FDE975F00DA4F521E5F0F522E5252521C0
:10827000F582E5263522F583A3A3A3A3A3E4937592
:108280002200240CF521500205228C828D83E0F51A
:1082900023C3E5219523E5229400A2D265D0335073
:1082A000178E828F83A3A3A3A3A37401F0A3E4F08A
:1082B0008C828D8304F0801474126A70167C427D67
:1082C00027EEFAEFFB120B6EE9F4604D79007F06A2
:1082D000021F26E975F00DA4F8A9F0E52528F5821E
:1082E000E52639F583AC82AD83EEFAEFFBA3A3A3B9
:1082F000A3A3A3A3A3E49325E0F8E433F974E5284A
:10830000F582742039F583E493C0E0740193F5831A
:10831000D082121EB8E9F470B379FF80B174F01204
:108320001EBA8A218B22EA2408FEE43522FFEA24C1
:1083300010F523E43522F5247525047526007825EB
:10834000121F70852382852483E0FCA3E0FDEEFAF2
:10835000EFFB120F8E7402121E428E828F837825DD
:10836000121CD8902BFA78251211F27036852382D0
:10837000852483E0F8A3E0F5838882A3A3A3A3E484
:10838000F0852382852483E0F8A3E0F5838882A327
:10839000A3A3A3A3E4F0852182852283A3A374066B
:1083A0000284E7902BFE78251211F2700D85218250
:1083B000852283A3A374050284E7902C02782512FA
:1083C00011F26003028467852382852483E0F8A389
:1083D000E0F9E8FAE9FB8A828B83A3A3A3A3A3A312
:1083E000E0FF8A828B83A3A3A3A3A3A3A3E01460CB
:1083F0000814600914600A800A7C0080067C0480EE
:10840000027C08ECFEEA2404FA50010B1209D6EEB5
:10841000FCEFF9120E68E9603D8F257526007402A5
:108420007825121E197825121F707C647D0C852317
:1084300082852483E02404FAA3E03400FB120F8E2B
:108440007402121E42EF333354FC240485218285CA
:108450002283A3A3800E852182852283A3A3A3A3C5
:10846000A3E044010284E77900800109E9C3941D77
:10847000507AE975F007A4FAABF074F12AFA74297E
:108480003BFB8A828B837825121CE78E828F837850
:10849000251211DD70D5EA2406FEE43BFF85238218
:1084A000852483E02404F523A3E03400F524782315
:1084B000121F708E828F83E493F98A828B83A3A329
:1084C000A3A3E493F523740193AA23FBE4FCFD1218
:1084D0000A3C7402121E428E828F83E49324048528
:1084E0002182852283A3A3F07900800D85218285D6
:1084F0002283A3A3A3A3E4F0F97F08021F2674F04C
:10850000121EBA74FE121E2C853182853283EAF067
:10851000A3EBF0853182853283E02408F527A3E0C0
:108520003400F528853182853283E02410F525A3B7
:10853000E03400F5267521047522007821121F70A1
:10854000852582852683E0FCA3E0FDAA27AB2812BF
:108550000F8E7402121E42902C067821121CE785A1
:10856000278285288378211211DD900BC87048740A
:1085700055F079017CC87D0B7A287B02120B80753F
:10858000215075220B7821121F707902902C0A78E5
:1085900021121CE7AA21AB22AC23AD24120A3C74A1
:1085A00002121E4275215075220B7821121F70791C
:1085B00002902C0E0286CEE06455601885318285CB
:1085C0003283E0F8A3E0F5838882A3A3A3A3A37476
:1085D00004028BEC8527828528837821121CD89091
:1085E0002C1278211211F27040900B50E4F0A3F09D
:1085F000900BC8F075215075220B7821121F7079ED
:1086000002902C0E7821121CE7AA21AB22AC23ADDC
:1086100024120A367402121E4279017CC87D0B7A3C
:10862000287B02120B80028C90902C16782112115C
:10863000F27036852582852683E02404F521A3E0A7
:108640003400F5227821121F70791B902C1A7821A2
:10865000121CE7AA21AB22AC23AD24120A36740205
:10866000121E42120C9A028C90902C1E782112112C
:10867000F27036852582852683E02404F521A3E067
:108680003400F5227821121F70791B902C1A782162
:10869000121CE7AA21AB22AC23AD24120A367402C5
:1086A000121E42120C8E028C90902C2278211211F4
:1086B000F27033852582852683E02404F521A3E02A
:1086C0003400F5227821121F70791B902C1A782122
:1086D000121CE7AA21AB22AC23AD24120A36740285
:1086E000121E42028C90902C2678211211F27018E2
:1086F000852582852683E02404FAA3E03400FB125A
:1087000009D6120C94028C90902C2A78211211F226
:10871000700E7A8A7B08120BB6900B4C745580153C
:10872000902C2E78211211F270157A8A7B08120B88
:10873000B6900B4CE4F0900D09E04440028C8F9011
:108740002C3278211211F260030288527521707563
:1087500022007821121F707C007D007AD17B0B12E1
:108760000F947402121E427521067821121F708523
:108770002582852683E02404FCA3E03400FD7AD121
:108780007B0B120F8E7402121E4275210878211283
:108790001F70852582852683E0240AFCA3E034002F
:1087A000FD7AD97B0B120F8E7402121E42900BE1E0
:1087B000E4F0A37440F0A37405F0A3742CF0A37448
:1087C000B6F0A37464F0A37467F0A37480F075210D
:1087D0000C7821121F70852582852683E0242AFCCF
:1087E000A3E03400FD7A317B0C120F8E7402121E4E
:1087F00042900BD97821121CD874017821121BBC2D
:10880000900BD97821121CFAA37821121CFA900C33
:10881000317821121CD874017821121BBC900C31C4
:108820007821121CFAA37821121CD8740178211225
:108830001BBC900C357821121CFAA37821121CD88D
:1088400074017821121BBC900C397821121CFA0299
:108850008B0C902C3678211211F270508525828570
:108860002683E02404FAA3E03400FB1209DCEAF8D2
:10887000EBF9ECFAEDFB900BF5121D458525828591
:108880002683E02408FAA3E03400FB1209DC900CF4
:108890000D121D15852582852683E0240CFAA3E0A0
:1088A0003400FB1209DC900C25028B09902C3A78DD
:1088B000211211F26003028949852582852683E011
:1088C0002404FAA3E03400FB1209DC900BED121D26
:1088D00015852582852683E02408FAA3E03400FB71
:1088E0001209DC900BF1121D15852582852683E087
:1088F000240CFAA3E03400FB1209DC900C05121DD5
:1089000015852582852683E02410FAA3E03400FB38
:108910001209DC900C09121D15852582852683E03D
:108920002414FAA3E03400FB1209DC900C1D121D84
:1089300015852582852683E02418FAA3E03400FB00
:108940001209DC900C21028B09902C3E7821121127
:10895000F27003028C90902C4278211211F2600385
:10896000028A5C852582852683E02404FAA3E0340C
:1089700000FB1209D6900BE9E4F0A3F0A3F0A3F0FA
:10898000EB54046024EAF42401F521E434FFF522D9
:108990003395E0F523F524902C467821121CAE90F7
:1089A0000BE97821121CFA800CEA900BE9F0A3E4A1
:1089B000F0A3F0A3F0852582852683E02406FAA3A0
:1089C000E03400FB1209D6900C01E4F0A3F0A3F010
:1089D000A3F0EB54046024EAF42401F521E434FF0D
:1089E000F5223395E0F523F524902C467821121CCE
:1089F000AE900C017821121CFA800CEA900C01F068
:108A0000A3E4F0A3F0A3F0852582852683E0240863
:108A1000FAA3E03400FB1209D6900C19E4F0A3F09D
:108A2000A3F0A3F0EB54046024EAF42401F521E45C
:108A300034FFF5223395E0F523F524902C46782178
:108A4000121CAE900C197821121CFA800CEA900CC2
:108A500019F0A3E4F0A3F0A3F0028B0C902C4A7859
:108A6000211211F27047852582852683E02404FABD
:108A7000A3E03400FB1209DC900BF9121D158525CB
:108A800082852683E02408FAA3E03400FB1209DC87
:108A9000900C11121D15852582852683E0240CFA81
:108AA000A3E03400FB1209DC900C29805C902C4E72
:108AB00078211211F27003028C90902C52782112BE
:108AC00011F27069852582852683E02404FAA3E0EB
:108AD0003400FB1209DC900BFD121D1585258285E3
:108AE0002683E02408FAA3E03400FB1209DC900C92
:108AF00015121D15852582852683E0240CFAA3E036
:108B00003400FB1209DC900C2D121D15796E7AD100
:108B10007B0B120A0C900C3FEAF0A3EBF079707C0F
:108B2000D17D0B7A407B01120B80028C6A902C560F
:108B300078211211F27009900D09E04480028C8FA7
:108B4000902C0278211211F26003028C0885258294
:108B5000852683E0F8A3E0F988828983A3A3A3A3F1
:108B6000A3A3A3A3E014600814604E14605A8067A6
:108B7000E82404FAE439FB1209DC900C41121D15BB
:108B8000790C7A417B0C120A0C900C4DEAF0A3EBA5
:108B9000F075214175220C7821121F70790E902CEE
:108BA0005A7821121CE7AA21AB22AC23AD24120A69
:108BB000367402121E42028C6AE82404FAE439FB7D
:108BC0001209DC900C4580B5E82404FAE439FB1264
:108BD00009DC900C4980A6853182853283E0F8A3B8
:108BE000E0F5838882A3A3A3A3A37401F0A3E4F018
:108BF000853182853283E0F8A3E0F5838882A3A3E0
:108C00007401F07900028CA37E0080010EEEC39403
:108C10001D5054EE75F007A4F8A9F074F128FA7409
:108C20002939FB8A828B837821121CE7852782856C
:108C3000288378211211DD70D38A828B83A3A3A3AA
:108C4000A3A3A3E493F9852582852683E02404FC6D
:108C5000A3E03400FD8A828B83A3A3A3A3E493FA49
:108C6000740193FB120B80EE7005900D09801D605E
:108C70000DC394065008900D09E044088011EEC31E
:108C80009406400C900D09E04424F0A3E04402F067
:108C9000853182853283E0F8A3E0F5838882A3A33F
:108CA000E4F0F97402121E427F08021F2674F412C7
:108CB0001EBAEAFEEBFF7B0074FF29FA740F121E46
:108CC00096E07049902C62C082C083740C121E968C
:108CD0007821121CD8902C5E7821121C84D083D06D
:108CE0008278211211F2604A740D121E96E0F87417
:108CF000FF686006E8C394055038740E121E96E0B3
:108D0000F8740C686017740B68700B8010740D1287
:108D10001E96E0F47007740D121E96E4F08E828F9A
:108D2000837821121CE7740C121E967821121245CA
:108D3000500F79FF7F04021F26EA696056740129EB
:108D4000FB8B23E5232AF521E43400F52274017816
:108D500021121DFAA921E975F00DA4F521E5F0F520
:108D600022EE2521F582EF3522F5837821121CE7CA
:108D7000740C121E9678211211DD6017740C121EED
:108D800096782112125550B1EB696003028E22E9E8
:108D9000600119E975F00DA4FAABF0EE2AFAEF3B89
:108DA000FB8A828B83E493FEA3A3A3A3A3A3A3E4E0
:108DB00093F521EE2521FEE43400FF740C121E967B
:108DC000E0F521C3EE9521EF9400C365D033500345
:108DD000028D328A828B83A3E493FE8A828B83A3E3
:108DE000A3A3A3A3A3E493F521EE2521FEE434007D
:108DF000FF740D121E96E0F521C3EE9521EF94004D
:108E0000C365D0335003028D32740E121E96E0F803
:108E10008A828B83A3A3E493C3985003028D32020A
:108E20008D3474FF29FA028D4174F0121EBAEAFEE5
:108E3000EBFF8E828F83A3A3A3A3A3A3A3E064026B
:108E4000600E8E828F83A3A3A3A3E4F0F9028FA800
:108E5000EE2408F527E43FF528EE2410F525E43F3D
:108E6000F5267521047522007821121F7085258250
:108E7000852683E0FCA3E0FDAA27AB28120F8E74A1
:108E800002121E42900BC8E064557003028F4785A2
:108E90002582852683E0FAA3E0FB8A828B83A3A345
:108EA000A3A3A3A3A3A3E0F97402696005740469F2
:108EB00070347402697015902C667821121CE78555
:108EC000278285288378211211DD701A7404697055
:108ED00022902C6A7821121CE785278285288378C6
:108EE000211211DD600D8E828F83A3A3A3A3A3742F
:108EF000018047900E05E0A2E05034EA2404F58298
:108F0000E43BF583E0F8E9C3984024AA82AB8312DE
:108F10000E32E9F88E828F83A3A3A3F074FF6870EA
:108F2000268E828F83A3A3A3A3A3A3A37420F08E72
:108F3000828F83A3A3A3A3A37404F0A3E4F08E827F
:108F40008F83A3A304805E852582852683E0F8A312
:108F5000E0F9888289837903E5822409FCE435837A
:108F6000FDA3A3A3A3A3A3A3A3E089F0A4ABF02430
:108F7000C0FA50010B120B80852582852683E0FA0A
:108F8000A3E0FB7521047522007821121F70EA24EA
:108F900008FCE43BFD120F8E7402121E428E828F7B
:108FA00083A3A37404F079007F08021F2674F612CD
:108FB0001EBA74FF121E2CEAFEEBFF8E828F83A373
:108FC000A3A3A3A3A3A3E06402600E8E828F83A356
:108FD000A3A3A3E4F0F9029060EE2410F582E43F2D
:108FE000F583E0F8A3E0F5838882E085318285325D
:108FF00083F07802800108E8C39406501785318217
:10900000853283E0F974F328F582E43434F583E49F
:10901000936970E2E8C39406500B8E828F83E0F868
:1090200074016870188E828F83A3A3A3A3A374080E
:10903000F0A3E4F08E828F83A3A3048020740168E0
:10904000700D7901AC31AD327A7B7B00120B8090D0
:1090500006517428F08E828F83A3A37401F07900E7
:109060007401121E427F02021F2674F4121EBAEA15
:10907000FEEBFF8E828F83A3A3A3A3A3A3A3E0642D
:1090800002600E8E828F83A3A3A3A3E4F0F9029162
:109090001DEE2410F521E43FF522900BC8E0645545
:1090A000603E852182852283E0FAA3E0FB120E3226
:1090B000E9FA8E828F83A3A3A3F0900E05E0A2E0CD
:1090C000500574026A60198E828F83A3A3A3A3A3A1
:1090D0007404F0A3E4F08E828F83A3A304F0803B9A
:1090E000900D05E04440F08E828F83A3A3E4F075D9
:1090F0002304F5247823121F70852182852283E0C2
:109100002404FCA3E03400FD7A537B06120F8E7416
:1091100002121E427A947B08120BB679007F040279
:109120001F26790002009374F0121EBA74F1121E09
:109130002C8A238B248A828B83A3A3A3A3A3A3A318
:10914000E06003029271A831A93288218922782136
:10915000121F707906902C6E7825121CE7AA25AB99
:1091600026AC27AD28120A3C7402121E42900CE471
:10917000E0F8742368700C900CE3E0C3945540034E
:10918000029271E8700C900CE3E0C3940550030266
:10919000927175250080291209FAE92401FEE43450
:1091A00000FF852182852283E0F91209FAE96E4FDA
:1091B000700C900CE3E0C3945540030292710525B6
:1091C000E525C394035041A825E828F8E433F98540
:1091D0003182853283E58228F521E58339F52285C0
:1091E0002182F583A3E0F8900CE5E06870D0900C44
:1091F000E4E0F9852182852283E069709A900CE38E
:10920000E0C3940550B88069E5232410FEE43524BA
:10921000FF7521067522007821121F708E828F83C0
:10922000E0FCA3E0FD7408121EA8120F8E74021257
:109230001E4279028E828F83E0FAA3E0FB120F2296
:10924000E9702E902C72C082C0837CE27D0C740683
:10925000121EA8120EE08A258B268C278D28D0831B
:10926000D08278251212744008900E05E0540260F6
:109270000479FF8018E04402F0900D09E04401F009
:10928000852382852483A3A3A3A3E4F0F9740F129A
:109290001E427F08021F2674F4121EBAEAFEEBFF7C
:1092A000EE2407F523E43FF524852382F583E0F8D7
:1092B0006013740268600E8E828F83A3A3A3A3E45D
:1092C000F0F90293B0EE2410F521E43FF522852158
:1092D00082F583E0FAA3E0FB8A828B83E0649970D5
:1092E00036A3E0649970308A828B83A3A3E06499EB
:1092F00070258A828B83A3A3A3E064997019900DD3
:109300000BE0D2E3F0852382852483E0F870768E2B
:10931000828F83A3A3807C7904120A12E970798575
:109320002182852283E0FCA3E0FD8C828D83A3A3B0
:10933000A3E0F87499686009E8C39413505AE86090
:10934000578C828D83A3A3E0F87499686009E8C301
:1093500094295044E860418C828D83A3E0F874998D
:10936000686006E8C39424502F8C828D83E0F874E3
:1093700099686006E8C3945A501E79047AF77B0016
:10938000120B808080740268600574016870098E19
:10939000828F83A3A3E480158E828F83A3A3A3A3CC
:1093A000A3E04401F08E828F83A3A37401F07900BF
:1093B0007F04021F2674F0121EBA74FF121E2C8A3C
:1093C000218B228A828B83A3858227858328E06470
:1093D0001270030295C88C828D83A3A3A3A3A3A3B9
:1093E000A3A3A3C082C0838A828B83A3A3A3A3A3C6
:1093F000A3A3A3E0F52375240074067823121E1995
:10940000D083D082932523FEA3E4933524FFEC245C
:109410000BF525E43DF526A831A932882389247867
:1094200023121F707901852582852683E493FAE94A
:1094300093FBEA2AFAEB33FB74BA2AF582742A3BCF
:10944000F583E493F523E993AA23FBE4FCFD120AD8
:109450003C7402121E42853182853283E0C3940F30
:109460004003740EF0E5212402F523E43522F524AF
:10947000852782852883E064117040E5212410F55A
:1094800082E43522F583121F8575F0037402121EE3
:1094900096E0A4F98E218F22AA21AB22E4FCFD12D2
:1094A0000A3C7402121E4275F003853182853283B4
:1094B000E0A48523828524830295E2852582852682
:1094C00083E493F8740193F9740168497004791185
:1094D00080027912852182852283A3A3A3E0649868
:1094E000600A852382852483E024F4F08523828525
:1094F0002483E0FC75F00384E5F060030295C8E581
:10950000212405F525E43522F526ECC3942B4003F0
:1095100002959DE5212410F52150020522F5828552
:109520002283E0FAA3E0FB120BA4E98525828526BD
:1095300083F0A3E4F0852582852683E0F8A3E0F993
:10954000E849707A852382852483E0F88521828525
:109550002283E028FAA3E03400FB742AC398F5259F
:1095600095E0F5267825121F70EA24FDFCEB34FF08
:10957000FD120F8E7402121E42792A8521828522E5
:1095800083E0FCA3E0FDEEFAEFFB120B8085238263
:10959000852483E4F0900D09E04401804585218213
:1095A000852283A3A3A3A3A3A3A3A3E085258285E8
:1095B00026837004741080027420F0A3E4F08523E5
:1095C000828524837401801A852182852283A3A346
:1095D000A3A3A37401F0A3E4F0852182852283A3D1
:1095E000A304F079007401121E427F08021F267442
:1095F000F0121EBA8A258B268A828B83A3E0F8EAB2
:109600002402F527E43526F528741468700D8A8243
:109610008B83A3A3A3A3A37404801074126870198E
:109620008A828B83A3A3A3A3A37401F0A3E4F08590
:109630002782852883040296FEEC2405FEE43DFF84
:109640008E828F83E493F87900EA2410F523E435C1
:1096500026F524852382F583E0FAA3E0FB852582A5
:10966000852683A3A3A3A3A3A3A3A3E0F4882189AE
:109670002278217042121F707C5F7D08120F8E7459
:1096800002121E427521047821121F707CFF7D009A
:109690008E828F83E493F8852382852483E028FAE1
:1096A000A3E03400FB120F947402121E428E828FCC
:1096B00083E49324048041121F708C828D8378216F
:1096C000121CE7A921852582852683A3A3A3A3A332
:1096D000A3A3A37821121CD8E521C39925E0F8E4BF
:1096E00033F9745F28FC740839FD120F8E7402126E
:1096F0001E428E828F83E493852782852883F079AA
:10970000007F08021F2674F6121EBAEAFEEBFFEE77
:109710002407F521E43FF522852182F583E0F874E2
:1097200002686010E8600D8E828F83A3A3A3A3E478
:10973000F0F98061EE2410F582E43FF583E0F8A3B0
:10974000E0F5838882E0F8700D7900120DE4900650
:109750005CE0C2E08020740268700D7902120DE4B2
:1097600090065CE0D2E0800E8E828F83A3A3A3A339
:10977000A37401F0A3E4F08E828F83A3A37401F09D
:10978000852182852283E0700A8E828F83A3A3A322
:10979000A3E4F079007F02021F2674F0121EBA744F
:1097A000E2121E2C7404121E96ECF0A3EDF0EAFEF9
:1097B000EBFF7404121E96E0F8A3E0C8240BF582B8
:1097C000E438F583E493F582A8828E828F83A3E048
:1097D000FA74146A700D8E828F83A3A3A3A3A3745B
:1097E00004801074126A70198E828F83A3A3A3A3BE
:1097F000A37401F0A3E4F08E828F83A3A304029AE2
:109800003BE8A2E0740A40030298C8121E968582C3
:10981000218583227821121F707C047B147A0179C0
:1098200000120BD47402121E42740E121E96858210
:10983000218583227821121F707C047B287A01798C
:1098400000120BD47402121E42740A121E96782162
:10985000121CD8740E121E967821121C0774061260
:109860001E967821121CFA7416121E968582218586
:1098700083227821121F707C047B147A00790012F5
:109880000BD47402121E42741A121E968582218510
:1098900083227821121F707C047B287A00790012C1
:1098A0000BD47402121E427416121E967821121CDA
:1098B000D8741A121E967821121C077412121E9662
:1098C0007821121CFA02997B121E968582218583CB
:1098D000227821121F707C047B147A007900120B0D
:1098E000D47402121E42740E121E96858221858344
:1098F000227821121F707C047B287A007900120BD9
:10990000D47402121E42740A121E967821121CD8B8
:10991000740E121E967821121C077406121E967879
:1099200021121CFA7C007B037A007901120C168A42
:10993000218B227C007B037A007902120C16900A9C
:10994000507825121CD8900A647825121C07E5224D
:109950003395E0F523F52478257921121BF48A212B
:10996000EBF5223395E0F523F52478257921121BB8
:10997000F47412121E967825121CFA7412121E9696
:109980007821121CD87406121E967821121C588554
:1099900031828532837821121CFA902C767821123C
:1099A0001CE7853182853283782112124585318208
:1099B000853283400AE4F0A3F0A3F0A3F0803C7862
:1099C00025121CD8902C7A7821121CE77825792151
:1099D000121AC18531828532837825121CFA8531AD
:1099E00082853283121D091209E8EAF8EBF9ECFAD4
:1099F000EDFB853182853283121D45752104752268
:109A0000007821121F707402121EB0EE2410F5822D
:109A1000E43FF583E0FAA3E0FB120F8E7402121EFE
:109A2000427404121E96E0F8A3E0F5838882A3A393
:109A3000A3A3A3E4938E828F83A3A3F07900741E63
:109A4000121E427F08021F2674F0121EBA74F11211
:109A50001E2C7405121E96ECF0A3EDF0EAFEEBFF4F
:109A60008E828F83A3E0F8741468700D8E828F83CA
:109A7000A3A3A3A3A37404801074126870198E8228
:109A80008F83A3A3A3A3A37401F0A3E4F08E828F1A
:109A900083A3A304029C6FA831A93288218922786C
:109AA00021121F70902C7E7821121CE7AA21AB2274
:109AB000AC23AD24120A427402121E42740B121E11
:109AC000A0882189227821121F7079047402121E45
:109AD00096E0F52175220074027821121E19E52105
:109AE0002401FAE5223411FB3395E0FCFD120A3C17
:109AF0007402121E427405121E96E0F8A3E0C824F8
:109B00000BF582E438F583E493A2E0505685318268
:109B1000853283E0A2E0E433045401F07407121E9E
:109B2000A0882189227821121F7079047402121EE4
:109B300096E0F52175220074027821121E19E521A4
:109B40002401FAE5223411FB3395E0FCFD120A3CB6
:109B50007402121E42740B121E967821121CD874C5
:109B60000780637C007B037A007901120C168A213E
:109B70008B227C007B037A007902120C16900A502B
:109B80007825121CD8900A647825121C07E5223328
:109B900095E0F523F52478257921121BF48A21EB31
:109BA000F5223395E0F523F52478257921121BF46D
:109BB0007407121E967825121CFA7407121E9678E6
:109BC00021121CD8740B121E967821121C58740195
:109BD000121E967821121CFA902C767821121CE71E
:109BE0007401121E9678211212457401400D121E46
:109BF00096E4F0A3F0A3F0A3F08034121E9678252B
:109C0000121CD8902C7A7821121CE7782579211221
:109C10001AC17401121E967825121CFA7401121EC4
:109C200096121D091209E87401121E96121D15756F
:109C300021047522007821121F707403121EB0EEE9
:109C40002410F582E43FF583E0FAA3E0FB120F8EC7
:109C50007402121E427405121E96E0F8A3E0F5830A
:109C60008882A3A3A3A3A3E4938E828F83A3A3F0EC
:109C70007900740F121E427F08021F2674F0121E14
:109C8000BA74F4121E2C7404121E96EAF0A3EBF0C0
:109C90007409121E96E4F07404121E96E0F8A3E014
:109CA000F5838882A3E0F874146870167404121E99
:109CB00096E0F8A3E0F5838882A3A3A3A3A374048A
:109CC0008019741268702C7404121E96E0F8A3E0D8
:109CD000F5838882A3A3A3A3A37401F0A3E4F07483
:109CE00004121E96E0F8A3E0F5838882A3A3740112
:109CF00002A0F87404121E96E0240AF8A3E03400CF
:109D0000F97407121E96E8F0A3E9F07404121E9687
:109D1000E0F8A3E0C82407F582E438F583E0A2E682
:109D20004003029EE17406121E96E48065740712D9
:109D30001E96E0F8A3E0F5838882E07013902C82F1
:109D40007821121CE78531828532837821121C9B91
:109D50007521047522007821121F707402121EB042
:109D6000740C121E96E0F8A3E0F97406121E96E039
:109D7000FAA3E0CA2410F582E43AF583E028FAA3B6
:109D8000E039FB120F8E7402121E427406121E96E8
:109D9000E004F0E0C394054003029ECDE0F5217598
:109DA000220074027821121E19740A121E96E521EF
:109DB000F0A3E522F0740A121E96C082C0837407D5
:109DC000121E96E0F8A3E0F5838882E075F014A4F3
:109DD000F8A9F0743C28F8740A39F9D083D082E0ED
:109DE00028F8A3E039F988828983121D39853182E8
:109DF000853283121D457C007B037406121E96E09B
:109E0000FA7407121E96E0F8A3E0F5838882E0F961
:109E1000120C168A218B22EB3395E0F523F524856D
:109E200031828532837821121C317407121E96E02C
:109E3000F8A3E0F5838882E07038902C76782112C0
:109E40001CE78531828532837821121245402385B3
:109E500031828532837821121CD87821121B9B8590
:109E600031828532837821121CFA7409121E96748D
:109E700001F08531828532837821121CD8902C7AAA
:109E80007825121CE778217925121B5A85318285A5
:109E900032837821121CFA853182853283121D09A2
:109EA0001209E8853182853283121D157409121E4C
:109EB00096E07003029D2D902C867821121CE78578
:109EC00031828532837821121CC5029D50740412A0
:109ED0001E96E0F8A3E0F5838882A3A3741402A081
:109EE000F87407121E96E0F8A3E0F5838882E0F884
:109EF000EC240BF521E43DF5227404121E96E024B7
:109F000009FEA3E03400FFE8C39414506B900B806B
:109F1000E4F08E828F83E0F52375240074027823A9
:109F2000121E197407121E96E0F8A3E0F5838882CA
:109F3000E075F014A4F8A9F0743C28F8740A39F913
:109F4000E82523F582E93524F583121D3985318210
:109F5000853283121D457C00852182852283E4930E
:109F6000FB8E828F83E0FA7407121E96E0F8A3E05E
:109F7000F5838882E0F9805175F014E884F5237543
:109F8000240074027823121E198E828F83E0F52537
:109F900075260074027825121E1974742525F8742C
:109FA0000A3526F9E82523F582E93524F583121DC3
:109FB00039853182853283121D457C008521828559
:109FC0002283E493FB7A007901120C168A218B22FA
:109FD000EB3395E0F523F5248531828532837821B2
:109FE000121C317407121E96E0F8A3E0F5838882F4
:109FF000E0F8703F902C767821121CE7853182853D
:10A00000328378211212454035900B807455F085CB
:10A0100031828532837821121CD87821121B9B85CE
:10A0200031828532837821121CFA7409121E9674CB
:10A0300001800A7402687006900B807455F08531B7
:10A04000828532837821121CD8902C7A7825121CB4
:10A05000E778217925121B5A853182853283782150
:10A06000121CFA853182853283121D091209E88596
:10A070003182853283121D157409121E96E0601517
:10A08000902C867821121CE78531828532837821D5
:10A09000121CC580237407121E96E0F8A3E0F58316
:10A0A0008882E07013902C827821121CE78531821F
:10A0B0008532837821121C9B75210475220078213A
:10A0C000121F707402121EB07406121E96E0F8A3DE
:10A0D000E0C82410F582E438F583E0FAA3E0FB122F
:10A0E0000F8E7402121E427404121E96E0F8A3E052
:10A0F000F5838882A3A37404F07900740C121E42C5
:10A100007F08021F2674F0121EBA74F4121E2C74FB
:10A1100004121E96EAF0A3EBF07404121E96E0F807
:10A12000A3E0F5838882A3E0F874146870167404C1
:10A13000121E96E0F8A3E0F5838882A3A3A3A3A34D
:10A1400074048019741268702C7404121E96E0F85E
:10A15000A3E0F5838882A3A3A3A3A37401F0A3E4DF
:10A16000F07404121E96E0F8A3E0F5838882A3A39E
:10A17000740102A5817409121E96E4F07404121E83
:10A1800096E0240AF8A3E03400F97407121E96E85A
:10A19000F0A3E9F07404121E96E0F8A3E0C82407C7
:10A1A000F582E438F583E0A2E6400302A36A740670
:10A1B000121E96E480657407121E96E0F8A3E0F57F
:10A1C000838882E07013902C827821121CE78531FD
:10A1D000828532837821121C9B75210475220078B8
:10A1E00021121F707402121EB0740C121E96E0F839
:10A1F000A3E0F97406121E96E0FAA3E0CA2410F553
:10A2000082E43AF583E028FAA3E039FB120F8E745A
:10A2100002121E427406121E96E004F0E0C394057A
:10A22000400302A356E0F521752200740278211242
:10A230001E19740A121E96E521F0A3E522F0740A95
:10A24000121E96C082C0837407121E96E0F8A3E027
:10A25000F5838882E075F014A4F8A9F0749228F8C8
:10A26000740A39F9D083D082E028F8A3E039F9885C
:10A27000828983121D39853182853283121D457C86
:10A28000017B037406121E96E0FA7407121E96E014
:10A29000F8A3E0F5838882E0F9120C168A218B225C
:10A2A000EB3395E0F523F5248531828532837821DF
:10A2B000121C317407121E96E0F8A3E0F583888221
:10A2C000E07038902C767821121CE7853182853237
:10A2D000837821121245402385318285328378218B
:10A2E000121CD87821121B9B8531828532837821FC
:10A2F000121CFA7409121E967401F085318285329F
:10A30000837821121CD8902C7A7825121CE77821AA
:10A310007925121B5A8531828532837821121CFAE5
:10A32000853182853283121D091209E885318285C3
:10A330003283121D157409121E96E0700302A1B635
:10A34000902C867821121CE7853182853283782112
:10A35000121CC502A1D97404121E96E0F8A3E0F500
:10A36000838882A3A3741402A5817407121E96E049
:10A37000F8A3E0F5838882E0F8EC240BF521E43DB6
:10A38000F5227404121E96E02409FEA3E03400FFB7
:10A39000E8C39414506B900B80E4F08E828F83E0BE
:10A3A000F52375240074027823121E197407121EF7
:10A3B00096E0F8A3E0F5838882E075F014A4F8A98C
:10A3C000F0749228F8740A39F9E82523F582E93502
