:020000040800F2
:10000000C0110020E1000008E9000008910B000881
:1000100000000000000000000000000000000000E0
:10002000000000000000000000000000ED000008DB
:100030000000000000000000EF000008E9130008C5
:10004000F3000008F3000008F3000008F3000008C4
:10005000F3000008F3000008F3000008F3000008B4
:1000600000000000F3000008330B0008F300000854
:10007000F3000008F3000008F3000008000000008F
:10008000F3000008ED14000800000000F300000871
:10009000F3000008F3000008F3000008F300000874
:1000A000F3000008F3000008F30000081D17000823
:1000B000F300000800000000000000000000000045
:1000C000F300000800000000F30000080348854624
:1000D00000F0B0FB00480047FD410008C0110020BF
:1000E0000448804704480047FEE7FEE7FEE7FEE7D6
:1000F000FEE7FEE7F1130008CD000008F0B51FB4DD
:100100000646002082B005464024019100901BE085
:10011000019922460F46304600F074F9049A059B77
:10012000801A994110D310461946224600F05AF918
:10013000361A8F410197224601200021009F00F0CE
:1001400051F938184D4100902046641E0028DFDC2C
:10015000019B00982946324607B0F0BD30B54343B5
:1001600051435C18010C130C0D465D432C1980B2F1
:1001700092B20546554351430A0C09044D19624198
:100180005843010C00044019514130BDF8B50246F6
:100190004A40D40F42004B0052085B089A4202D2F8
:1001A0000246084611464A0023D0C30D4A00DDB27C
:1001B000120EAD1A202D35DA49020126490AF6053C
:1001C0008A19002C00D0524220214F1B1146B94001
:1001D0002A411018C20D9A4221D0002C17D0012DAF
:1001E00008DCDA05801AD20F8019D207DBB200F0E2
:1001F00022F9F8BDDA05801A012340001B06C01859
:1002000080185A428018CA0F1043490007E0490875
:10021000C2071143DA05801A80194008801800F0DF
:1002200002F9F8BD61000122511A001BF7E7012213
:10023000D2075140AAE70122D2075040A6E7024662
:1002400070B54A40D30FDB0740002DD04A002AD0BA
:10025000010E140E000212020919400A520A8418F3
:10026000E50104465443000A120A2E045043A4191F
:100270004219200CC543AA18120C0125AD03521CCB
:10028000521912047F39240400D0521C104301D4A7
:100290004000491EC2B20C06C0092018401C40088C
:1002A000802A02D003E0002070BD400840000029F1
:1002B00000DA0020184370BD70B502464A40D50FE1
:1002C00040004A00ED0740085208002814D0002AD8
:1002D00012D0C40DD30D41020120C0055202490ABB
:1002E000520AE41A091812187D34914201D3641C91
:1002F00000E04900002C01DA002070BD002391428B
:1003000001D3891A0343400849000028F7D1002986
:100310000AD0914202D10121C90705E0914201D2E0
:10032000012101E00121C943E005C018401900F096
:100330007AF870BD0122D207002800DB101A0029CC
:1003400000DB511A814201D2012070470020704722
:100350000122D207002800DB101A002900DB511A05
:10036000814201D9012070470020704710B5002953
:1003700004DB0C460121C9074042A141002B04DBEC
:100380001C460123DB075242A341101A8B4101D3C3
:10039000012010BD002010BDC217C10F504010B584
:1003A0004018CA079623002100F045F810BD10B58B
:1003B00000229623114600F03EF810BDC20FD2076E
:1003C000400040080BD0C10D0723DB01C9184002D3
:1003D0000905400A1143C208400711437047002035
:1003E0000146704710B5202A04DB0146203A9140AF
:1003F000002010BD914020239C1A0346E34019437E
:10040000904010BD10B5202A04DB0846203AD040A9
:10041000002110BD0B46D340D0402024A21A9140A9
:100420000843194610BD002904DA401C490001D1D7
:1004300040084000704770B40024050C05D110241A
:10044000000402D1002921D01124050E01D100029F
:100450000834050F01D10001241D850F01D1800052
:10046000A41C002801DB4000641C002908D02025C2
:100470002E1B0D46F540A14000D001212943084321
:1004800001061B1B000ADB1D02D5002070BC704753
:10049000DB05181880180029F8DA401C4900F5D14E
:1004A00070BC400840007047F0B507460846584009
:1004B00087B0C00F049048000E4659004008490814
:1004C000BC1A884105D2384631461E4617460B46AF
:1004D00002465800400810434CD0300D03904005B0
:1004E0005900400D490D0590401A0290402872DADB
:1004F00018030121000B090508430190049800929C
:10050000002805D0019952420020884100920190B4
:10051000029840210A1A01990098FFF763FF0546E7
:100520000C466B4607CB00F0B6F9C0197141039A2F
:100530000E0D0023D71756401A467A40164344D072
:10054000049A002A2DD0029A012A039A15DC12057A
:10055000C01A914101263605001C7141D20F059E3B
:10056000D2070093019202962A46234600F0B3F97F
:1005700007B0F0BD38463146FAE71605224A0F4665
:10058000B218C01AB74101210905001C4F410018DB
:100590007F41114618187941E20F10436D196441EB
:1005A00013E0E2076D0815436408C2071443039A79
:1005B00001261205C01A91413605001C7141CE0773
:1005C000400830434908C01851412A46234600F0EC
:1005D00075F9CDE7FFE7049801224000C117121A10
:1005E00000238B4104983146C417381AA141EEE725
:1005F00030B40124E407634030BC55E730B4012433
:10060000E407614030BC4FE70000E0FFF0B51FB4E5
:1006100088B00B990998002448400999C00F4900F7
:1006200049080991C0070B990090490049080B91AE
:1006300009990898A64608431CD00B990A980843C4
:1006400018D0099801244000420D4800410D099836
:1006500024050003000B204309900B980003000BB6
:1006600020430B9050181C4940180022019014465A
:10067000104605E0002001460DB0F0BD032801DA68
:10068000034600E003239C46C11A0AAE0AE05F005D
:1006900008ADED5B4F00F75B7D430027AA187C4156
:1006A000491C5B1E6145F2DD410004AB5A52210436
:1006B000120C0A43240C401C0828DFDB019802902E
:1006C0000099704601910090059B049A079906983D
:1006D00000F001F9D0E700000DFCFFFFF0B50C467B
:1006E0005C4085B0E40FE40703944C0000266408E6
:1006F00059009446490802460296224321D0624698
:100700000A431ED06200570D4A000E032303550D05
:10071000012402462C492405781B1B0B360B40187C
:1007200023432643614600901C46501AB44103D32C
:100730000098401C009002E0921800985B4100284D
:1007400003DA0020014605B0F0BD002001210905B3
:100750000746864611E064461D46141BB54106D384
:100760006546521BB341744607430C43A646CD076A
:1007700040084908284392185B4105460D43EAD1D9
:100780001046184313D06046194650407140084344
:1007900006D06046101AB34106D20122002306E0BB
:1007A00000220123DB0702E00122D243531000980C
:1007B00074460105381C6141029C039D0019694182
:1007C00000F07CF8BFE70000FD0300004A000903C9
:1007D0000123090B1B0519430A4B10B5520D9A4210
:1007E00002DA0020014610BD064B34339A4203DC86
:1007F0009A1AFFF707FE10BD034BD218FFF7F2FD60
:1008000010BD0000FF030000CDFBFFFF10B5002965
:1008100004DB0124E40740428C412146002B04DB29
:100820001C460123DB075242A341994200D190426A
:1008300010BD0000064C0125064E05E0E36807CC1C
:100840002B430C3C98471034B442F7D3FFF742FCDB
:10085000786D0008986D000870B50446002903D033
:1008600000202022012310E0002801D00020C043F6
:10087000C046C0460DE02546D5408D4205D30D4605
:100880009540641B1D46954040191546521E002D8B
:10089000F1DC214670BD10B5202A06DBCB170846D7
:1008A000203A1041C1170B4306E00B461341D040DC
:1008B0002024A21A91400843194610BD10B5002B00
:1008C00008DA0024401C614192185B411A4301D1AF
:1008D0004008400010BDF0B51FB482B005460C00C2
:1008E00003D0084605F030FC02E005F02DFC203076
:1008F0000246009021462846FFF774FD049B059AA6
:1009000004460F4618431143084314D018461043B9
:100910001BD0009840210A1A18460599FFF772FD6E
:1009200005460E46009A05990498FFF75BFD0843BB
:1009300005D0012004E02046394607B0F0BD002074
:10094000C11705430E432C43374300990E986305A6
:10095000401A7905E40A00220C43FD0A0A3002D548
:1009600000200146E9E70105101969410C9C0D9D25
:1009700000196941FFF7A2FFDFE770B58C18057811
:10098000401C6B075B0F01D10378401C2A1106D174
:100990000278401C03E006780E70401C491C5B1E68
:1009A000F9D12B0705D40023521E0DD40B70491C1E
:1009B000FAE70378401CCB1A921C03E01D780D70F7
:1009C000491C5B1C521EF9D5A142D8D3002070BD32
:1009D00080B584B01C4804F0BDF8944804F0BAF81F
:1009E0001A4804F0B7F8062003F020FD0920C006DD
:1009F0000321019102220292FB2303F008FB019BD9
:100A0000029A9F48194603F002FB002001F0DCF92E
:100A100001210391084601F059F90298039901F068
:100A20005DFB03980721490401F02EFA039908465B
:100A300001F0ECF901F0DEF9039802F043FB01F05C
:100A400029F904B080BDC046110500000906000068
:100A500080B500F099F800F07BFC00F0E9F800F0B8
:100A600099F800F091FC01F0A5FF02F0E1F800F028
:100A7000D1FA80BD80B582B004F09CFB00F088FE06
:100A800000F0EAF800F0BAF802F090FDFFF7A0FFDE
:100A900000F0FCFD0020019003F074FB42F2805056
:100AA00002F06AFF00F078FC05F0DCF900F006FEC9
:100AB00003F0FEFE03F040FA04F084F804F018FAA4
:100AC00000F0E0FE00F09AFE02F0B6F800F049F8FF
:100AD00001986049C861886148610861C8608860A0
:100AE0004860086002B080BD84B0039002A8017025
:100AF00001A90020087069460870FFE76846007881
:100B000002A9097888420EDAFFE703986946097856
:100B1000415C0198401801A90870FFE70098401C4B
:100B200069460870EAE70198C0433330C0B204B0A8
:100B3000704780B50120022102F066FC28B1FFE772
:100B40000121084602F04EFCFFE70221084602F0B0
:100B50005BFC28B1FFE70220012102F043FCFFE724
:100B600080BD80B582B040F60010019003F0C6FE53
:100B7000019803F0D5FE40F2F410032103F09CF835
:100B800003F00EF902B080BD80B503F003F980BD1B
:100B9000FFE7FEE780B503F03FF902460846154B34
:100BA00059681B68D21A884100211F3A884120D316
:100BB000FFE703F031F90A460E494A600860304801
:100BC000042103F00FFA48B9FFE70B48007820B979
:100BD000FFE7094901200870FFE709E006480078AF
:100BE000012804D1FFE7044900200870FFE7FFE770
:100BF000FFE780BD880400208404002080B584B015
:100C00000A4803F0A7FF1E4800900021019101222D
:100C100002920423039303F0FAF900980199029ACF
:100C2000039B03F03BFA04B080BDC04612050000F0
:100C300080B50848083000F00FFD30B1FFE70548E7
:100C40000830FA2100F02CFDFFE7052005F02AF816
:100C500080BDC046F80A002080B584B008480190E5
:100C600000210291012240F20013039303F0CFF917
:100C700001980299039B032203F010FA04B080BD8F
:100C80000004004810B588B006AA108005A80170BD
:100C900004A8002102910170DD4838247D2303550A
:100CA000383001901288E0239A43120901231A4335
:100CB0004270069A8270059AC27001714171817109
:100CC0000721FFF711FF019A01460298D17103F045
:100CD00039FA0198082102F0B3FE142002F0F2F96B
:100CE000029803F021FAE0B9FFE700200390FFE744
:100CF00003980F2814DCFFE7002003F015FA012801
:100D000001D1FFE70CE0002003F02EFA039AC0495E
:100D1000891828228854FFE70398401C0390E7E7CE
:100D2000FFE7BB4800902E21415C09062D22825C22
:100D3000120489182C22825C120289182B22825CF0
:100D400089184162416A984A926AB1FBF2F10162E4
:100D500038300721FFF7C8FE009A04A9087005A8DB
:100D60000078800080185B22805C0978884204D17A
:100D7000FFE7A748006A079002E000200790FFE71E
:100D8000079808B010BDC04610B58AB008AB1880EF
:100D900007A8017005A80021049101709C4A0292E5
:100DA0007D2010761046183003901B88E024A34362
:100DB0001B09012423435376089B9376079BD37624
:100DC0001177517791770721FFF78EFE029A01463E
:100DD0000498D17703F0B6F90398082102F030FEA9
:100DE000142002F06FF9049803F09EF9F8B9FFE7B8
:100DF00006A900200870FFE706A800780F2815DC78
:100E0000FFE7002003F090F9012801D1FFE70DE092
:100E1000002003F0A9F906A90A787D49891808720B
:100E2000FFE70698401C06A90870E5E7FFE7784849
:100E3000817B0906427B12048918027B1202891801
:100E4000C27A891841604068002804D2FFE77049DF
:100E500000204860FFE76E4801904168524A126ADC
:100E6000B1FBF2F1016018300721FFF73DFE019A56
:100E700005A9087007A80078800080185B22805CB4
:100E80000978884204D1FFE761480068099002E0D0
:100E900000200990FFE709980AB010BD10B58AB08C
:100EA00008AA108007A8017005A80021049101700C
:100EB000574858247D230355583003901288E02367
:100EC0009A43120901231A434270089A8270079AC2
:100ED000C2700171417181710721FFF705FE039A0C
:100EE00001460498D17103F02DF90398082102F00E
:100EF000A7FD142002F0E6F8049803F015F900BBF2
:100F0000FFE706A900200870FFE706A80078092877
:100F100016DCFFE7002003F007F9012801D1FFE705
:100F20000EE0002003F020F906A90A783849891854
:100F300048228854FFE70698401C06A90870E4E799
:100F4000FFE7334801904E21415C09064D22825C47
:100F5000120489184C22825C120289184B22825C8E
:100F600089184164416C104A526AB1FBF2F1016484
:100F7000583002900721FFF7B7FD029A05A90870C3
:100F800007A8007880008018C0780978884204D1CA
:100F9000FFE71F48006C099002E000200990FFE77E
:100FA00009980AB010BDC046240B002080B586B059
:100FB000019101460198049103A90880144858231F
:100FC0007D22C254583002900988D02291430909E9
:100FD000022211434170039981700499C1700499F0
:100FE000090A017104A94A884271C97881710721EF
:100FF000FFF77AFD0299C871002003F0A3F8029868
:10100000082102F01DFD05A8007806B080BDC0468D
:10101000500B002080B582B0D02001210191FFF754
:10102000B3FE0199D320FFF72DFE0199D420FFF7DD
:1010300035FFD349486003F079F902B080BDC0465E
:1010400080B582B001A900200870FFE701A80078F0
:1010500007281EDCFFE7694600200870FFE76846A6
:10106000007883280FDCFFE768460078C10052480B
:10107000411801A8027800208854FFE70098401C1E
:1010800069460870EBE7FFE70198401C01A908706A
:10109000DCE700F055F802B080BDC04670B586B000
:1010A00000910146009805AA117004A908700878FB
:1010B000C30803A803700B7807210B4002A90B702B
:1010C0000B780121994001AB19701178CB003A4996
:1010D000CC180578635DDB436355019E1378DB0014
:1010E000CC180578635D334363551278D2008918B4
:1010F0000278885CC043885406B070BD86B0009109
:101100000246009805A90A7004AA10701078C30856
:1011100003A8037013780722134002AA13701378F0
:1011200001229A4001AB1A70019B0978CA0022493A
:1011300089180278885C1843885406B07047C04606
:1011400080B584B003A900200870FFE703A80078E9
:1011500007282FDCFFE70398B030C0B200210191CF
:1011600003F054FD0199084603F050FD0199102049
:1011700003F04CFD019802A90870FFE702A800786F
:10118000832811DCFFE702A80078C1000A48401854
:1011900003A90978405C012103F038FDFFE70298BC
:1011A000401C02A90870E9E7FFE70398401C03A967
:1011B0000870CBE704B080BD9004002010B590B05B
:1011C0000FAC20700EA801700DA802700CA803705F
:1011D0000E9906AA117000210191059101780291E2
:1011E000C80803904907401C049009B9039804906B
:1011F00001980299049A4908514308AA11700D995F
:10120000203907AA11700BA90870FFE70BA8007816
:1012100008A9097888424DDAFFE707A800780C2171
:101220004143254840180BA90978405C09A908707A
:101230000AA900200870FFE70AA80078072833DC15
:10124000FFE709A800780006002807D5FFE70FA8E8
:1012500000780EA90978FFF751FF06E00FA8007883
:101260000EA90978FFF71AFFFFE70998400009A9BE
:1012700008700E98411C0EA80170007806A9097824
:10128000401A0CA90978884208D1FFE706980EA9F0
:1012900008700F98401C0FA9087005E0FFE70A9836
:1012A000401C0AA90870C7E7FFE70B98401C0BA970
:1012B0000870ABE710B010BD0800002010B58AB070
:1012C00009AC207008A80170079206A80370FFE718
:1012D000079801780020202905900DDBFFE707988B
:1012E00001780120002203927F29049001DB0398FA
:1012F000049004980590FFE70598C00730B3FFE716
:1013000009A80190007808A90978079A127806AB15
:1013100002931B78FFF752FF019802990A7853084D
:10132000099AD218027000780A788021891A8842B6
:1013300008DDFFE709A9002008700898801C08A9AB
:101340000870FFE70798401C0790C1E70AB010BD7E
:1013500080B586B003A80290002301930381049313
:101360000393B6490A79074904F0DAFE0199029A13
:1013700032200C23FFF7A2FFFFF7E2FE06B080BD8C
:10138000F80A0020D86A000880B501F01FFF02F0BB
:10139000CEFF01F0DDFE80BD7047000080B584B057
:1013A00002900298401E000E18B1FFE70120039042
:1013B00011E00298401E0949086000200190C043D6
:1013C000032100F0D5FA019805490860054A072174
:1013D00011600390FFE7039804B080BD14E000E0C3
:1013E00018E000E010E000E080B501F061FE80BD93
:1013F00080B584B034490868012210430860FFE7D3
:10140000314800688007002801D4FFE7F8E7FFE7CC
:101410002E49086880221043086000200390FFE7EF
:1014200003987F2805D8FFE7FFE70398401C039047
:10143000F6E72649086890221043086000200390D0
:10144000FFE703987F2805D8FFE7FFE70398401CD4
:101450000390F6E7FFE71D49086803229043086000
:10146000194A10681A4B184010600868194A104051
:1014700008600868184A10400860184908680F2278
:10148000904308601649086840F2031290430860D0
:101490000868012201921304984308600868D30782
:1014A000984308600F490868904308600E4900207F
:1014B0000290086003F07AFE01980299C00602F0DB
:1014C0007DFF04B080BDC046001002400410024001
:1014D000FFFFF2FE0C00FF08FFFFC2772C10024056
:1014E00030100240341002400810024080B586B02F
:1014F0008948012104F0EFF9012800D09CE08648DA
:10150000012104F0DFF94D498878401C8870C0B291
:10151000652820DBFFE7494905910020887000F02D
:10152000AFF805984078A8B1FFE745490888401C06
:10153000088080B2434988420BDBFFE74049002026
:1015400008803E494870012008703F4804F0D8FDEB
:10155000FFE7FFE7FFE73948C07800B3FFE73B4903
:101560000878401C0870C0B2642804DBFFE73749E4
:1015700000200870FFE7354800781A2807DCFFE7ED
:101580000920C00640F2001102F0BBFC06E0092071
:10159000C00640F2001102F0ACFCFFE7FFE727486D
:1015A000407860B1FFE72A48049040F6000102F05D
:1015B000A8FC049840F2004102F0A3FCFFE71F489A
:1015C0000078012836D1FFE722480178491C0170D4
:1015D000007802280CDCFFE71D48039040F600016C
:1015E00002F08FFC039840F2004102F08AFC20E0F8
:1015F0001848007804280CDCFFE71548029040F6F4
:10160000000102F076FC029840F2004102F071FC09
:101610000EE01049002008700D48019040F60001CE
:1016200002F06FFC019840F2004102F06AFCFFE713
:10163000FFE700E0FFE7FFE706B080BDF80A002003
:10164000F20A002089130000706A0008F00A0020E6
:1016500000040048F40A002083B002900F4801689B
:1016600002980268891A426801200023009391427F
:10167000019001D200980190019803B07047C046D4
:1016800006490868401C08607047C04603490020AE
:1016900008607047014800687047C0468004002019
:1016A00080B582B001900091FFF7F4FF01990860C6
:1016B00000980199486002B080BD000080B588B0F4
:1016C000144803F047FA1448039003F0D5FF04A828
:1016D000019004F035F90199039847228A8000228D
:1016E000CA800A81092304934A8104F063F80398AD
:1016F0000121029104F0E6F80299039804F0D8F869
:10170000039804F04DF81120032102F041FE08B0C7
:1017100080BDC046040700000010004080B584B0C2
:1017200003A9002008701748174904F02DFA80B16A
:10173000FFE71448029004F091F9014603A80170F4
:101740000078002104F016F902980F4904F0FCF922
:1017500015E00C480D4904F017FA80B1FFE709487D
:10176000019004F07BF9014603A801700078002184
:1017700004F000F90198054904F0E6F9FFE704B028
:1017800080BDC0460038014005000307050005077D
:1017900080B584B0164803F0DDF9164803F0DAF995
:1017A0000920C0060090012101910422029202F05A
:1017B00040FB0098019A029B022102F028FC00984D
:1017C000019A029B002102F069FC0B48039004F08F
:1017D00059F9039842F2805104F0E8F8039808217F
:1017E00004F03CFA039804F077F904B080BDC046D9
:1017F00011050000110700000044004080B584B0CE
:101800002B480190006840F28011FFF7CFFB322097
:10181000029001F057FC0198406840F20711FFF771
:10182000C5FB029801F04EFC002040F28211FFF748
:10183000BDFB029801F046FC0120000740F2831135
:10184000FFF7B4FB029801F03DFC01988068FF218E
:10185000FFF7ACFB029801F035FC0198C068FD2150
:10186000FFF7A4FB029801F02DFC01980069F92113
:10187000FFF79CFB029801F025FC03A8007804B058
:1018800080BDC0460A490B4808600B4848600B48B9
:10189000C8600B4808610020486188610120086227
:1018A0000848486208488862084888607047C0460F
:1018B000240B00200140C539B6646780CCCCCC0C29
:1018C000A9404261EEBC0E001FC7290045697C0497
:1018D00080B586B00590049103920020019002909B
:1018E00002F094F902F084FD012002F0FBF80420DC
:1018F00002F0F8F8102002F0F5F8202002F0F2F8DB
:10190000039802F0FDF801980290FFE7029805990C
:1019100088420DD2FFE7039802998A008018049943
:10192000895802F087F9FFE70298401C0290EDE722
:1019300002F056FD02F0DEF806B080BD81B001462F
:1019400068460170007840B200280DD4FFE7684671
:10195000007841B21F200A46024001209040490908
:101960008900024A8850FFE701B0704700E100E0BB
:1019700070B582B0024601A802700091007840B2B2
:10198000002817D4FFE701A9087840B20322D34307
:101990001840384A8058097849B28C07E50EFF2470
:1019A000AC40A043009CA401E4B2AC4020431940E9
:1019B00088501AE001A908780F2420400838032233
:1019C000D34318402A4A8058097849B28D07EE0E51
:1019D000FF25B540A843009DAD01EDB2B5402843B9
:1019E0002140083919408850FFE702B070BDC04659
:1019F00070B582B0024601A802700091007840B232
:101A0000002817D4FFE701A9087840B20322D34386
:101A10001840184A8058097849B28C07E50EFF240F
:101A2000AC40A043009CA401E4B2AC402043194068
:101A300088501AE001A908780F24204008380322B2
:101A4000D34318400A4A8058097849B28D07EE0EF0
:101A5000FF25B540A843009DAD01EDB2B540284338
:101A60002140083919408850FFE702B070BDC046D8
:101A70001CED00E000E400E080B582B0002001F041
:101A800075F80190642001F01DFB01987249FEF782
:101A90007DFB7249FEF75CFC80B9FFE701986E4957
:101AA000FEF774FBFEF78AFC0122D2079143052260
:101AB00052076B4BFEF75AFCF0B9FFE701996948F2
:101AC000FEF7B5FB6549FEF743FC80B9FFE70198D7
:101AD0006549FEF75BFBFEF771FC0122D2079143DB
:101AE000052252075E4BFEF741FC28B9FFE7684923
:101AF000512202208854ACE001985C49FEF746FB75
:101B00005649FEF725FC80B9FFE701985749FEF7D3
:101B10003DFBFEF753FC0122D207914305225207F9
:101B20004F4BFEF723FCF0B9FFE701995048FEF751
:101B30007EFB4A49FEF70CFC80B9FFE701984D494E
:101B4000FEF724FBFEF73AFC0122D207914305225F
:101B50005207434BFEF70AFC28B9FFE74C495122D4
:101B60000120885474E001984349FEF70FFB3B497C
:101B7000FEF7EEFB80B9FFE701983F49FEF706FB51
:101B8000FEF71CFC0122D207914305225207344B79
:101B9000FEF7ECFBF0B9FFE701993848FEF747FB89
:101BA0002E49FEF7D5FB80B9FFE701983449FEF7CF
:101BB000EDFAFEF703FC0122D207914305225207FA
:101BC000274BFEF7D3FB28B9FFE73149512200200C
:101BD00088543CE001982B49FEF7D8FA1F49FEF7DC
:101BE000B7FB80B9FFE701982649FEF7CFFAFEF769
:101BF000E5FB0122D207914305225207184BFEF75D
:101C0000B5FBF0B9FFE701991F48FEF710FB134938
:101C1000FEF79EFB80B9FFE701981C49FEF7B6FA74
:101C2000FEF7CCFB0122D2079143052252070C4B51
:101C3000FEF79CFB28B9FFE7154951220320885481
:101C400004E01349512204208854FFE7FFE7FFE72F
:101C5000FFE702B080BDC0469A9999C0BD3786356E
:101C6000F7C6B03E6666E6406666E6C09A99F9C079
:101C700033332341333323C1CDCC2CC133335341D0
:101C8000333353C16666E6BF66668640666686C0C5
:101C9000C00B002090490868082210430860FFE745
:101CA0008D4800680007002801D5FFE7F8E78A495A
:101CB0000868042210430860FFE78748006840076F
:101CC000002801D5FFE7F8E77047C04683B0024619
:101CD00002A80270019100780090012804D0FFE76B
:101CE000009802280FD01DE0DE490A680F20000589
:101CF00082430A60019A12050D4BD218024008680F
:101D0000104308600FE009490A6803200005824378
:101D10000A60019A1205064BD21802400868104367
:101D2000086000E0FFE703B07047C0463824014078
:101D30000000F0FF80B58AB009A9087003A900204F
:101D4000088002A90870FFE702A8007809282EDCA5
:101D5000FFE70020009000F095F9009809A90978A4
:101D60000122019200F0DAF8019800F099F9FFE7FA
:101D7000022000F0BDF808B9FFE7F9E7022000F003
:101D8000ADF800F079F9014602A80278530004AAE0
:101D9000D1520078052804D1FFE7012001F092F923
:101DA000FFE7FFE70298401C02A90870CCE704A8EF
:101DB0000A2102231A4600F00BFE014603A8018007
:101DC00000880AB080BD000081B00090009838B152
:101DD000FFE7EE49086840F600021043086006E09D
:101DE000EA49086840F6000290430860FFE701B046
:101DF0007047C046E5480068C00730B9FFE7E349CF
:101E00000868012210430860FFE7704782B001AA0A
:101E10001070684601700078D0B1FFE701A8007823
:101E2000C00738B1FFE7D9490868012212051043FD
:101E30000860FFE701A800788007002807D5FFE7C2
:101E4000D249086848F2000210430860FFE719E031
:101E500001A80078C00738B1FFE7CC490868012223
:101E6000120590430860FFE701A80078800700286A
:101E700007D5FFE7C549086848F2000290430860AB
:101E8000FFE7FFE702B0704783B0024602A8027086
:101E9000019100780090012804D0FFE70098022803
:101EA0000BD015E0B9490868072252049043086036
:101EB000019A0868104308600BE0B449086847F2CB
:101EC000000290430860019A08681043086000E02F
:101ED000FFE703B07047C0460824014081B000907E
:101EE000009A0D4908689043086001B07047C046E9
:101EF00082B0019069460020087007480068019987
:101F0000084204D0FFE7694601200870FFE76846F1
:101F1000007802B07047C0460024014010B585B07B
:101F2000034604A8037003AB1970029200780528D9
:101F300018D8FFE74D490868019004AB1C780520CC
:101F4000024662431F249440019AA243019203AACD
:101F500012781B78584382400198104301900198F1
:101F6000086040E004A800780B281AD8FFE73E4933
:101F70000868019004AB1C780520024662431E3AB3
:101F80001F249440019AA243019203AA12781B785D
:101F900058431E3882400198104301900198086010
:101FA00020E004A800780F281AD8FFE72D49086818
:101FB000019004AB1C780520024662433C3A1F2482
:101FC0009440019AA243019203AA12781B785843C5
:101FD0003C3882400198104301900198086000E06D
:101FE000FFE7FFE7FFE703A80078092817D8FFE716
:101FF00020490868009003AB1C7803200246624326
:1020000007249440009AA2430092029A1B785843F6
:102010008240009810430090009808601FE003A8D9
:102020000078122819D8FFE711490868009003AB1F
:102030001C780320024662431E3A07249440009A0B
:10204000A2430092029A1B7858431E38824000989F
:10205000104300900098086000E0FFE7FFE705B03C
:1020600010BDC0462C2401403024014034240140DE
:102070000C240140102401400148006880B27047E0
:102080004C24014081B000903F49086803221206A9
:1020900090430860009A08681043086001B07047D8
:1020A00081B00146684601700078C00738B1FFE78B
:1020B000364908680122920510430860FFE7684628
:1020C00000788007002807D5FFE73049086801221B
:1020D000520510430860FFE701B0704782B00190DD
:1020E00068460170007830B3FFE701A84078C00768
:1020F00038B1FFE72449086840F200121043086035
:10210000FFE701A840784007002807D5FFE71E49F0
:10211000086840F2004210430860FFE701A8007819
:102120008007002806D5FFE71849086802221043F7
:102130000860FFE725E001A84078C00738B1FFE755
:102140001149086840F2001290430860FFE701A8B7
:1021500040784007002807D5FFE70B49086840F2A0
:10216000004290430860FFE701A80078800700283C
:1021700006D5FFE705490868022290430860FFE79B
:10218000FFE702B07047C046042401400824014024
:10219000F0B5A1B020A900200870C3481E905021BE
:1021A000415CC24803F0ACFF1E985121415CC0481D
:1021B00003F0A6FFBF481F900178BF4803F0A0FFBF
:1021C0001F98007898B1FFE7B7485022002181544A
:1021D0005121405C30B1FFE7B3485121405C0428F5
:1021E00004D1FFE7B34900200870FFE7FFE7B148DB
:1021F000007808B1FFE7C7E3AB485021405C1D9071
:10220000042800D9BFE31D998A0001A080188746E1
:1022100000F008B800F032B800F062B900F024BB5A
:1022200000F09BBBA0485121405C01280CD0FFE787
:102230009D485121405C022806D0FFE79A48512171
:10224000405C03280DD1FFE79749502201208854B4
:102250009A49C87001F0ACFD01F060FA00F0E8FEA8
:10226000FFE797480078012807D1FFE7944900204D
:1022700008708D4958228854FFE785E3914800F0A3
:1022800017FD014620A801700078E0B1FFE78E48F5
:102290000178491C01700078042813DBFFE78A49A4
:1022A00000201C900870894801F038FA1C98834976
:1022B000C8700820012101F0A7FA7B4950220320B1
:1022C0008854FFE7EFE080490020087076485121EC
:1022D000405C02280ED1FFE77D48007850B9FFE747
:1022E0007B490120087001F097FD0A4679494A6050
:1022F0000860D7E06C485121405C022823D1FFE7F9
:102300007348007801281ED1FFE701F085FD0246E1
:102310000846704B59681B68D21A88410021653AFB
:1023200088410FD3FFE760495A2200208854684A49
:102330001070502202208854604901204870604982
:102340000870FFE7ADE058485121405C03280ED1EA
:10235000FFE75F48007850B9FFE75D49012008704A
:1023600001F05AFD0A465B494A60086098E04E4811
:102370005121405C032823D1FFE75548007801280C
:102380001ED1FFE701F048FD02460846514B59684F
:102390001B68D21A88410021653A88410FD3FFE7B4
:1023A000414A5A2101205054494B002119705023B1
:1023B0000221D1544149487041490870FFE76EE05D
:1023C00001F02AFD1A900A461A99374B1B931C7B81
:1023D000587B000204199D7BD87B00024019000441
:1023E00000191D7A5C7A240264199D7ADB7A1B023B
:1023F0005B191B041B19C91A8241100A1206090A2B
:102400008A1800217D3A884111D3FFE732480078CD
:1024100001280BD1FFE701F0CBFC01F07FF9274940
:102420000120C8702C4900200870FFE736E001F059
:10243000F3FC024608461C4B19931C7B597B09028E
:102440000C199D7BD97B09024919090409191D7AC8
:102450005C7A240264199D7ADB7A1B025B191B04E7
:102460001B19D21A884100211C4BD21A884114D35F
:10247000FFE71948007878B9FFE7144801F04EF9F2
:1024800008200121189101F0BFF918980B4A00218A
:10249000D17011490870FFE7FFE7FFE7FFE7FFE7AB
:1024A000FFE7FFE7FFE76FE2C00B0020796A000853
:1024B0008D6A0008B20B00209D6A0008F80A00200F
:1024C000230C0020C5070000240C0020FFFF0000A3
:1024D000250C0020280C00207A0D0020307500000B
:1024E000F84D17952978687800024118AA78E8789D
:1024F00000028018000440182A79697909028A18B4
:10250000AB79E9790902C9180904891840F2E8325F
:10251000119200231293FDF7F1FD1390149101F035
:102520007BFC119A129B2E7B6C7B2402A619AF7B3D
:10253000EC7B2402E4192404A4192F7A6E7A360263
:10254000F619AF7AED7A2D02ED192D04AD19401B65
:10255000A141FDF7D3FD139B044614980A46179931
:102560001B1950415B228B541C0E0A465B3215929C
:10257000D4701C0C94701B0A5370030ED371030C9F
:1025800093711071000A5071CF4800681690402076
:102590000B5C0846403042781202D2188378C0782B
:1025A0000002C0180004801844228B5C44314A7831
:1025B0001202D2188B78C9780902C918090489183F
:1025C000FDF735FE01461698FDF7E0FD1799482204
:1025D0008854020E4831CA70020C8A70000A487092
:1025E000F14800F065FB014620A80170007800B9B1
:1025F00012E1EA490F91002010900870E6480E9011
:1026000040F6000101F075FC0E9840F2004101F027
:1026100070FC0F991098487020A80078012800D00D
:10262000E4E0E8485121405C012874D1FFE7E54827
:102630005721405C012835D1FFE701F0F1FB02464C
:102640000846E04B2C215D5C19462C314C78240265
:1026500064198D78C97809024919090409192824CF
:102660001D5D28335C78240264199D78DB781B0299
:102670005B191B041B19D21A884100213C3A88417E
:102680000FD3FFE7CF49502203208854C44801F0FC
:1026900045F8C2490020C8700820012101F0B4F8B3
:1026A000FFE737E0C7490D91552200208854572293
:1026B0000120885401F0B4FB0A460D992C23CA541A
:1026C0002823C8540B462C33140EDC70140C9C7059
:1026D000120A5A702831020ECA70020C8A70000A5F
:1026E0004870B248007840B9FFE7B049012008704F
:1026F000AF490878401C0870FFE7AD48007806280D
:1027000007DBFFE7AA4900200870A04901200870F4
:10271000FFE7FFE769E0AB485121405C30B1FFE7DC
:10272000A8485121405C042859D1FFE7A54855210C
:10273000405C01283AD1FFE701F06EFB0B900A469E
:102740000B99A04B0C931C7F587F000204199D7FAE
:10275000D87F00024019000400191D7E5C7E24020F
:1027600064199D7EDB7E1B025B191B041B19C91AB1
:102770008241D0085207C9088A1800217D3A884151
:1027800013D3FFE78F49552200200A908854502226
:1027900003208854824800F0C1FF0A987F49C8701E
:1027A0000820012101F030F8FFE717E08549099181
:1027B00055220120885401F02FFB0A460999130E77
:1027C000CB77130C8B770A77120A4A77020ECA76F8
:1027D000020C8A760876000A4876FFE704E0794919
:1027E000552200208854FFE7FFE714E0754957227F
:1027F0000020089088545522885450220320885481
:10280000674800F08BFF08986449C87008200121D0
:1028100000F0FAFFFFE726E06A485721405C0128F4
:1028200020D1FFE767495722002088545B48007891
:1028300060B9FFE75848079040F6000101F061FBDE
:10284000079840F2004101F05CFBFFE7534901208B
:1028500048705648007820B1FFE7544900200870BE
:10286000FFE7FFE7FFE78FE04B48049040F60001E9
:1028700001F03FFB049840F2004101F03AFB474968
:1028800005910020069008704870454800F046FF0A
:1028900005990698C8700820012100F0B5FF069838
:1028A0004849572288543B480078012805D1FFE762
:1028B0004449582201208854FFE742485121405C96
:1028C00048B903E0C00B0020B80D00203D4950225C
:1028D00004208854FFE73B4903915B200A5C5B318D
:1028E00001914878000282188B78C8780002C018DD
:1028F000000480180B794A791202D2188B79C979B1
:102900000902C9180904891840F2E8320023029329
:10291000FDF724FC024602980B4603991C0ECC716D
:102920001C0C8C710B711B0A4B71130ECB70130CAA
:102930008B700A70120A4A7048228B5C48314A78C0
:102940001202D2188B78C9780902C91809048918AB
:10295000144A11600E49087016E00D4900200870F5
:102960001849502288540B480078012807D1FFE706
:10297000084900200870134958228854FFE703498A
:102980000020087000E0FFE721B0F0BDB20B00208E
:10299000240C0020230C002000040048F80A00202A
:1029A000FFFF0000B80D0020FE1E0000B10B00204C
:1029B000B00B002080B5FFF75FF8FFF7E9FB80BDA3
:1029C00000487047C00B002000487047AC0D002045
:1029D00010B589B0079006A8018005A90A8004A94E
:1029E0000B80008820B9FFE708A900200880B9E023
:1029F00006A80088012805D1FFE70798008808A9E4
:102A00000880AFE006A8008802280FD1FFE70798EA
:102A1000811C07910088039007980188039840184B
:102A200003900398400808A908809BE0FFE7FFE7B0
:102A300005A8008806A909884908884206DDFFE73D
:102A400006A80088400805A90880FFE704A80088B8
:102A500006A909884908884206DDFFE706A800881C
:102A6000400804A90880FFE705A8008804A9098890
:102A7000401806A90988884205DBFFE70598401E33
:102A800005A90880FFE702A900200880FFE702A847
:102A9000008806A90988884238DAFFE7029801A968
:102AA0000880FFE701A8008806A90988884227DA7C
:102AB000FFE7079902A800884000085A01AA128877
:102AC0005200895A884215DDFFE7079802AB198842
:102AD0004900405A69460880079901AA10884000B9
:102AE000085A1B885B00C852009807991288520048
:102AF0008852FFE7FFE70198401C01A90880D1E751
:102B0000FFE70298401C02A90880C0E7002003905C
:102B1000049802A90880FFE702A8008806A909888E
:102B200005AA1288891A88420EDAFFE7079802A9D7
:102B300009884900415A039840180390FFE702981A
:102B4000401C02A90880E7E7039806A9098804AA9F
:102B50001288891A05AA1288891AB0FBF1F008A90F
:102B60000880FFE708A8008809B010BD83B00146BF
:102B700002A8017000210191007800900C2850D823
:102B800000998A0001A080188746C04600F018B856
:102B900000F042B800F020B800F022B800F024B8ED
:102BA00000F026B800F028B800F02AB800F02CB8E1
:102BB00000F02EB800F008B800F00AB800F030B805
:102BC0001A48006801902DE01848806A019029E0B9
:102BD0001648C06A019025E014488068019021E001
:102BE0001248C06801901DE010480069019019E08A
:102BF0000E484069019015E00C488069019011E091
:102C00000A48C06901900DE00848006A019009E097
:102C10000648406A019005E004484068019001E0E0
:102C200000E0FFE7019803B07047C046480C002061
:102C300080B501F0EDFA80BD80B582B0FFF7C4FE2B
:102C400001900199044882688A6042684A6000687D
:102C5000086002B080BDC046646A000880B582B0DA
:102C6000019000200090FFE70098A5280FD8FFE70B
:102C7000019800998A000A498958FDF75BFB08B959
:102C8000FFE704E0FFE70098401C0090ECE70098A5
:102C9000FDF78DFB0349FDF779FA02B080BDC04610
:102CA000E06A0008000020C2004870479C0D002028
:102CB000B0B584B0029002A80078C007D0B3FFE797
:102CC000F0485121405C01282FD0FFE7ED48512109
:102CD000405C022829D0FFE7EA485121405C0328E4
:102CE00023D0FFE7D0480078012813D1FFE701F097
:102CF00093F802460846CD4B59681B68D21A8841A2
:102D000000211A3A884104D3FFE703A90220087082
:102D100086E109E0C4490120087001F07DF80A4607
:102D2000C2494A600860FFE703E0BF49002008701D
:102D3000FFE7FFE702A800788007002800D4BAE088
:102D4000D0485A21405C01285AD1FFE7CD48512193
:102D5000405C03284ED0FFE7CA485921405C012857
:102D60002AD1FFE701F058F802460846C54B342146
:102D70005D5C194634314C78240264198D78C97829
:102D8000090249190904091930241D5D30335C78A2
:102D9000240264199D78DB781B025B191B041B1944
:102DA000D21A884100211A3A884104D3FFE703A9C7
:102DB0000120087034E11CE0B24901915922012040
:102DC000885401F029F80A4601993423CA54302363
:102DD000C8540B463433140EDC70140C9C70120A69
:102DE0005A703031020ECA70020C8A70000A4870A4
:102DF000FFE704E0A349592200208854FFE759E087
:102E0000A0485121405C02284ED0FFE79D48562142
:102E1000405C01282AD1FFE700F0FEFF0246084689
:102E2000984B24215D5C194624314C7824026419A6
:102E30008D78C978090249190904091920241D5DF2
:102E400020335C78240264199D78DB781B025B19BF
:102E50001B041B19D21A884100211A3A884104D355
:102E6000FFE703A901200870DAE01CE08549009122
:102E700056220120885400F0CFFF0A4600992423EF
:102E8000CA542023C8540B462433140EDC70140C8F
:102E90009C70120A5A702031020ECA70020C8A709D
:102EA000000A4870FFE704E0764956220020885463
:102EB000FFE7FFE7FFE702A80078000700280BD52F
:102EC000FFE770485221405CC00720B1FFE703A92B
:102ED00004200870A4E0FFE702A80078C0060028DC
:102EE0000CD5FFE767485221405C8007C00F20B136
:102EF000FFE703A90520087092E0FFE702A8007829
:102F0000800600280CD5FFE75E485221405C400750
:102F1000C00F20B1FFE703A90620087080E0FFE79B
:102F200002A80078400600280CD5FFE7554852213A
:102F3000405CC006C00F20B1FFE703A9072008705E
:102F40006EE0FFE702A80078000600280CD5FFE736
:102F50004C485221405C0007C00F20B1FFE703A995
:102F6000082008705CE0FFE702A84078C00760B165
:102F7000FFE744485221405C8006C00F20B1FFE7C4
:102F800003A9092008704BE0FFE702A800780A2196
:102F900008420CD0FFE73B485221405C4006C00F7E
:102FA00020B1FFE703A90A20087039E0FFE702A873
:102FB0004078400700280CD5FFE732485221405C9A
:102FC000C009012804D1FFE703A90B20087027E0FE
:102FD000FFE702A84078000700280BD5FFE7294843
:102FE0005321405CC00720B1FFE703A90C20087003
:102FF00016E0FFE702A84078C00600280CD5FFE7DE
:1030000020485321405C8007C00F20B1FFE703A98F
:103010000D20087004E0FFE703A900200870FFE717
:1030200003A8007804B0B0BD380C0020300C00209C
:10303000B0B51249002008701149087000F0ECFE8C
:103040000A46130E0F49CB73130C8B730A73120AC3
:103050004A73020ECA72020C8A720872000A48721F
:1030600040200C5C0B46403358789A78DB78442536
:103070004C554431CB708A704870B0BD7A0D002039
:10308000250C0020C00B002082B000900099088918
:103090004989884204D1FFE701A90120087003E0B3
:1030A00001A900200870FFE701A8007802B070476E
:1030B000114948680A680023521C58410A60486058
:1030C0007047C04681B000900B4948680A68009B71
:1030D0000021D218484109490A604860FFE70748C3
:1030E00041680368044A50681268D21A884101D2C4
:1030F000FFE7F4E701B07047B80B0020180B002081
:1031000080B584B0029001A9002008700298FFF7F2
:10311000BBFF012804D1FFE703A90020087012E0DB
:10312000029948680989405C01A9087002990889D8
:10313000401C8A89B0FBF2F35A43801A0881019837
:1031400003A90870FFE703A8007804B080BD000061
:1031500080B582B000F0DCF917490191086000F0F9
:10316000F3F90199486000F099FB0199486100F07A
:10317000B9FB0199486100F007FA0199886200F0F3
:10318000E7FB01460D48FDF797F80D49FCF7FEFFF8
:10319000FFF764FD0199C86200F0C8FB01460948C9
:1031A000FDF78AF80849FCF7F1FFFFF757FD019991
:1031B000C86102B080BDC046480C00200040CE452A
:1031C0000000FAC400E8004700401CC67047000039
:1031D00081B0014668460170007814214143C24A1B
:1031E000885801239843885001B0704781B0014648
:1031F00068460170007814214143BB4A8858012376
:103200001843885001B0704781B00146684601708C
:10321000007814214143B44A8858202398438850A9
:1032200001B07047B0B581B00146684601700178C1
:10323000142213464B43AC4C19590125A94319518B
:10324000017813464B430021195104781346634318
:10325000AE4C1951047813466343604C19510378FE
:103260005A435F4BD150007880000F22824065495D
:1032700008681043086001B0B0BDC04682B0024685
:1032800001A802700091009A0078800082405D4998
:1032900008681043086002B07047C04683B002AAB5
:1032A000107001918748006801991278920091404E
:1032B000084204D0FFE769460120087003E0694630
:1032C00000200870FFE76846007803B07047C046EA
:1032D000B0B584B0024603A8009002700291007855
:1032E000FFF776FF009B029800681C7814210A46BD
:1032F00062433A4C1051029880681C780A46624337
:10330000374C10510298008A1C780A4662437F4C61
:1033100010511A7808465043734A8058019001981A
:1033200043F60074A043019002984468C5682C439A
:103330004069044301982043019001981B78594348
:1033400088500298007E01280AD1FFE703A8007880
:1033500014214143644A885840231843885009E0A7
:1033600003A80078142141435F4A885840239843BA
:103370008850FFE70298407E01280AD1FFE703A8A2
:10338000007814214143584A8858802318438850B4
:1033900009E003A8007814214143534A8858802348
:1033A00098438850FFE70298807E50B9FFE703A852
:1033B0000078142141434C4A885810239843885080
:1033C00009E003A8007814214143474A8858102394
:1033D00018438850FFE704B0B0BDC046100002405B
:1033E0001400024082B0024601A802700091009AC7
:1033F000007880008240034908681043086002B0EA
:103400007047C0460400024086B004AA10700391C1
:1034100000200290019003980090022808D0FFE756
:103420000098042816D0FFE70098082824D035E03B
:1034300024480168039A04A803789B009A4011402D
:10344000019101781420484327494058022108403F
:10345000029024E01B480168039A04A803789B00AB
:103460009A40114001910178142048431E49405868
:1034700004210840029012E012480168039A04A84F
:1034800003789B009A401140019101781420484331
:103490001549405808210840029000E0FFE70198D4
:1034A00038B1FFE7029820B1FFE705A901200870B5
:1034B00003E005A900200870FFE705A8007806B022
:1034C0007047C0460000024081B001466846017066
:1034D000007814214143044A885844F20003984379
:1034E000885001B07047C0460800024083B0009188
:1034F0000246009802A90A70019001A800880A7883
:1035000014215143014A885003B070470C00024017
:1035100080B582B00020FEF70DFC014601A80180B5
:103520000088FCF739FFEB49FCF789FE0090009812
:10353000E949FCF784FEE949FCF7BEFEE849FCF7DF
:1035400025FE02B080BDC04680B582B00120FEF7E6
:10355000F1FB014601A801800088FCF71DFFEF493F
:10356000FCF76DFE009000980549FCF7A5FE0549A3
:10357000FCF765FEEC49FCF709FE02B080BDC046D1
:10358000000070410000744280B582B00920FEF74F
:10359000D1FB014601A801800088FCF7FDFEF5493A
:1035A000FCF74DFE0090009802B080BD80B58EB053
:1035B000574801F0CFFA574801F0CCFA564801F0CD
:1035C000C9FA0920C00605900121099100220A923A
:1035D00040F20013009300F01AFD009B05980A9931
:1035E00003220B9200F05AFD0099059800F089FC27
:1035F00009990A9AA8480C9040F20043019300F000
:1036000006FD019B0A990B9A0C9800F047FD019961
:103610000C9800F06EFC09990A9A0C9840F6000389
:10362000029300F0F4FC029B0A990B9A0C9800F0AC
:1036300035FD02990C9800F05CFC09990A9A9548AE
:1036400004904023039300F0E2FC039B04980A9942
:103650000B9A00F023FD0399049800F04AFC0498AB
:1036600009990A9A80230D9300F0D1FC04980A99D5
:103670000B9A0D9B00F012FD04980D9900F039FC97
:10368000059809990A9A41F20003069300F0BFFCDD
:103690000598069B0A990B9A00F000FD059806997B
:1036A00000F02FFC099A0A990C9840F20023079326
:1036B00000F0ADFC079B0A990B9A0C9800F0EEFC09
:1036C00007990C9800F01DFC099A0C981023089398
:1036D000114600F09CFC089B0A990B9A0C9800F08C
:1036E000DDFC08990C9800F004FC099A0C980D9BDD
:1036F000114600F08CFC0A990B9A0C980D9B00F077
:10370000CDFC0C980D9900F0F4FB0EB080BDC046C6
:1037100012050000110500001605000080B584B0F8
:10372000014603A8018002AA0A211180008818B965
:10373000FFE70020019050E003A80088052806D18B
:10374000FFE702A8018805204843019044E003A850
:1037500000882A49884206DBFFE702A80188642026
:103760004843019037E003A80088042801DCFFE704
:1037700042E003A80088332810DCFFE703A8018893
:1037800040F2E83048430621B0FBF1F102A800887E
:103790004843642190FBF1F001901AE003A80088EF
:1037A0003F280FDCFFE703A801882820484341F6A3
:1037B0000011411802A800884843642190FBF1F0F1
:1037C000019005E002A801885A2048430190FFE7D4
:1037D000FFE7FFE7FFE7FFE7FFE7019808498842B7
:1037E00004D3FFE740F2E8300190FFE7019A054873
:1037F000002101F0C7FEFFE704B080BDFFFF00001D
:10380000E9030000002C014080B584B0024603A803
:10381000027002AA11700078001F0190042836D8A7
:1038200001998A0001A080188746C04600F008B8B8
:1038300000F00DB800F014B800F019B800F01EB890
:1038400002A802781448402100F063FB20E002A89F
:1038500002780920C00641F2000100F05AFB17E08F
:1038600002A802780B48402100F053FB10E002A8A8
:1038700002780848802100F04CFB09E002A8027899
:103880000920C00640F2001100F043FB00E0FFE712
:1038900004B080BD001400480004004880B582B028
:1038A0000420FEF747FA014601A801800088FCF7D2
:1038B00073FD3049FCF7C3FC009000981849FCF7F1
:1038C000BEFC1849FCF7F8FC1749FCF75FFC02B096
:1038D00080BDC0463333533A0000214300001C42F0
:1038E000CDCC4C3E80B582B00520FEF723FA0146D0
:1038F00001A801800088FCF74FFD1E49FCF79FFCE2
:10390000009000980649FCF79AFC0649FCF7D4FCA5
:103910000549FCF73BFC02B080BDC0463333533A47
:103920000000214300001C42CDCC4C3E80B582B04B
:103930000620FEF7FFF9014601A801800088FCF788
:103940002BFD0C49FCF77BFC0090009802B080BD79
:1039500080B582B00720FEF7EDF9014601A801808D
:103960000088FCF719FD0349FCF769FC00900098FA
:1039700002B080BD3333533A80B588B007902E48EB
:1039800001F0E8F80920C00602900121039140F2FD
:103990000022009200F04DFA0298039940F2004292
:1039A000049200F046FA009B0298039A02210191CA
:1039B00000F02DFB009B0298039A0021059100F076
:1039C0006DFB01990298039A049B00F020FB02987A
:1039D000039A049B059900F061FB184801F0BAF8BE
:1039E0002A48069002F04EF8069841F2000102F0D3
:1039F00044F90599069802F01CF9069840F2006116
:103A000002F0F3F80698079901F0D0FF0698042118
:103A100002F000F90698082102F020F9069802F059
:103A20005BF805991B2000F0B3FC0698052102F015
:103A30007AF808B080BDC046110500000E060000EF
:103A400080B584B0039002A8018001A900200880FD
:103A5000FFE702AA1088411E1180A0B1FFE703987A
:103A600001A90988415C094802F000F8FFE707480E
:103A7000904902F03AF808B9FFE7F8E70198401CCE
:103A800001A90880E5E704B080BDC04600380140C8
:103A900083B001906846017001994889401C8A8969
:103AA000B0FBF2F35A43801A0989884204D1FFE738
:103AB00002A90020087011E00098019A516852890B
:103AC000885401994889401C8A89B0FBF2F35A4313
:103AD000801A488102A901200870FFE702A8007837
:103AE00003B0704781B0009000984749086001B06A
:103AF0007047C046634908688022104308607047D9
:103B000080B584B003900F20000400F027F8014630
:103B100002A801700078D0B9FFE75A4901910868FE
:103B2000022200921043086003980B4A1060086854
:103B30004022104308600F20000400F00FF8009AA4
:103B4000019902AB1870086890430860FFE702A86B
:103B5000007804B080BDC0461420024080B584B017
:103B6000039002A901200870FFE700F025F802A9E0
:103B700008700398401E0390FFE702A80178002018
:103B80000129019005D1FFE70398411E884101906A
:103B9000FFE70198C0070028E7D1FFE702A80078F7
:103BA000012804D1FFE702A905200870FFE702A859
:103BB000007804B080BD000081B069460020087024
:103BC00011480068C00720B1FFE76946012008706E
:103BD00015E00D480068C006002804D5FFE76946D7
:103BE000042008700AE0084800684007002804D54F
:103BF000FFE7694602200870FFE7FFE7FFE7684636
:103C0000007801B07047C0460C2002401D48006893
:103C10000006002806D5FFE7034904480860044869
:103C20000860FFE77047C046042002402301674553
:103C3000AB89EFCD80B586B0059004910F200004CC
:103C4000FFF78CFF014603A801700078B0B9FFE7C9
:103C50000C490291086801220192104308600498FF
:103C6000059908600F200004FFF778FF019A029978
:103C700003AB1870086890430860FFE703A800785A
:103C800006B080BD1020024080B582B00190009146
:103C900001A80178064801F0E9FEFFE7044805495C
:103CA00001F023FF08B9FFE7F8E7019802B080BDF3
:103CB000004400400707000087B005AA108004A850
:103CC00001702E4803900020029037492C4808606C
:103CD000FFE72C480068012108400290FFE70398A5
:103CE000411E03910020019029B1FFE70298411E77
:103CF00088410190FFE70198C0070028E9D1FFE75C
:103D0000029820B1FFE706A90020087031E004A85E
:103D100000781D49086019480390FFE719480068BA
:103D2000022108400290FFE70398411E0391002002
:103D3000009029B1FFE70298411E88410090FFE7FB
:103D40000098C0070028E9D1FFE7029820B1FFE7FB
:103D500006A9002008700CE005A800880B4908405F
:103D60000B49086010490D48086006A90120087039
:103D7000FFE706A8007807B07047C046FFFF0F00B6
:103D8000555500000C30004004300040FF0F00008B
:103D9000083000400449014808607047AAAA0000A2
:103DA000014902480860704700300040CCCC000058
:103DB00082B001A90A2008701648007800900428F3
:103DC0001FD800998A0001A08018874600F008B823
:103DD00000F00AB800F00CB800F00EB800F010B80F
:103DE00001A90A20087010E001A90C2008700CE05D
:103DF00001A90E20087008E001A91020087004E055
:103E000003E001A90A200870FFE701A8007802B0CA
:103E10007047C046790C002080B501F0A5FD80BD3B
:103E200080B501F0A1FD40F2E8320023FCF766F90D
:103E300080BD86B00590049103920598006A0190B8
:103E40000598406A009002A900200880FFE702A8B8
:103E5000008807281DD8FFE702A801880398C840FA
:103E6000C00780B1FFE702A8018889000F228A40BD
:103E70000199914301910499008880008140019843
:103E800008430190FFE7FFE70298401C02A9088061
:103E9000DDE702A908200880FFE702A800880F28B4
:103EA0001FD8FFE702A801880398C840C00790B157
:103EB000FFE702A80188890020390F228A40009973
:103EC0009143009104990088800020388140009837
:103ED00008430090FFE7FFE70298401C02A9088012
:103EE000DBE701980599086200980599486206B0D9
:103EF000704782B00190009100980199886202B0E9
:103F0000704782B00190009100980199886102B0D9
:103F1000704783B00290019168460270007820B12A
:103F2000FFE701980299886103E00198029988628D
:103F3000FFE703B07047000080B588B0274800F065
:103F400009FE274806900021049128220092FFF7DD
:103F500070FF009B049A0698022100F058F8009B1D
:103F6000049906980322059200F098F8049A06989E
:103F70000121039144F20003019300F048F8019BF2
:103F80000499059A069800F089F801990698FFF7B8
:103F9000B0FF0399049A069841F20003029300F0DF
:103FA00036F8029B0499059A069800F077F8029972
:103FB0000698FFF79EFF0399049A069840230793FB
:103FC00000F025F80499059A0698079B00F066F81A
:103FD00006980799FFF78DFF08B080BD1205000015
:103FE0000004004883B00190009101980069009995
:103FF000084204D0FFE702A90120087003E002A9EB
:1040000000200870FFE702A8007803B0704787B06F
:104010000690059104920393069800680190069813
:10402000C068009002A900200880FFE702A800886D
:104030000F282BD8FFE702A801880398C840C007C3
:10404000F0B1FFE702A801884900032213468B4024
:10405000019999430191059B018849008B40019981
:1040600019430191018849008A40009991430091C8
:104070000499008840008140009808430090FFE7C1
:10408000FFE70298401C02A90880CFE70198069933
:10409000086000980699C86007B0704710B586B0F0
:1040A000059004A80170039202930078012806D1BC
:1040B000FFE7029A059948681043486005E0029AB4
:1040C0000599486890434860FFE70598806800902C
:1040D00001A900200880FFE701A800880F281DD84B
:1040E000FFE701A801880298C840C00780B1FFE738
:1040F00001A80188490003228A4000999143009158
:104100000399008840008140009808430090FFE731
:10411000FFE70198401C01A90880DDE70098059998
:10412000886006B010BD000080B582B0014601A8CD
:104130000170007801012E484018FEF7A5FF02B07B
:1041400080BDC04681B06A461070107803012849CE
:104150000020C85413781B01CB1818811278120163
:104160008918488101B0704780B582B0014601A826
:104170000170007801011E484018FEF7C1FF02B02F
:1041800080BDC04682B0014601A8017001780B01D4
:10419000174A0021D15403781B01D31819810378E1
:1041A0001B01D21851810078009020B1FFE70098E0
:1041B00001280DD019E001A9087802010C488318E4
:1041C00080229A810978090141180B4848600DE066
:1041D00001A9087802010648831880229A8109788B
:1041E000090141180348486000E0FFE702B070474A
:1041F0007C0D0020FA0C00207A0C002080B582B0E3
:1042000000200190FCF736FCFFE7FCF721FCFCE7FF
:1042100080B582B0FEF7D4FB01903D48007848B9E4
:10422000FFE73B49012008703A48006800683A49B6
:104230000860FFE739480078002846D1FFE7019879
:104240005121405C002840D1FFE73449012008702B
:1042500034480078012814DBFFE7FFF7DDFD024654
:1042600008462F4B59681B68D21A884100212E4BF3
:10427000D21A884104D3FFE72A4900200870FFE7DB
:10428000FFE72848007804281EDBFFE7019851214A
:10429000405CC8B9FFE72349002008701E48006849
:1042A00020B9FFE71C492220086003E01A490020DA
:1042B0000860FFE71748026817490120FDF708FB6F
:1042C0006420FEF7FFFEFFE720E014480078012895
:1042D0001BD1FFE701985121405C012806D0FFE780
:1042E00001985121405C02280ED1FFE7FFF794FDB1
:1042F0000A460B494A6008600849002008700949CD
:104300000878401C0870FFE7FFE7FFE702B080BDB8
:10431000780C00207C040020200B00207B0D002066
:10432000400C0020390C0020411F0000704780B570
:1043300082B0FEF745FB0190FEF7B6FC00900098B6
:104340004068019A114638313823D054020ECA70A1
:10435000020C8A70000A487000988068019A114621
:104360003C313C23D054020ECA70020C8A70000A01
:1043700048700098C068019A114640314023D054DB
:10438000020ECA70020C8A70000A487002B080BD2A
:1043900080B584B00A46014603A80190017002A9C5
:1043A0000A70007840B20978FDF722FB0198007886
:1043B00040B2FDF7C3FA04B080BD000082B00190A6
:1043C000009101980099044A11400843034908608C
:1043D000BFF34F8F02B0704780FFFF1F08ED00E072
:1043E0000E49086840F20022904308607047C046BA
:1043F0000A4800688005002806D4FFE708490948F4
:10440000086009480860FFE7FFE704480068800586
:10441000002801D4FFE7F8E77047C04610200240AB
:104420000820024023016745AB89EFCD82B00146E9
:1044300001A801705D4A11684CF2000399431160B4
:104440005B4A11685B4B19401160007800900928A5
:1044500000D9A7E000998A0001A080188746C046CD
:1044600000F012B800F01CB800F026B800F02EB82A
:1044700000F03BB800F046B800F056B800F061B864
:1044800000F071B800F07CB84949086801221204B4
:1044900090430860086840F200129043086082E090
:1044A000434908680122120410430860086840F27A
:1044B00000129043086076E0F64908680860F94900
:1044C000086840F20012104308606CE0F149086887
:1044D0000860F44908680122D207104308600868A0
:1044E00040F20012104308605DE0EA49086844F2B7
:1044F000000210430860EB49086840F200121043C4
:10450000086050E0E349086844F200021043086084
:10451000E44908680122D20710430860086840F2A5
:104520000012104308603EE0DA49086848F20002D1
:1045300010430860DB49086840F20012104308602D
:1045400031E0D449086848F2000210430860D549B8
:1045500008680122D20710430860086840F2001280
:10456000104308601FE0CB4908684CF2000210437A
:104570000860CC49086840F200121043086012E05D
:10458000C44908684CF2000210430860C549086835
:104590000122D20710430860086840F2001210435D
:1045A000086000E0FFE702B07047C0460410024018
:1045B00030100240FFFEFE7F9DB01CA90870002055
:1045C00002901B901A9019901890179016901590C1
:1045D000149013901290119010900F900E900D90D7
:1045E0000C90AA490B91AA490A9109900890079149
:1045F000069005910490A74800680C2108408008A7
:104600001B901B98039040B1FFE70398012807D047
:10461000FFE70398022806D044E0A148179044E041
:104620009F48179041E09B4801680F229204114077
:10463000890C119100680121C9060840C00E109034
:104640001098012804D1FFE71198113011900BE068
:1046500011980F2803D1FFE71020119003E0119863
:10466000801C1190FFE7FFE78A48006801210904D8
:104670000840000C0F900F9870B1FFE78748006862
:104680000F210840401C0E900E998548B0FBF1F1B7
:1046900011984843179004E011997F4848431790B8
:1046A000FFE702E07E481790FFE77A480168C9B249
:1046B00009090D910D9A08A9895C0C9117990C9A1A
:1046C000D1401691016840F200721140090A0D9123
:1046D0000D9A06A9895C0C9116990C9AD1401591F6
:1046E000006843F600010840C00A0D900D9904A827
:1046F000405C0C9016980C99C84014901CA8007847
:104700000190052800D9BCE001998A0001A0801819
:104710008746C04600F00AB800F00BB800F00CB8AD
:1047200000F00DB800F00EB800F07DB817981890A2
:10473000A8E016981890A5E015981890A2E0149893
:1047400018909FE05748006840F2001108408842E6
:104750000FD0FFE753480068012109040840884250
:1047600003D0FFE75148139002E04F481390FFE752
:1047700056E04848006880B2800B1A9049480068AB
:10478000C00F19901A980090032847D800998A0002
:1047900001A080188746C04600F006B800F012B8A5
:1047A00000F01EB800F02CB8199820B9FFE7149853
:1047B0004008139005E016980321B0FBF1F0139028
:1047C000FFE72CE0199820B9FFE7149880081390B0
:1047D00005E016980521B0FBF1F01390FFE71EE00D
:1047E000199830B9FFE714980621B0FBF1F0139047
:1047F00005E016980721B0FBF1F01390FFE70EE0FB
:10480000199820B9FFE71498C008139005E016988E
:104810000921B0FBF1F01390FFE700E0FFE7FFE7AD
:10482000139818902EE01F480068800718B9FFE71A
:104830001498129022E01B480068032108400128C8
:1048400003D1FFE71798129017E01648006803217C
:104850000840022804D1FFE748F2000012900BE064
:104860001048006803210840032803D1FFE70C48E3
:10487000129000E0FFE7FFE7FFE7FFE712981890CC
:1048800000E0FFE718981DB07047C046060708090A
:10489000010203040410024000093D002C100240F4
:1048A00000127A0030100240003FAB01809FD5001B
:1048B00080B5034800F04EF9024800F04BF980BD86
:1048C000120500000C06000082B0694608800888C6
:1048D0008009BB4A805809881F221140C840C00780
:1048E00020B1FFE701A90120087003E001A9002021
:1048F0000870FFE701A8007802B0704781B0014658
:104900006846018000881F220146114001238B4028
:104910008109AB4A88581843885001B07047C04697
:1049200080B58CB001460BA8018000210A9109AA2C
:10493000117008AA117000880790002864D0FFE762
:104940000798102816D0FFE70798182800D1CBE069
:10495000079840F60001884231D0FFE7079840F6FB
:104960000011884200D19AE0079840F60051884231
:1049700070D0DEE0FFE708A801780020069039B982
:10498000FFE70A987249401A411E88410690FFE7E6
:104990000698C00748B1FFE71120FFF795FF08A967
:1049A00008700A98401C0A90E5E71120FFF78CFF79
:1049B00020B1FFE709A901200870FFE7BAE0FFE78F
:1049C00008A801780020059039B9FFE70A985E49E8
:1049D000401A411E88410590FFE70598C00748B17D
:1049E000FFE75A48FFF770FF08A908700A98401CB3
:1049F0000A90E5E75548FFF767FF20B1FFE709A9EF
:104A000001200870FFE795E0FFE708A80178002083
:104A1000049041B9FFE70A9840F20051401A411E44
:104A200088410490FFE70498C00748B1FFE70120E0
:104A3000FFF74AFF08A908700A98401C0A90E4E7AB
:104A40000120FFF741FF20B1FFE709A9012008700D
:104A5000FFE76FE0FFE708A801780020039039B96D
:104A6000FFE70A983549401A411E88410390FFE745
:104A70000398C00748B1FFE73248FFF725FF08A9B0
:104A800008700A98401C0A90E5E72E48FFF71CFFC3
:104A900020B1FFE709A901200870FFE74AE0FFE71E
:104AA00008A801780020029039B9FFE70A98234945
:104AB000401A411E88410290FFE70298C00748B1A2
:104AC000FFE71F48FFF700FF08A908700A98401C7D
:104AD0000A90E5E71A48FFF7F7FE20B1FFE709A9BA
:104AE00001200870FFE725E0FFE708A80178002013
:104AF000019039B9FFE70A981049401A411E8841D0
:104B00000190FFE70198C00748B1FFE71920FFF7C0
:104B1000DBFE08A908700A98401C0A90E5E71920F6
:104B2000FFF7D2FE20B1FFE709A901200870FFE7D7
:104B300000E0FFE709A800780CB080BDFFFF0F0080
:104B400001090000010D0000FFFFFF030108000044
:104B5000FFFF000081B001466846018000881F22E7
:104B60000146114001238B408109154A885818439A
:104B7000885001B07047C04681B001466846018048
:104B800000881F220146114001238B4081090C4AF5
:104B900088589843885001B07047C04681B001469C
:104BA0006846018000881F220146114001238B4086
:104BB0008109034A88581843885001B07047C0469D
:104BC0000010024080B58AB0C848029000F090F80A
:104BD00003A8019000F064FA01990298002204925F
:104BE00040F20413039340F20073059303230893E8
:104BF00040F20023069320230993079200F0DCF88B
:104C0000029800F045F80AB080BDC04680B586B075
:104C100005AA107004A80170FFE7B448022100F053
:104C20008BF808B9FFE7F8E704A8007800BBFFE7B6
:104C300001200390FEF746FA1448019044F2000167
:104C400002910022FFF765F90398FEF73BFA05A8E9
:104C50000178A64800F026F80398FEF733FA019889
:104C60000299039AFFF755F90398FEF72BFA0BE028
:104C7000064844F200010122FFF74BF905A801782C
:104C80009A4800F00FF8FFE706B080BD0004004826
:104C900081B000900099086840221043086001B07C
:104CA0007047000084B0039002A8018003988F49E8
:104CB000884205D1FFE702A800880399C86015E083
:104CC0000398406841F2000108400090009838B114
:104CD000FFE703980C30019002980199087004E0F6
:104CE00002A800880399C860FFE7FFE704B0704797
:104CF00080B584B00390039802902E4988420ED06C
:104D0000FFE702987949884211D1FFE740F20C3061
:104D10000190FFF743FF0198FFF72EFF08E00548D9
:104D20000090FFF73BFF0098FFF726FF00E0FFE74A
:104D300004B080BD0E04000083B001900091019882
:104D400080680099084204D0FFE702A9012008709A
:104D50002BE001981749884223D1FFE7009870B9EA
:104D6000FFE701988068C004800F20B1FFE702A927
:104D70000020087019E002A90120087015E00098D1
:104D800070B9FFE7019880684005800F20B1FFE708
:104D900002A90020087008E002A90120087004E0C0
:104DA000FFE702A900200870FFE702A8007803B01F
:104DB0007047C0460038004086B004900391002040
:104DC000029001900090049800680290029843F2CB
:104DD000400108400290049800680190019843F651
:104DE00040010840019004984068009000983E49B6
:104DF0000840009004983D4988423DD1FFE7039860
:104E00000168029808430290039841680298084399
:104E100002900398C16802980843029003980169C0
:104E2000029808430290039841690298084302904F
:104E3000039881690298084302900398806840F2C1
:104E4000007188420BD0FFE70398806840F600713C
:104E5000884204D0FFE705A90020087040E00398CD
:104E6000816840F600000140029808430290FFE785
:104E700002980499086029E00398016801980843A2
:104E80000190039841680198084301900398C16814
:104E90000198084301900398016901980843019023
:104EA000039841690198084301900398816901982A
:104EB000084301900198049908600398816800985C
:104EC00008430090009804994860FFE70499C86976
:104ED00040F600029043C86105A901200870FFE771
:104EE00005A8007806B07047FFF0000000300140D0
:104EF00080B58EB06348019041F200010291012219
:104F00000392FFF706F805200490FEF7DBF80198FE
:104F1000029900220692FEF7FCFF0498FEF7D2F8F1
:104F200001980299039AFEF7F4FF0498FEF7CAF875
:104F30000699AE20FFF76AFE069902200A90FFF755
:104F400065FE069910200790FFF760FE0699402045
:104F50000590FFF75BFE0699B020FFF757FE069914
:104F60008120FFF753FE0699FF20FFF74FFE0699B9
:104F7000A120FFF74BFE0699C020FFF747FE0699D8
:104F8000A620FFF743FE0699A820FFF73FFE0699EB
:104F90003F20FFF73BFE0699AD20FFF737FE06994D
:104FA0008B20FFF733FE06993320FFF72FFE06997B
:104FB000C820FFF72BFE0699D320FFF727FE06999E
:104FC0000846FFF723FE0699D520FFF71FFE069936
:104FD0008020FFF71BFE0699D920FFF717FE0699E0
:104FE0001F20FFF713FE0699DA20FFF70FFE069940
:104FF0001220FFF70BFE0699DB20FFF707FE05984E
:105000000699FFF703FEFCF71BF80699AF20FFF7A0
:10501000FDFD06990A981C4A0C230D93FCF74EF9E6
:1050200006990D9B194A099232200B90FCF746F91C
:1050300007990A980D9B164AFCF740F90799099AB7
:105040000B980D9BFCF73AF90A980D9B114A202109
:105050000891FCF733F90899099A0B980D9BFCF716
:105060002DF90A980D9B0C4A30210C91FCF726F97A
:105070000B980C990D9B094AFCF720F9FCF760F896
:105080000EB080BD00040048CB6A0008AF6A00087B
:10509000C46A0008BE6A0008D26A0008B56A00083F
:1050A00081B0009000990020086000994860009A43
:1050B00040F2007191600099C86000990861009900
:1050C00048610099886101B07047000084B00020F9
:1050D0000390029030490868012210430860FFE7FE
:1050E0000398401C03902C4800680221084002905D
:1050F000FFE702990020019041B9FFE7039840F2D1
:105100000051401A411E88410190FFE70198C007F5
:105110000028E5D1FFE7204800688007002802D476
:10512000FFE7FFE7FEE71D4908680222104305225A
:10513000904308601A490091086808600868086090
:10514000086808600868174A104008600868164A2E
:1051500010430860104908680122120610430860D5
:10516000FFE70D4800688001002801D4FFE7F8E759
:105170000B49086803229043086008680222104324
:105180000860FFE7064800680C210840082801D0A5
:10519000FFE7F7E704B0704700100240002002402C
:1051A00004100240FFFFC2F70000040880B5FFF7BB
:1051B0008DFF80BD80B50848006840F2E831B0FB43
:1051C000F1F0FCF7EBF810B1FFE7FFE7FEE7002195
:1051D000C843FCF7CDFB80BD0400002081B00090E7
:1051E0000099086880221043086001B070470000F1
:1051F00084B0039002A801800192008800900328E7
:1052000000D964E100998A0001A080188746C04651
:1052100000F006B800F063B800F0CBB800F023B996
:105220000399086A0122904308620399886903225E
:1052300090438861019802880399086A10430862C4
:105240000399086A022290430862019882880399B0
:10525000086A1043086203989E4988420FD0FFE70E
:1052600003989D4988420AD0FFE703989B498842EA
:1052700005D0FFE703989A4988422FD1FFE70399A9
:10528000086A042290430862019842880399086AD8
:10529000104308620399086A082290430862019843
:1052A000C2880399086A104308620399486840F26B
:1052B000001290434860019802890399486810439E
:1052C00048600399486840F2002290434860019882
:1052D00042890399486810434860FFE7F8E0039962
:1052E000086A1022904308620399886940F20032EC
:1052F000904388610198008802010399086A10436D
:1053000008620399086A2022904308620198808805
:1053100002010399086A1043086203986D498842A4
:1053200033D1FFE70399086A40229043086201984D
:10533000408802010399086A104308620399086AC9
:105340008022904308620198C08802010399086A8C
:10535000104308620399486840F200429043486055
:1053600001980089820003994868104348600399B6
:10537000486840F6000290434860019840898200E6
:105380000399486810434860FFE70398EE49884254
:105390000ED1FFE70399486840F20042904348600D
:1053A0000198008982000399486810434860FFE72C
:1053B0008EE00399086A40F2001290430862039954
:1053C000C86903229043C8610198008802020399CA
:1053D000086A104308620399086A40F20022904369
:1053E00008620198808802020399086A10430862E3
:1053F0000398D449884235D1FFE70399086A40F2FF
:105400000042904308620198408802020399086AAA
:10541000104308620399086A40F60002904308624C
:105420000198C08802020399086A10430862039930
:10543000486841F2000290434860019800890201E7
:1054400003994868104348600399486842F2000293
:1054500090434860019840890201039948681043CD
:105460004860FFE734E00399086A41F20002904384
:1054700008620399C86940F200329043C8610198FC
:10548000008802030399086A104308620399086AB6
:1054900042F2000290430862019880880203039957
:1054A000086A104308620398A64988420ED1FFE7B4
:1054B0000399486844F200029043486001980089CB
:1054C00082010399486810434860FFE700E0FFE766
:1054D00004B07047002C01400040014000440140EE
:1054E0000048014084B0039002A8018001A90A800D
:1054F00000880090032841D800998A0001A08018F4
:105500008746C04600F006B800F010B800F01CB89E
:1055100000F026B80399886970229043886101A839
:105520000288039988691043886128E00399886993
:1055300047F200029043886101A8008802020399A3
:105540008869104388611AE00399C8697022904302
:10555000C86101A802880399C8691043C8610EE0B8
:105560000399C86947F200029043C86101A8008806
:1055700002020399C8691043C86100E0FFE704B064
:105580007047000084B0039002A801800192008857
:10559000009003281CD800998A0001A08018874633
:1055A00000F006B800F008B800F00AB800F00CB837
:1055B0000198039948630CE001980399886308E017
:1055C00001980399C86304E001980399086400E016
:1055D000FFE704B07047000084B0039002A8018088
:1055E00001A90A8000880090032841D800998A0008
:1055F00001A080188746C04600F006B800F010B839
:1056000000F01CB800F026B803998869082290437E
:10561000886101A80288039988691043886128E09D
:105620000399886940F600029043886101A80088C8
:10563000020203998869104388611AE00399C869D6
:1056400008229043C86101A802880399C8691043E1
:10565000C8610EE00399C86940F600029043C86132
:1056600001A8008802020399C8691043C86100E0DC
:10567000FFE704B07047000080B58AB00990099830
:1056800008908649884226D0FFE708982C4988422E
:1056900029D0FFE70898824988422CD0FFE7089874
:1056A0007D4988420FD0FFE708987E4988422BD079
:1056B000FFE708987C4988422FD0FFE708987B498C
:1056C000884232D039E025480790FFF767FA0798FB
:1056D000FFF752FA32E020480690FFF75FFA06988B
:1056E000FFF74AFA2AE01B480590FFF757FA05989A
:1056F000FFF742FA22E040F208400490FFF74EFA2A
:105700000498FFF739FA19E040F210300390FFF7E0
:1057100045FA0398FFF730FA10E00D480290FFF7C2
:105720003DFA0298FFF728FA08E008480190FFF7D1
:1057300035FA0198FFF720FA00E0FFE70AB080BDD4
:1057400000100040002C0140004001401203000006
:105750001103000004040000010400000B0300001A
:1057600082B001906846018002880199C8681043A0
:10577000C86002B07047000083B0029001910092AF
:105780000299886C054A10408864019A0098024387
:105790000299886C1043886403B07047E0E0FFFF13
:1057A00081B000900099086801221043086001B0A0
:1057B0007047000082B001900091009880880199A4
:1057C000886201983449884205D0FFE7019833493F
:1057D000884212D1FFE7019908687022904308605F
:1057E0000098C288019908681043086000980289EF
:1057F0000199086810430860FFE700980068019964
:10580000C86201982449884219D0FFE701982349CA
:10581000884214D0FFE70198214988420FD0FFE762
:105820000198204988420AD0FFE701981E49884222
:1058300005D0FFE701981D4988420DD1FFE7019986
:10584000086840F20032904308600098428901994C
:10585000086810430860FFE701980F4988420FD09D
:10586000FFE701980F4988420AD0FFE701980E49E7
:10587000884205D0FFE701980C49884205D1FFE72F
:105880000098007B01990863FFE7019948690122AC
:105890001043486102B07047002C014000040040F2
:1058A0000020004000400140004401400048014009
:1058B00082B001900091009A0199C8681043C860B5
:1058C00002B0704782B0019000910098C0430199E6
:1058D000086102B0704784B0029001910298C068DC
:1058E000019908400090029800690199084207D088
:1058F000FFE7009820B1FFE703A90120087003E04B
:1059000003A900200870FFE703A8007804B07047DF
:1059100082B00190684601700078012807D1FFE746
:105920000199486C48F200021043486406E001996E
:10593000486C48F2000290434864FFE702B07047A9
:1059400081B000900099002088800099C88000995B
:105950000881009A034911600099488100990873F1
:1059600001B07047FFFF00000148416800687047C0
:10597000B80B002080B582B00A4601A908706846BD
:10598000027000780201084880180978FEF780F854
:1059900030B9FFE76846007808B1FFE7FFE7FFE7A7
:1059A000012002B080BDC0467C0D002080B588B0CB
:1059B00007900691002005900490039002900798AC
:1059C0000190414988420AD0FFE701983F49884247
:1059D0000AD1FFE70520FEF7EFFD059005E0022064
:1059E000FEF7EAFD059000E0FFE707980068000475
:1059F000002818D5FFE70598400006994A08801846
:105A0000B0FBF1F00290029813490840049002980C
:105A10000007400F039004A8008803A909880843E1
:105A20000799C86016E0059806994A088018B0FBE7
:105A3000F1F00290029808490840049002980F2162
:105A40000840039004A8008803A90988084307991F
:105A5000C860FFE708B080BDF0FF000081B0009093
:105A60000098406A0649084001B0704782B0019032
:105A700000910098024908400199886202B070477D
:105A8000FF01000080B584B00390039802900E4996
:105A900088420DD0FFE702980C49884210D1FFE7F9
:105AA0000C480190FFF77AF80198FFF765F808E0D5
:105AB00007480090FFF772F80098FFF75DF800E0E4
:105AC000FFE704B080BDC0460044004000380140FC
:105AD000110400000E03000081B0009000990868D6
