:020000040800F2
:10000000D8060020E1000008E90000080108000807
:1000100000000000000000000000000000000000E0
:10002000000000000000000000000000ED000008DB
:100030000000000000000000EF0000088108000838
:10004000F3000008F3000008F3000008F3000008C4
:10005000F3000008F3000008F3000008F3000008B4
:1000600000000000F3000008A1070008F3000008EA
:10007000F3000008F3000008F3000008000000008F
:10008000F30000088909000800000000F3000008E0
:10009000F3000008F3000008F3000008F300000874
:1000A000F3000008F3000008F3000008510B0008FB
:1000B000F300000800000000000000000000000045
:1000C000F300000800000000F30000080348854624
:1000D00000F02CFA0048004745190008D806002017
:1000E0000448804704480047FEE7FEE7FEE7FEE7D6
:1000F000FEE7FEE78D080008CD000008F0B51FB44C
:100100000646002082B005464024019100901BE085
:10011000019922460F46304600F030F8049A059BBC
:10012000801A994110D310461946224600F016F85D
:10013000361A8F410197224601200021009F00F0CE
:100140000DF838184D4100902046641E0028DFDC71
:10015000019B00982946324607B0F0BD10B5202A11
:1001600004DB0146203A9140002010BD914020233D
:100170009C1A0346E3401943904010BD10B5202A55
:1001800004DB0846203AD040002110BD0B46D34086
:10019000D0402024A21A91400843194610BD000007
:1001A000F0B507460846584087B0C00F0490480095
:1001B0000E46590040084908BC1A884105D2384605
:1001C00031461E4617460B4602465800400810436B
:1001D0004CD0300D039040055900400D490D05905D
:1001E000401A0290402872DA18030121000B090519
:1001F0000843019004980092002805D001995242CA
:100200000020884100920190029840210A1A019929
:100210000098FFF7A3FF05460C466B4607CB00F09E
:10022000B6F9C0197141039A0E0D0023D717564035
:100230001A467A40164344D0049A002A2DD0029AD6
:10024000012A039A15DC1205C01A914101263605D0
:10025000001C7141D20F059ED207009301920296B5
:100260002A46234600F0B3F907B0F0BD38463146C0
:10027000FAE71605224A0F46B218C01AB741012103
:100280000905001C4F4100187F411146181879419B
:10029000E20F10436D19644113E0E2076D08154346
:1002A0006408C2071443039A01261205C01A91413B
:1002B0003605001C7141CE07400830434908C0187C
:1002C00051412A46234600F075F9CDE7FFE704982F
:1002D00001224000C117121A00238B4104983146B5
:1002E000C417381AA141EEE730B40124E407634093
:1002F00030BC55E730B40124E407614030BC4FE71F
:100300000000E0FFF0B51FB488B00B9909980024F5
:1003100048400999C00F490049080991C0070B9945
:100320000090490049080B9109990898A64608438E
:100330001CD00B990A98084318D009980124400052
:10034000420D4800410D099824050003000B20438D
:1003500009900B980003000B20430B9050181C4988
:100360004018002201901446104605E00020014686
:100370000DB0F0BD032801DA034600E003239C46DC
:10038000C11A0AAE0AE05F0008ADED5B4F00F75BF3
:100390007D430027AA187C41491C5B1E6145F2DDA4
:1003A000410004AB5A522104120C0A43240C401C95
:1003B0000828DFDB019802900099704601910090B7
:1003C000059B049A0799069800F001F9D0E7000010
:1003D0000DFCFFFFF0B50C465C4085B0E40FE40770
:1003E00003944C00002664085900944649080246CC
:1003F0000296224321D062460A431ED06200570D66
:100400004A000E032303550D012402462C492405FE
:10041000781B1B0B360B4018234326436146009084
:100420001C46501AB44103D30098401C009002E0CF
:10043000921800985B41002803DA0020014605B0BD
:10044000F0BD0020012109050746864611E06446FB
:100450001D46141BB54106D36546521BB341744675
:1004600007430C43A646CD07400849082843921885
:100470005B4105460D43EAD11046184313D0604650
:10048000194650407140084306D06046101AB341E7
:1004900006D20122002306E000220123DB0702E04E
:1004A0000122D2435310009874460105381C614163
:1004B000029C039D0019694100F07CF8BFE7000031
:1004C000FD0300004A0009030123090B1B05194322
:1004D0000A4B10B5520D9A4202DA0020014610BDB7
:1004E000064B34339A4203DC9A1AFFF747FE10BDDD
:1004F000034BD218FFF732FE10BD0000FF030000CF
:10050000CDFBFFFF10B5002904DB0124E4074042C6
:100510008C412146002B04DB1C460123DB075242A1
:10052000A341994200D1904210BD0000064C012524
:10053000064E05E0E36807CC2B430C3C984710348B
:10054000B442F7D3FFF7C6FDA8370008C837000844
:1005500070B50446002903D000202022012310E0BA
:10056000002801D00020C043C046C0460DE025460B
:10057000D5408D4205D30D469540641B1D469540E0
:1005800040191546521E002DF1DC214670BD10B5F4
:10059000202A06DBCB170846203A1041C1170B432F
:1005A00006E00B461341D0402024A21A9140084394
:1005B000194610BD10B5002B08DA0024401C61411B
:1005C00092185B411A4301D14008400010BDF0B5BC
:1005D0001FB482B005460C0003D0084602F042FC6E
:1005E00002E002F03FFC20300246009021462846FF
:1005F000FFF7B4FD049B059A04460F4618431143C8
:10060000084314D0184610431BD0009840210A1A02
:1006100018460599FFF7B2FD05460E46009A059962
:100620000498FFF79BFD084305D0012004E0204615
:10063000394607B0F0BD0020C11705430E432C43D7
:10064000374300990E986305401A7905E40A0022A1
:100650000C43FD0A0A3002D500200146E9E70105F6
:10066000101969410C9C0D9D00196941FFF7A2FF0B
:10067000DFE7000080B584B01C4801F01BFD1C487A
:1006800001F018FD1B4801F015FD062001F08CF962
:100690000920C0060321019102220292FB2301F0EE
:1006A00089F8019B029A1448194601F083F800204A
:1006B00000F0C6FB01210391084600F08BFB029875
:1006C000039900F045FC03980721490400F018FC49
:1006D0000399084600F0D6FB00F0C8FB039800F031
:1006E000A7FC00F05BFB04B080BDC0461105000014
:1006F00012050000090600000004004880B500F063
:100700007BF800F07FF880BD80B582B001F07EFDFF
:1007100000F07CF900F056FAFFF7ACFFE120400250
:1007200000F0B6FE0020019001F0D0F800F086F94C
:1007300000F0B4F902F012FB144800F005FE00F0DE
:1007400065FC019801F0F6F90146114802F07AFBC8
:10075000012001F0EFF901460E4802F073FB022080
:1007600001F0E8F901460C4802F06CFB032001F0AF
:10077000E1F90146094802F065FB00F029F801980B
:10078000944988604860086002B080BDFFFF0000A7
:10079000973700088837000868370008783700085E
:1007A00080B50120022100F05DFD28B1FFE70121A5
:1007B000084600F045FDFFE70221084600F052FD23
:1007C00028B1FFE70220012100F03AFDFFE780BDDC
:1007D00080B582B040F60010019001F041FB019815
:1007E00001F050FB0348042100F0F8FE00F06AFF1E
:1007F00002B080BD7102000080B500F05DFF80BDD9
:10080000FFE7FEE780B582B001A9082008706946BD
:10081000002008706F48001D00F0DEF830B1FFE7DF
:100820006C48001D962100F0FBF8FFE7FFF7E4FF9E
:1008300002B080BD80B584B002900298401E000EC8
:1008400018B1FFE70120039011E00298401E09490A
:10085000086000200190C043032100F01BFA0198BA
:1008600005490860054A072111600390FFE70398D6
:1008700004B080BD14E000E018E000E010E000E00B
:1008800080B500F0E3FB00F0EDFB80BD80B584B0E7
:1008900034490868012210430860FFE731480068C6
:1008A0008007002801D4FFE7F8E7FFE72E49086832
:1008B00080221043086000200390FFE703987F2800
:1008C00005D8FFE7FFE70398401C0390F6E72649A9
:1008D000086890221043086000200390FFE7039807
:1008E0007F2805D8FFE7FFE70398401C0390F6E751
:1008F000FFE71D490868032290430860194A106801
:100900001A4B184010600868194A104008600868BF
:10091000184A10400860184908680F229043086080
:100920001649086840F203129043086008680122E3
:1009300001921304984308600868D307984308603D
:100940000F490868904308600E4900200290086033
:1009500001F058FC01980299C00601F013F804B0A8
:1009600080BDC0460010024004100240FFFFF2FEAE
:100970000C00FF08FFFFC2772C100240301002402D
:10098000341002400810024080B54348012101F0B4
:10099000CEFF01281CD1FFE73F48012101F0BEFF37
:1009A0000C498878401C8870C0B2332806DBFFE70A
:1009B00008490020887000F023F8FFE70548007818
:1009C000012804D1FFE7002000F036FDFFE7FFE734
:1009D00080BDC0468C01002083B002900F480168A2
:1009E00002980268891A426801200023009391420C
:1009F000019001D200980190019803B07047C04661
:100A000006490868401C08607047C046034900203A
:100A100008607047014800687047C0460800002021
:100A200080B582B001900091FFF7F4FF0199086052
:100A300000980199486002B080BD000080B588B080
:100A4000144801F037FB1448029001F041FE04A85D
:100A5000009001F0A1FF0099029847228A800022AD
:100A60000392CA800A81132304934A8101F0CEFEC7
:100A700002980121019101F051FF0199029801F0C2
:100A800043FF029801F0B8FE0399112000F064FFC3
:100A900008B080BD040700000010004080B58EB093
:100AA0006C4801F007FB0920C00601900221029169
:100AB0000022049240F20013039300F07BFE0198A1
:100AC000039B0499032200F0BCFE01980299039A4B
:100AD00000F000FE1B4801F0EDFA1B48069001F003
:100AE000F7FD049A069807A947238B80CA800A81DC
:100AF000164B07934A810A7301F088FE0499069801
:100B00000BAA012305931380042353809180D18085
:100B10001181518101F098FB04990698602201F03F
:100B20000DFD049A0698114601F082FD059906987C
:100B300001F01AFF069801F07DFB069801F05CFEBB
:100B40000EB080BD0B060000002C0140E703000042
:100B500080B584B003A9002008701748174902F037
:100B600039F880B1FFE71448029001F09DFF01467B
:100B700003A801700078002101F022FF02980F49BC
:100B800002F008F815E00C480D4902F023F880B196
:100B9000FFE70948019001F087FF014603A80170B3
:100BA0000078002101F00CFF0198054901F0F2FFE7
:100BB000FFE704B080BDC0460038014005000307D0
:100BC0000500050780B588B0224801F073FA224875
:100BD00001F070FA0920C00603900121059148F246
:100BE0000002019200F076FD039805990422069216
:100BF00000F070FD019B0398059A0221029100F01C
:100C0000D9FD019B0398059A0021049100F019FE7B
:100C100002990398059A069B00F0CCFD039804996D
:100C2000059A069B00F00DFE0C48079001F050FF5E
:100C30000798E121490201F0DFFE0699079802F0CA
:100C40000FF80798082102F02FF8079801F06AFFC3
:100C500008B080BD110500001107000000440040ED
:100C600081B0014668460170007840B200280DD47A
:100C7000FFE76846007841B21F200A460240012083
:100C8000904049098900024A8850FFE701B0704747
:100C900000E100E070B582B0024601A80270009148
:100CA000007840B2002817D4FFE701A9087840B2C5
:100CB0000322D3431840384A8058097849B28C0738
:100CC000E50EFF24AC40A043009CA401E4B2AC407C
:100CD0002043194088501AE001A908780F242040C9
:100CE00008380322D34318402A4A8058097849B269
:100CF0008D07EE0EFF25B540A843009DAD01EDB276
:100D0000B54028432140083919408850FFE702B018
:100D100070BDC04670B582B0024601A80270009155
:100D2000007840B2002817D4FFE701A9087840B244
:100D30000322D3431840184A8058097849B28C07D7
:100D4000E50EFF24AC40A043009CA401E4B2AC40FB
:100D50002043194088501AE001A908780F24204048
:100D600008380322D34318400A4A8058097849B208
:100D70008D07EE0EFF25B540A843009DAD01EDB2F5
:100D8000B54028432140083919408850FFE702B098
:100D900070BDC0461CED00E000E400E09849086822
:100DA000082210430860FFE7954800680007002804
:100DB00001D5FFE7F8E7924908680422104308606C
:100DC000FFE78F4800684007002801D5FFE7F8E7F4
:100DD0007047C04683B0024602A8027001910078B5
:100DE0000090012804D0FFE7009802280FD01DE0F2
:100DF00012490A680F20000582430A60019A120511
:100E00000D4BD21802400868104308600FE00949F2
:100E10000A680320000582430A60019A1205064B06
:100E2000D218024008681043086000E0FFE703B0F2
:100E30007047C046382401400000F0FF2C240140D8
:100E400081B00090009838B1FFE76D49086840F61E
:100E500000021043086006E06949086840F6000295
:100E600090430860FFE701B07047C04664480068DF
:100E7000C00730B9FFE762490868012210430860E3
:100E8000FFE7704782B001AA1070684601700078D1
:100E9000D0B1FFE701A80078C00738B1FFE7584993
:100EA00008680122120510430860FFE701A80078D6
:100EB0008007002807D5FFE75149086848F200027B
:100EC00010430860FFE719E001A80078C00738B1B7
:100ED000FFE74B4908680122120590430860FFE7CD
:100EE00001A800788007002807D5FFE74449086873
:100EF00048F2000290430860FFE7FFE702B0704746
:100F000083B0024602A80270019100780090012887
:100F100004D0FFE7009802280BD015E03849086894
:100F20000722520490430860019A08681043086041
:100F30000BE03349086847F2000290430860019AC9
:100F400008681043086000E0FFE703B07047C04640
:100F500082B0019068460170007830B3FFE701A8C5
:100F60004078C00738B1FFE72449086840F2001212
:100F700010430860FFE701A840784007002807D524
:100F8000FFE71E49086840F2004210430860FFE78F
:100F900001A800788007002806D5FFE718490868EF
:100FA000022210430860FFE725E001A84078C0074F
:100FB00038B1FFE71149086840F200129043086019
:100FC000FFE701A840784007002807D5FFE70B4955
:100FD000086840F2004290430860FFE701A80078EB
:100FE0008007002806D5FFE70549086802229043DC
:100FF0000860FFE7FFE702B07047C04604240140E5
:101000000824014000487047C802002080B582B023
:10101000FFF7F8FF01900199044882688A604268EE
:101020004A600068086002B080BDC0465C370008B6
:1010300081B0009000980A490860FFE708480068FE
:1010400008B1FFE7FAE701B07047C04604480068FE
:1010500028B1FFE702490868401E0860FFE77047B3
:1010600098010020044948680A680023521C58412E
:101070000A6048607047C046A001002081B0014668
:1010800068460170007814214143AE4A8858012314
:101090009843885001B0704781B00146684601709E
:1010A000007814214143A74A8858012318438850E7
:1010B00001B0704781B00146684601700078142184
:1010C0004143A04A885820239843885001B0704774
:1010D000B0B581B00146684601700178142213460C
:1010E0004B43984C19590125A943195101781346CE
:1010F0004B43002119510478134663434F4C195157
:101100000478134663434B4C195103785A434A4BB6
:10111000D150007880000F22824051490868104366
:10112000086001B0B0BDC046B0B584B0024603A8A7
:101130000090027002910078FFF7A0FF009B0298D8
:1011400000681C7814210A4662433A4C10510298F8
:1011500080681C780A466243374C10510298008A16
:101160001C780A466243354C10511A7808465043A1
:10117000744A80580190019843F60074A04301908E
:1011800002984468C5682C43406904430198204391
:10119000019001981B78594388500298007E0128DD
:1011A0000AD1FFE703A8007814214143654A885813
:1011B00040231843885009E003A8007814214143D4
:1011C000604A8858402398438850FFE70298407E41
:1011D00001280AD1FFE703A8007814214143594AA6
:1011E000885880231843885009E003A80078142108
:1011F0004143544A8858802398438850FFE7029817
:10120000807E50B9FFE703A80078142141434D4A7E
:10121000885810239843885009E003A800781421C7
:101220004143484A8858102318438850FFE704B0C8
:10123000B0BDC04610000240140002400C00024045
:1012400082B0024601A802700091009A00788000E6
:101250008240034908681043086002B07047C046E6
:101260000400024086B004AA10700391002002908E
:10127000019003980090022808D0FFE70098042806
:1012800016D0FFE70098082824D035E024480168EC
:10129000039A04A803789B009A40114001910178B9
:1012A000142048432749405802210840029024E076
:1012B0001B480168039A04A803789B009A401140D8
:1012C00001910178142048431E49405804210840E8
:1012D000029012E012480168039A04A803789B0068
:1012E0009A40114001910178142048431549405813
:1012F00008210840029000E0FFE7019838B1FFE7BD
:10130000029820B1FFE705A90120087003E005A9B4
:1013100000200870FFE705A8007806B07047C046B7
:101320000000024081B00146684601700078142137
:101330004143044A885844F200039843885001B05E
:101340007047C0460800024080B584B0014603A83B
:10135000018002AA0A211180008818B9FFE7002045
:10136000019051E003A80088052806D1FFE702A8F4
:10137000018805204843019045E003A800882B49D7
:10138000884207DBFFE702A801886420B0FBF1F088
:10139000019037E003A80088042801DCFFE742E061
:1013A00003A80088332810DCFFE703A8018840F277
:1013B000E83048430621B0FBF1F102A80088484319
:1013C000642190FBF1F001901AE003A800883F2807
:1013D0000FDCFFE703A801882820484341F60011ED
:1013E000411802A800884843642190FBF1F0019065
:1013F00005E002A801885A2048430190FFE7FFE773
:10140000FFE7FFE7FFE7FFE701980949884204D3B8
:10141000FFE740F2E8300190FFE7019A054800211C
:1014200001F0DCF8FFE704B080BDC046FFFF00001C
:10143000E9030000002C014080B584B0014603A8F8
:10144000017000780290022805D3FFE70298801E01
:1014500002280CD317E00D48019040F2004100F043
:10146000A1F9019840F6000100F09CF90CE0074852
:10147000009040F2004100F08DF9009840F6000124
:1014800000F088F900E0FFE704B080BD00040048E8
:1014900080B588B007902D4800F00CFE2C480090D5
:1014A00001F016FB00980021049101F00CFC00985B
:1014B000049901F0E4FB0098049901F0BCFB00984A
:1014C000079901F099FA0098042101F0C9FB0098EE
:1014D000082101F0E9FB009801F024FB04991B208E
:1014E00000F03AFA0098052101F043FB194800F09A
:1014F000E1FD0920C00603900121059140F2002280
:10150000019200F0E7F80398059940F20042069234
:1015100000F0E0F8019B0398059A0221029100F087
:1015200049F9019B03980499059A00F08AF90299F8
:101530000398059A069B00F03DF903980499059AD3
:10154000069B00F07EF908B080BDC0460E06000084
:10155000003801401105000083B001906846017019
:1015600001994889401C8A89B0FBF2F35A43801ADA
:101570000989884204D1FFE702A90020087011E020
:101580000098019A51685289885401994889401CF1
:101590008A89B0FBF2F35A43801A488102A90120DC
:1015A0000870FFE702A8007803B0704780B582B0EA
:1015B0000190009101A80178064801F07DFAFFE74B
:1015C0000448054901F0B7FA08B9FFE7F8E70198C0
:1015D00002B080BD004400400707000087B005AAA4
:1015E000108004A801702E48039000200290374913
:1015F0002C480860FFE72C48006801210840029051
:10160000FFE70398411E03910020019029B1FFE7F5
:101610000298411E88410190FFE70198C007002809
:10162000E9D1FFE7029820B1FFE706A90020087082
:1016300031E004A800781D49086019480390FFE7CD
:1016400019480068022108400290FFE70398411EF4
:1016500003910020009029B1FFE70298411E8841C4
:101660000090FFE70098C0070028E9D1FFE7029843
:1016700020B1FFE706A9002008700CE005A800884B
:101680000B4908400B49086010490D48086006A93D
:1016900001200870FFE706A8007807B07047C04631
:1016A000FFFF0F00555500000C3000400430004093
:1016B000FF0F0000083000400449014808607047EF
:1016C000AAAA0000014902480860704700300040A3
:1016D000CCCC000086B00590049103920598006A76
:1016E00001900598406A009002A900200880FFE759
:1016F00002A8008807281DD8FFE702A801880398E0
:10170000C840C00780B1FFE702A8018889000F2206
:101710008A40019991430191049900888000814099
:10172000019808430190FFE7FFE70298401C02A9D7
:101730000880DDE702A908200880FFE702A80088EA
:101740000F281FD8FFE702A801880398C840C007E8
:1017500090B1FFE702A80188890020390F228A4052
:1017600000999143009104990088800020388140BD
:10177000009808430090FFE7FFE70298401C02A989
:101780000880DBE70198059908620098059948628E
:1017900006B0704782B0019000910098019988626C
:1017A00002B0704782B00190009100980199C86220
:1017B00002B0704787B00690059104920393069893
:1017C000006801900698C068009002A90020088077
:1017D000FFE702A800880F282BD8FFE702A801889E
:1017E0000398C840C007F0B1FFE702A8018849008C
:1017F000032213468B40019999430191059B01886F
:1018000049008B40019919430191018849008A40A0
:10181000009991430091049900884000814000980C
:1018200008430090FFE7FFE70298401C02A90880E8
:10183000CFE701980699086000980699C86007B03C
:10184000704710B586B0059004A80170039202930A
:101850000078012806D1FFE7029A059948681043ED
:10186000486005E0029A0599486890434860FFE7A0
:1018700005988068009001A900200880FFE701A872
:1018800000880F281DD8FFE701A801880298C840EA
:10189000C00780B1FFE701A80188490003228A4000
:1018A000009991430091039900884000814000987D
:1018B00008430090FFE7FFE70198401C01A908805A
:1018C000DDE700980599886006B010BD82B001463A
:1018D00001A8017001780B01174A0021D154037847
:1018E0001B01D318198103781B01D218518100788C
:1018F000009020B1FFE7009801280DD019E001A960
:10190000087802010C48831880229A81097809011D
:1019100041180B4848600DE001A90878020106480B
:10192000831880229A810978090141180348486088
:1019300000E0FFE702B07047A80200202802002064
:10194000A801002080B582B000200190FEF7DCFEE7
:10195000FFE7FEF7D3FEFCE780B584B00A460146F8
:1019600003A80190017002A90A70007840B20978BA
:10197000FFF7D0F90198007840B2FFF771F904B091
:1019800080BD000082B00190009101980099044A46
:101990001140084303490860BFF34F8F02B07047FE
:1019A00080FFFF1F08ED00E082B0014601A8017032
:1019B0005D4A11684CF20003994311605B4A11685B
:1019C0005B4B1940116000780090092800D9A7E00E
:1019D00000998A0001A080188746C04600F012B81E
:1019E00000F01CB800F026B800F02EB800F03BB8AC
:1019F00000F046B800F056B800F061B800F071B8D9
:101A000000F07CB84949086801221204904308603C
:101A1000086840F200129043086082E04349086879
:101A20000122120410430860086840F2001290433B
:101A3000086076E0F64908680860F949086840F2ED
:101A40000012104308606CE0F14908680860F4492E
:101A500008680122D20710430860086840F20012AB
:101A6000104308605DE0EA49086844F20002104350
:101A70000860EB49086840F200121043086050E02B
:101A8000E349086844F2000210430860E44908682A
:101A90000122D20710430860086840F20012104388
:101AA00008603EE0DA49086848F200021043086026
:101AB000DB49086840F200121043086031E0D44965
:101AC000086848F2000210430860D54908680122FE
:101AD000D20710430860086840F200121043086003
:101AE0001FE0CB4908684CF2000210430860CC4963
:101AF000086840F200121043086012E0C449086808
:101B00004CF2000210430860C54908680122D20760
:101B100010430860086840F200121043086000E0BB
:101B2000FFE702B07047C046041002403010024088
:101B3000FFFEFE7F9DB01CA90870002002901B9044
:101B40001A90199018901790169015901490139061
:101B50001290119010900F900E900D900C90AA4939
:101B60000B91AA490A910990089007910690059156
:101B70000490A74800680C21084080081B901B981F
:101B8000039040B1FFE70398012807D0FFE70398CF
:101B9000022806D044E0A148179044E09F481790DF
:101BA00041E09B4801680F2292041140890C119179
:101BB00000680121C9060840C00E10901098012845
:101BC00004D1FFE71198113011900BE011980F2804
:101BD00003D1FFE71020119003E01198801C1190B1
:101BE000FFE7FFE78A480068012109040840000C6C
:101BF0000F900F9870B1FFE7874800680F210840E9
:101C0000401C0E900E998548B0FBF1F111984843A5
:101C1000179004E011997F4848431790FFE702E0CE
:101C20007E481790FFE77A480168C9B209090D910B
:101C30000D9A08A9895C0C9117990C9AD1401691BC
:101C4000016840F200721140090A0D910D9A06A92F
:101C5000895C0C9116990C9AD1401591006843F655
:101C600000010840C00A0D900D9904A8405C0C903A
:101C700016980C99C84014901CA80078019005286B
:101C800000D9BCE001998A0001A080188746C046AF
:101C900000F00AB800F00BB800F00CB800F00DB876
:101CA00000F00EB800F07DB817981890A8E01698CC
:101CB0001890A5E015981890A2E0149818909FE04D
:101CC0005748006840F20011084088420FD0FFE7F3
:101CD00053480068012109040840884203D0FFE707
:101CE0005148139002E04F481390FFE756E04848F0
:101CF000006880B2800B1A9049480068C00F1990A4
:101D00001A980090032847D800998A0001A08018EB
:101D10008746C04600F006B800F012B800F01EB8C2
:101D200000F02CB8199820B9FFE7149840081390D8
:101D300005E016980321B0FBF1F01390FFE72CE0CB
:101D4000199820B9FFE714988008139005E01698B9
:101D50000521B0FBF1F01390FFE71EE0199830B9B0
:101D6000FFE714980621B0FBF1F0139005E01698F8
:101D70000721B0FBF1F01390FFE70EE0199820B9AE
:101D8000FFE71498C008139005E016980921B0FBEE
:101D9000F1F01390FFE700E0FFE7FFE713981890DA
:101DA0002EE01F480068800718B9FFE714981290CA
:101DB00022E01B48006803210840012803D1FFE707
:101DC0001798129017E0164800680321084002286F
:101DD00004D1FFE748F2000012900BE010480068C1
:101DE00003210840032803D1FFE70C48129000E0CC
:101DF000FFE7FFE7FFE7FFE71298189000E0FFE733
:101E000018981DB07047C046060708090102030470
:101E10000410024000093D002C10024000127A001C
:101E200030100240003FAB01809FD50082B0694670
:101E3000088008888009EE4A805809881F221140CE
:101E4000C840C00720B1FFE701A90120087003E0E6
:101E500001A900200870FFE701A8007802B07047D0
:101E600081B001466846018000881F22014611406A
:101E700001238B408109DE4A88581843885001B0FD
:101E80007047C04680B58CB001460BA80180002188
:101E90000A9109AA117008AA1170008807900028F9
:101EA00064D0FFE70798102816D0FFE70798182896
:101EB00000D1CBE0079840F60001884231D0FFE71F
:101EC000079840F60011884200D19AE0079840F642
:101ED0000051884270D0DEE0FFE708A801780020BA
:101EE000069039B9FFE70A98C249401A411E884155
:101EF0000690FFE70698C00748B1FFE71120FFF7FB
:101F000095FF08A908700A98401C0A90E5E711207F
:101F1000FFF78CFF20B1FFE709A901200870FFE758
:101F2000BAE0FFE708A801780020059039B9FFE77B
:101F30000A985E49401A411E88410590FFE70598BE
:101F4000C00748B1FFE75A48FFF770FF08A90870BB
:101F50000A98401C0A90E5E75548FFF767FF20B153
:101F6000FFE709A901200870FFE795E0FFE708A84F
:101F700001780020049041B9FFE70A9840F200512F
:101F8000401A411E88410490FFE70498C00748B1F9
:101F9000FFE70120FFF74AFF08A908700A98401CD4
:101FA0000A90E4E70120FFF741FF20B1FFE709A90C
:101FB00001200870FFE76FE0FFE708A80178002024
:101FC000039039B9FFE70A983549401A411E884104
:101FD0000390FFE70398C00748B1FFE73248FFF7D7
:101FE00025FF08A908700A98401C0A90E5E72E48CA
:101FF000FFF71CFF20B1FFE709A901200870FFE7E8
:102000004AE0FFE708A801780020029039B9FFE70D
:102010000A982349401A411E88410290FFE702981E
:10202000C00748B1FFE71F48FFF700FF08A9087085
:102030000A98401C0A90E5E71A48FFF7F7FE20B11E
:10204000FFE709A901200870FFE725E0FFE708A8DE
:1020500001780020019039B9FFE70A981049401A29
:10206000411E88410190FFE70198C00748B1FFE792
:102070001920FFF7DBFE08A908700A98401C0A9097
:10208000E5E71920FFF7D2FE20B1FFE709A90120FB
:102090000870FFE700E0FFE709A800780CB080BDFA
:1020A000FFFF0F0001090000010D0000FFFFFF030B
:1020B0000108000081B001466846018000881F22A7
:1020C0000146114001238B408109494A8858184331
:1020D000885001B07047C04681B001466846018013
:1020E00000881F220146114001238B408109404A8C
:1020F00088589843885001B07047C04681B0014667
:102100006846018000881F220146114001238B4050
:102110008109374A88581843885001B07047C04633
:1021200084B0002003900290314908680122120413
:1021300010430860FFE70398401C03902C48006898
:102140000121490408400290FFE702990020019014
:1021500039B9FFE703982749401A411E8841019089
:10216000FFE70198C0070028E5D1FFE72048006895
:102170008003002802D4FFE7FFE7FEE71E49086856
:10218000022210430522904308601C490091086810
:10219000086008680860086808600868184A104005
:1021A000086008681D22120410430860104908687E
:1021B0000122120610430860FFE70D480068800105
:1021C000002801D4FFE7F8E70C4908680322904390
:1021D00008600868022210430860FFE707480068AB
:1021E0000C210840082801D0FFE7F7E704B070474A
:1021F00000100240FFFF00000020024004100240D7
:10220000FFFFC27780B5FFF78BFF80BD80B5084820
:10221000006840F2E831B0FBF1F0FEF70BFB10B1C3
:10222000FFE7FFE7FEE70021C843FEF733FD80BD6F
:102230000400002081B000900099086880221043BB
:10224000086001B07047000084B0039002A80180CC
:10225000019200880090032800D964E100998A0067
:1022600001A080188746C04600F006B800F063B8A9
:1022700000F0CBB800F023B90399086A012290431B
:102280000862039988690322904388610198028853
:102290000399086A104308620399086A022290436E
:1022A0000862019882880399086A104308620398BB
:1022B0009E4988420FD0FFE703989D4988420AD083
:1022C000FFE703989B49884205D0FFE703989A49A6
:1022D00088422FD1FFE70399086A042290430862DD
:1022E000019842880399086A104308620399086AB2
:1022F0000822904308620198C2880399086A104333
:1023000008620399486840F20012904348600198BF
:10231000028903994868104348600399486840F26D
:10232000002290434860019842890399486810430D
:102330004860FFE7F8E00399086A102290430862BA
:102340000399886940F200329043886101980088BF
:1023500002010399086A104308620399086A20225F
:10236000904308620198808802010399086A10432B
:10237000086203986D49884233D1FFE70399086AE0
:102380004022904308620198408802010399086A3C
:10239000104308620399086A8022904308620198FA
:1023A000C08802010399086A1043086203994868CB
:1023B00040F20042904348600198008982000399EE
:1023C0004868104348600399486840F6000290430B
:1023D000486001984089820003994868104348602A
:1023E000FFE70398EE4988420ED1FFE7039948685A
:1023F00040F20042904348600198008982000399AE
:10240000486810434860FFE78EE00399086A40F28D
:102410000012904308620399C86903229043C8617F
:102420000198008802020399086A10430862039920
:10243000086A40F2002290430862019880880202F4
:102440000399086A104308620398D449884235D139
:10245000FFE70399086A40F200429043086201983E
:10246000408802020399086A104308620399086AC7
:1024700040F60002904308620198C0880202039966
:10248000086A104308620399486841F200029043C9
:102490004860019800890201039948681043486028
:1024A0000399486842F200029043486001984089CD
:1024B00002010399486810434860FFE734E003993C
:1024C000086A41F20002904308620399C86940F229
:1024D00000329043C8610198008802030399086A9A
:1024E000104308620399086A42F2000290430862AE
:1024F0000198808802030399086A104308620398D0
:10250000A64988420ED1FFE70399486844F20002C9
:1025100090434860019800898201039948681043FC
:102520004860FFE700E0FFE704B07047002C01407F
:1025300000400140004401400048014084B0039045
:1025400002A8018001A90A8000880090032841D8D0
:1025500000998A0001A080188746C04600F006B89E
:1025600000F010B800F01CB800F026B80399886994
:1025700070229043886101A80288039988691043FA
:10258000886128E00399886947F2000290438861D6
:1025900001A80088020203998869104388611AE043
:1025A0000399C86970229043C86101A80288039901
:1025B000C8691043C8610EE00399C86947F2000278
:1025C0009043C86101A8008802020399C8691043BA
:1025D000C86100E0FFE704B07047000084B00390DA
:1025E00002A8018001920088009003281CD800995D
:1025F0008A0001A08018874600F006B800F008B8ED
:1026000000F00AB800F00CB80198039948630CE098
:1026100001980399886308E001980399C86304E06E
:1026200001980399086400E0FFE704B070470000D8
:1026300084B0039002A8018001A90A80008800905C
:10264000032841D800998A0001A080188746C04617
:1026500000F006B800F010B800F01CB800F026B882
:102660000399886908229043886101A80288039928
:1026700088691043886128E00399886940F6000260
:102680009043886101A80088020203998869104379
:1026900088611AE00399C86908229043C86101A8BB
:1026A00002880399C8691043C8610EE00399C8699C
:1026B00040F600029043C86101A800880202039915
:1026C000C8691043C86100E0FFE704B0704700002C
:1026D00080B58AB00990099808908649884226D02A
:1026E000FFE708982C49884229D0FFE708988249DB
:1026F00088422CD0FFE708987D4988420FD0FFE739
:1027000008987E4988422BD0FFE708987C49884288
:102710002FD0FFE708987B49884232D039E025481E
:102720000790FFF7EBFC0798FFF7D6FC32E0204854
:102730000690FFF7E3FC0698FFF7CEFC2AE01B4863
:102740000590FFF7DBFC0598FFF7C6FC22E040F29E
:1027500008400490FFF7D2FC0498FFF7BDFC19E095
:1027600040F210300390FFF7C9FC0398FFF7B4FC68
:1027700010E00D480290FFF7C1FC0298FFF7ACFC97
:1027800008E008480190FFF7B9FC0198FFF7A4FCA6
:1027900000E0FFE70AB080BD00100040002C0140BF
:1027A0000040014012030000110300000404000077
:1027B000010400000B03000082B001906846018014
:1027C00002880199C8681043C86002B070470000D1
:1027D00083B00290019100920299886C054A1040E2
:1027E0008864019A009802430299886C10438864B7
:1027F00003B07047E0E0FFFF81B0009000990868E7
:1028000001221043086001B07047000082B00190BF
:102810000091009880880199886201983449884223
:1028200005D0FFE701983349884212D1FFE70199AB
:1028300008687022904308600098C288019908686F
:1028400010430860009802890199086810430860E5
:10285000FFE7009800680199C862019824498842FE
:1028600019D0FFE701982349884214D0FFE7019867
:10287000214988420FD0FFE70198204988420AD0B9
:10288000FFE701981E49884205D0FFE701981D49DE
:1028900088420DD1FFE70199086840F20032904369
:1028A0000860009842890199086810430860FFE7B2
:1028B00001980F4988420FD0FFE701980F498842DD
:1028C0000AD0FFE701980E49884205D0FFE701983A
:1028D0000C49884205D1FFE70098007B0199086305
:1028E000FFE70199486901221043486102B070472F
:1028F000002C014000040040002000400040014046
:10290000004401400048014082B001900091009ACB
:102910000199C8681043C86002B0704782B0019046
:1029200000910098C0430199086102B0704784B0DB
:10293000029001910298C0680199084000900298A5
:1029400000690199084207D0FFE7009820B1FFE72E
:1029500003A90120087003E003A900200870FFE725
:1029600003A8007804B0704782B0019068460170F7
:102970000078012807D1FFE70199486C48F200026E
:102980001043486406E00199486C48F20002904305
:102990004864FFE702B0704781B0009000990020C2
:1029A00088800099C88000990881009A03491160C5
:1029B000009948810099087301B07047FFFF00003B
:1029C00080B582B00A4601A9087068460270007896
:1029D0000201084880180978FEF7BEFD30B9FFE70C
:1029E0006846007808B1FFE7FFE7FFE7012002B083
:1029F00080BDC046A802002080B588B0079006912F
:102A0000002005900490039002900798019041499E
:102A100088420AD0FFE701983F4988420AD1FFE780
:102A20000520FFF787F8059005E00220FFF782F800
:102A3000059000E0FFE7079800680004002818D51B
:102A4000FFE70598400006994A088018B0FBF1F0AE
:102A50000290029813490840049002980007400F22
:102A6000039004A8008803A9098808430799C8604F
:102A700016E0059806994A088018B0FBF1F002901C
:102A8000029808490840049002980F2108400390DA
:102A900004A8008803A9098808430799C860FFE7CC
:102AA00008B080BDF0FF000081B000900098406A3F
:102AB0000649084001B0704782B00190009100982B
:102AC000024908400199886202B07047FF01000086
:102AD00080B584B00390039802900E4988420DD0CF
:102AE000FFE702980C49884210D1FFE70C4801909B
:102AF000FFF704FB0198FFF7EFFA08E007480090A2
:102B0000FFF7FCFA0098FFF7E7FA00E0FFE704B0F0
:102B100080BDC04600440040003801401104000060
:102B20000E03000081B00090009908680122104354
:102B3000086001B0704784B000910146009802918E
:102B400001A9088002980A889209805809881F22E2
:102B50001140C840C00720B1FFE703A90120087059
:102B600003E003A900200870FFE703A8007804B081
:102B7000704782B001906846018000881F2201469C
:102B8000114001238B4001998209885818438850CD
:102B900002B0704782B00190009100980C498842C1
:102BA00008D1FFE70199D022885848F200039843E2
:102BB00088500BE000981F2109040840000C0122F6
:102BC00082400199086A10430862FFE702B070472B
:102BD00009340F3410B585B00390029100200190A4
:102BE0000090039802A9098889094058029C1F2374
:102BF0001C4001210A46A240104001900398029A0D
:102C0000920D8058029A1B041A40120C9140084001
:102C10000090009838B1FFE7019820B1FFE704A9C0
:102C20000120087003E004A900200870FFE704A851
:102C3000007805B010BD82B001900091019908683C
:102C40000122904308600199086840F200629043B5
:102C50000860009A019908681043086002B0704744
:102C600082B00190009101990868042290430860A5
:102C7000009A019908681043086002B0704782B05A
:102C80000190009101990868012290430860019920
:102C9000486843F2000290434860009A01994868EE
:102CA0001043486002B0704782B0019000910199D2
:102CB0000868082290430860009A01990868104348
:102CC000086002B0704782B00190009101990868D5
:102CD0000122904308600199086841F20002904384
:102CE0000860009A019908681043086002B07047B4
:102CF00080B58AB040F20050FFF7DCF90420029062
:102D0000FEF7E6F9029803A901228A76114B059392
:102D10004A7640F200420692D82207920E4A039267
:102D200000220A7640F200120192049242F200025E
:102D30000892FEF7F9F90298FEF7BCF901994048AC
:102D4000FFF73AFD0298FEF7EDFA0298FEF7A4F9B4
:102D50000AB080BD0C000020402C014080B584B03A
:102D60000F48FFF7A7F90920C00601900221029140
:102D70000022009240F600030393FEF71BFD00992A
:102D80000198039B0322FEF75CFD01980299039AC8
:102D9000FEF7A0FC00F006F8FFF7AAFF04B080BD24
:102DA0001105000080B58CB02448FFF783F9244852
:102DB0000490FFF78DFC049805A9002202928A80F6
:102DC000CA800A81592305934A810A73FFF71EFDC1
:102DD0000299049809AA01230193138051809180DC
:102DE000D18040F20013039313815181032100919C
:102DF000FFF72AFA009904986022FFF79FFB0099D9
:102E0000029A0498FFF7EAFB0099029A0498FFF7E8
:102E10000FFC01990498FFF7A7FD029A049810216E
:102E2000FFF7D6FC03990498FFF7C6FC0498FFF758
:102E300001FA0498FFF7E0FC0CB080BD0B0600001F
:102E4000002C01400FB410B503A9044B044A0298AA
:102E500000F0E8F810BC08BC04B01847AD15000835
:102E6000000000202021020C01D010211046020A8F
:102E700001D010460839020901D01046091F820806
:102E800001D01046891E420801D0881E7047081ADA
:102E9000704702E008C8121F08C1002AFAD1704723
:102EA0007047002001E001C1121F002AFBD17047CA
:102EB000F0B51FB486B00998089A030D00210243AB
:102EC00014D05148514A181850430514119801283C
:102ED00010981AD0281A401C00264D4F4D490096D4
:102EE00001910490002812DA444211E01198012463
:102EF00049A3012801D11098C1430698119A846012
:102F00000360C26041600BB0F0BD4042E4E704469C
:102F1000210500203F4A001C51410391029012E01C
:102F2000E00707D032463B4601990098FDF7EAF9E1
:102F30000191009032463B4610461946FDF7E2F9F2
:102F400006460F466410002CEAD10498039B002823
:102F5000029A0999089806DAFDF7D4F9019B009ABC
:102F6000FDF7D0F905E0FDF735FA019B009AFDF772
:102F700031FA04460E460022284BFDF7C3FA03D867
:102F80000020C043014607E00022254B2046314681
:102F9000FDF706F9FDF796FA102409E0002C0ADB8C
:102FA0000A220023FDF7AAF8079B30321A55641E47
:102FB00002460A43F2D11122641C079B121B1C1902
:102FC000119B012B03D0012308430ED10AE00843D3
:102FD00004D0112010900020119077E71098151A56
:102FE0006D1E0BE01098824202DD00236D1C03E091
:102FF000824201DA00236D1E002BEED00698119953
:103000008260C16030C07EE701FCFFFF104D000010
:10301000000014400000F03F300000000000F043CA
:103020000000E03FFFB597B00646002518E22528CE
:1030300077D100242746FD49049400E00443761C20
:1030400032780120203A90400842F7D130782A287F
:103050000ED00222307801463039092916D8049959
:103060000A235943303940181443761C0490F1E781
:10307000189802C804911890002904DA012040032E
:1030800004434842049002200443761C30782E28E2
:1030900014D1042004437078761C2A2809D118988A
:1030A000761C80C8189009E00A214F43303FC719A9
:1030B000761C3078014630390929F5D930786C28EA
:1030C00010D006DC4C281AD068280ED06A2817D1F8
:1030D00004E0742813D07A2812D110E001204005B2
:1030E00004430CE00121090501E0032109050C431B
:1030F0007178814203D1012000052418761C761CCA
:103100003078119066280BD013DC58287DD009DC6C
:1031100000287BD04528F6D04628F4D047281AD17D
:10312000A5E118E0632835D0642870D0652812D155
:103130009DE170286CD008DC6728F1D069287BD02D
:103140006E280DD06F2806D1BAE073282ED07528CE
:1031500071D0782859D01A9A199990476D1C7EE140
:103160006002400F022809D003280DD004281898C7
:1031700001680DD00D60001D189070E11898EA17D5
:1031800001680D604A60F6E7189801680D80F2E763
:103190000D70F0E718986A4601781172001D1890BA
:1031A0000020507202A80090012005E0189802C883
:1031B000189000200091C04361070DD5002101E067
:1031C0000199491C0191B94212DA8142F8DB009A57
:1031D000515C0029F4D10BE0002101E00199491C68
:1031E00001918142FADB019A0099895C0029F5D1AD
:1031F000019904981A9B471A21463846199A00F0FB
:1032000097FA0199401945180BE04FE02CE113E0C3
:103210004EE0009800990078491C00911A9A19997B
:1032200090470198401E0190401CF2D1214638463B
:103230001A9B199A10E137E00A20002100900191B1
:103240006002410F022907D0189A01CA1892C217CA
:103250009446032908D00AE01898C01DC108C90087
:1032600005C91891944607E000B2C2179446042994
:1032700002D140B2C1178C4600226146944506DA5D
:103280000A460021404291418C462D2102E0210551
:1032900004D52B216A461173012103E0E10701D017
:1032A0002021F7E7029155E00A200AE0102008E00B
:1032B000102000900021042004430191082703E01E
:1032C00008200021019100906002410F022907D0DF
:1032D000189A01CA189200229446032908D008E0DF
:1032E0001898C01DC108C90005C91891944603E08B
:1032F00080B2042900D1C0B200210291210729D552
:103300001199702906D0009A1021019B4A401A4356
:1033100005D00EE040216A461173012108E06146A4
:10332000014306D030216A4611731199517302216D
:103330000291009A0821019B4A401A430AD1614632
:10334000014301D1610705D530216A46117301217E
:103350007F1E02911199582904D035A10E910DA913
:103360000D910DE037A1F9E76146019B009AFCF74A
:10337000C5FE0E9B8C469B5C0D9A521E0D921370DF
:1033800061460143F0D10D9805A9081A203001903B
:10339000600703D501200004844300E00127019861
:1033A000874201DD381A00E00020019900904118A1
:1033B000029809180498401A0490E00306D42146A4
:1033C0001A9B199A049800F0B3F94519002706E0F2
:1033D00003A81A9AC05D199990476D1C7F1C02982A
:1033E0008742F5DBE0030CD521461A9B199A049815
:1033F00000F09EF9451904E01A9A30201999904777
:103400006D1C0099481E00900029F5DC08E00D981D
:103410000D990078491C0D911A9A199990476D1CC5
:103420000199481E01900029F1DC63E1092801009F
:10343000303132333435363738396162636465662A
:1034400000000000303132333435363738394142EC
:10345000434445460000000000F05AF94519761C27
:103460003078002800D0E2E528461BB0F0BD6007A8
:1034700000D406271898C01DC108C90048680A680A
:103480000831C30FDB071891190001D09CA108E097
:10349000210501D59BA104E0E10701D09AA100E03C
:1034A0009AA1430011985B08109165280CD006DCA6
:1034B000452809D046281DD0472841D141E066283B
:1034C00018D067283CD13CE00021112F01DB1120EE
:1034D00000E0781C0191009008A911A8FFF7E8FC12
:1034E000139905910021119A15927F1C129801974A
:1034F000009150E00120C00703900120019008A92D
:10350000009711A8FFF7D4FC139A14990592002292
:10351000119B009212981593059A0192002901D0EF
:10352000104602E0791C40180190381A01D5019824
:1035300004E04042401E0090781C0190C01B0290A5
:1035400043E0012F00DA01270021112F01DD1120B6
:1035500000E038460191009008A911A8FFF7A8FCE7
:1035600013990591119A00211298159200910197D3
:1035700021070CD40599B94201DB019900E00191C2
:10358000012904DD159A491E515C302906D0B84244
:1035900001DA011D05DA0121029115E00199491EA8
:1035A000EDE7002805DC0099411800910199091AFE
:1035B00003E0019A411C914200DD01910099401AFB
:1035C000401C02900120C0070390200706D40299F6
:1035D0000198814202DB0020C0430290002069462E
:1035E000C87707AF012103980337C907884224D061
:1035F000022011902B201290039800280CDA4042F0
:1036000003902D20129007E00A210398FCF7A0FFF9
:1036100030317F1E039039701199481E1190002996
:10362000F2DC03980028EFD1791E129808703078E8
:10363000202108404530BF1E387006A8C01BC01DA1
:10364000039010980078002800D0012001994118BB
:103650000298C0170918039809180498401A401EC8
:103660000490E00306D421461A9B199A049800F0AE
:103670005FF8451910980078002803D01A9A199914
:1036800090476D1CE00324D521461A9B199A049893
:1036900000F04EF845191CE00098002807DB00995F
:1036A0000598884203DD1598405C199901E0199945
:1036B00030201A9A904700986D1C401C0090029888
:1036C000401E0290002804D11A9A2E201999904782
:1036D0006D1C0199481E01900029DDDC05E0387859
:1036E0001A9A7F1C199990476D1C0399481E0390E4
:1036F0000029F4DC21461A9B199A0498ACE60000D4
:103700002D0000002B000000200000000000000041
:10371000F8B5044600251E461746880404D405E083
:1037200039462020B0476D1C641EF9D52846F8BDE7
:10373000FFB50446002581B01E46C80301D53027D9
:1037400000E02027880404D505E038460399B047F7
:103750006D1C641EF9D5284605B0F0BD00008A43F3
:103760000000384310005F780D0A434B5F41504220
:1037700031206973202564000D0A434B5F4150429C
:1037800032206973202564000D0A434B5F41484293
:10379000206973202564000D0A434B5F5359532061
:1037A0006973202564000000C8370008000000206D
:1037B00008000000922E0008D03700080800002002
:1037C000D0060000A22E00080000000000A24A045B
:04000005080000CD22
:00000001FF
