:020000040800F2
:10000000E8060020E1000008E90000086502000899
:1000100000000000000000000000000000000000E0
:10002000000000000000000000000000ED000008DB
:100030000000000000000000EF00000801030008BD
:10004000F3000008F3000008F3000008F3000008C4
:10005000F3000008F3000008F3000008F3000008B4
:1000600000000000F300000805020008F30000088B
:10007000F3000008F3000008F3000008000000008F
:10008000F30000080904000800000000F300000865
:10009000F3000008F3000008F3000008F300000874
:1000A000F3000008F3000008F3000008D105000881
:1000B000F300000800000000000000000000000045
:1000C000F300000800000000F30000080348854624
:1000D00000F014F80048004709140008E806002062
:1000E0000448804704480047FEE7FEE7FEE7FEE7D6
:1000F000FEE7FEE70D030008CD000008064C0125D1
:10010000064E05E0E36807CC2B430C3C98471034BF
:10011000B442F7D3FFF7DEFF942D0008B42D00089A
:1001200080B584B01C4801F027FD1C4801F024FD77
:100130001B4801F021FD062001F098F90920C006B6
:100140000321019102220292FB2301F095F8019B09
:10015000029A1448194601F08FF8002000F0B0FB15
:1001600001210391084600F075FB0298039900F005
:100170002FFC03980721490400F002FC039908466C
:1001800000F0C0FB00F0B2FB039800F091FC00F01F
:1001900045FB04B080BDC0461105000012050000FB
:1001A000090600000004004880B500F057F800F090
:1001B0005BF880BD80B582B001F08AFD00F066F981
:1001C00000F040FAFFF7ACFFE120400200F0DAFE59
:1001D0000020019001F0DCF800F070F900F09EF9C9
:1001E00002F092FB064800F029FE00F04FFC00F000
:1001F00021F80198974988604860086002B080BD86
:10020000FFFF000080B50120022100F093FD28B11E
:10021000FFE70121084600F07BFDFFE702210846C9
:1002200000F088FD28B1FFE70220012100F070FDF9
:10023000FFE780BD80B582B040F60010019001F06C
:1002400071FB019801F080FB0348042100F028FFB6
:1002500000F09AFF02B080BD7102000080B500F08E
:100260008DFF80BDFFE7FEE780B57A48001D00F0F6
:10027000F3F8D0B1FFE777484178C943417040783F
:1002800038B1FFE7094800780949097802F0CEFC47
:1002900005E006480078062102F0C8FCFFE76D483B
:1002A000001D962100F0FCF8FFE780BD040000204F
:1002B0000500002080B584B002900298401E000E18
:1002C00018B1FFE70120039011E00298401E094990
:1002D000086000200190C043032100F01BFA019840
:1002E00005490860054A072111600390FFE703985C
:1002F00004B080BD14E000E018E000E010E000E091
:1003000080B500F0E3FB00F0EDFB80BD80B584B06C
:1003100034490868012210430860FFE7314800684B
:100320008007002801D4FFE7F8E7FFE72E490868B7
:1003300080221043086000200390FFE703987F2885
:1003400005D8FFE7FFE70398401C0390F6E726492E
:10035000086890221043086000200390FFE703988C
:100360007F2805D8FFE7FFE70398401C0390F6E7D6
:10037000FFE71D490868032290430860194A106886
:100380001A4B184010600868194A10400860086845
:10039000184A10400860184908680F229043086006
:1003A0001649086840F20312904308600868012269
:1003B00001921304984308600868D30798430860C3
:1003C0000F490868904308600E49002002900860B9
:1003D00001F07AFC01980299C00601F035F804B0EA
:1003E00080BDC0460010024004100240FFFFF2FE34
:1003F0000C00FF08FFFFC2772C10024030100240B3
:10040000341002400810024080B54348012101F039
:10041000F0FF01281CD1FFE73F48012101F0E0FF78
:100420000C498878401C8870C0B2332806DBFFE78F
:1004300008490020887000F023F8FFE7054800789D
:10044000012804D1FFE7002000F070FDFFE7FFE77F
:1004500080BDC0469C01002083B002900F48016817
:1004600002980268891A4268012000230093914291
:10047000019001D200980190019803B07047C046E6
:1004800006490868401C08607047C04603490020C0
:1004900008607047014800687047C0461800002097
:1004A00080B582B001900091FFF7F4FF01990860D8
:1004B00000980199486002B080BD000080B588B006
:1004C000144801F059FB1448029001F063FE04A89F
:1004D000009001F0C3FF0099029847228A80002211
:1004E0000392CA800A81132304934A8101F0F0FE2B
:1004F00002980121019101F073FF0199029801F026
:1005000065FF029801F0DAFE0399112000F086FFE2
:1005100008B080BD040700000010004080B58EB018
:100520006C4801F029FB0920C006019002210291CC
:100530000022049240F20013039300F09DFE019804
:10054000039B0499032200F0DEFE01980299039AAE
:1005500000F022FE1B4801F00FFB1B48069001F043
:1005600019FE049A069807A947238B80CA800A813E
:10057000164B07934A810A7301F0AAFE0499069864
:100580000BAA012305931380042353809180D1800B
:100590001181518101F0BAFB04990698602201F0A3
:1005A0002FFD049A0698114601F0A4FD05990698BE
:1005B00001F03CFF069801F09FFB069801F07EFEDB
:1005C0000EB080BD0B060000002C0140E7030000C8
:1005D00080B584B003A9002008701748174902F0BD
:1005E00033F880B1FFE71448029001F0BFFF0146E5
:1005F00003A801700078002101F044FF02980F4920
:1006000002F002F815E00C480D4902F01DF880B127
:10061000FFE70948019001F0A9FF014603A8017016
:100620000078002101F02EFF0198054901F0ECFF50
:10063000FFE704B080BDC046003801400500030755
:100640000500050780B588B0224801F095FA2248D8
:1006500001F092FA0920C00603900121059148F2A9
:100660000002019200F098FD039805990422069279
:1006700000F092FD019B0398059A0221029100F07F
:10068000FBFD019B0398059A0021049100F03BFEBD
:1006900002990398059A069B00F0EEFD03980499D1
:1006A000059A069B00F02FFE0C48079001F068FFAA
:1006B0000798E121490201F001FF0699079802F02D
:1006C00009F80798082102F029F8079801F082FF3D
:1006D00008B080BD11050000110700000044004073
:1006E00081B0014668460170007840B200280DD400
:1006F000FFE76846007841B21F200A460240012009
:10070000904049098900024A8850FFE701B07047CC
:1007100000E100E070B582B0024601A802700091CD
:10072000007840B2002817D4FFE701A9087840B24A
:100730000322D3431840384A8058097849B28C07BD
:10074000E50EFF24AC40A043009CA401E4B2AC4001
:100750002043194088501AE001A908780F2420404E
:1007600008380322D34318402A4A8058097849B2EE
:100770008D07EE0EFF25B540A843009DAD01EDB2FB
:10078000B54028432140083919408850FFE702B09E
:1007900070BDC04670B582B0024601A802700091DB
:1007A000007840B2002817D4FFE701A9087840B2CA
:1007B0000322D3431840184A8058097849B28C075D
:1007C000E50EFF24AC40A043009CA401E4B2AC4081
:1007D0002043194088501AE001A908780F242040CE
:1007E00008380322D34318400A4A8058097849B28E
:1007F0008D07EE0EFF25B540A843009DAD01EDB27B
:10080000B54028432140083919408850FFE702B01D
:1008100070BDC0461CED00E000E400E098490868A7
:10082000082210430860FFE7954800680007002889
:1008300001D5FFE7F8E792490868042210430860F1
:10084000FFE78F4800684007002801D5FFE7F8E779
:100850007047C04683B0024602A80270019100783A
:100860000090012804D0FFE7009802280FD01DE077
:1008700012490A680F20000582430A60019A120596
:100880000D4BD21802400868104308600FE0094978
:100890000A680320000582430A60019A1205064B8C
:1008A000D218024008681043086000E0FFE703B078
:1008B0007047C046382401400000F0FF2C2401405E
:1008C00081B00090009838B1FFE76D49086840F6A4
:1008D00000021043086006E06949086840F600021B
:1008E00090430860FFE701B07047C0466448006865
:1008F000C00730B9FFE76249086801221043086069
:10090000FFE7704782B001AA107068460170007856
:10091000D0B1FFE701A80078C00738B1FFE7584918
:1009200008680122120510430860FFE701A800785B
:100930008007002807D5FFE75149086848F2000200
:1009400010430860FFE719E001A80078C00738B13C
:10095000FFE74B4908680122120590430860FFE752
:1009600001A800788007002807D5FFE744490868F8
:1009700048F2000290430860FFE7FFE702B07047CB
:1009800083B0024602A8027001910078009001280D
:1009900004D0FFE7009802280BD015E0384908681A
:1009A0000722520490430860019A086810430860C7
:1009B0000BE03349086847F2000290430860019A4F
:1009C00008681043086000E0FFE703B07047C046C6
:1009D00082B0019068460170007830B3FFE701A84B
:1009E0004078C00738B1FFE72449086840F2001298
:1009F00010430860FFE701A840784007002807D5AA
:100A0000FFE71E49086840F2004210430860FFE714
:100A100001A800788007002806D5FFE71849086874
:100A2000022210430860FFE725E001A84078C007D4
:100A300038B1FFE71149086840F20012904308609E
:100A4000FFE701A840784007002807D5FFE70B49DA
:100A5000086840F2004290430860FFE701A8007870
:100A60008007002806D5FFE7054908680222904361
:100A70000860FFE7FFE702B07047C046042401406A
:100A80000824014000487047D802002080B582B099
:100A9000FFF7F8FF01900199044882688A60426874
:100AA0004A600068086002B080BDC046882D00081A
:100AB00081B0009000980A490860FFE70848006884
:100AC00008B1FFE7FAE701B07047C0460448006884
:100AD00028B1FFE702490868401E0860FFE7704739
:100AE000A8010020044948680A680023521C5841A4
:100AF0000A6048607047C046B001002081B00146DE
:100B000068460170007814214143C24A8858012385
:100B10009843885001B0704781B001466846017023
:100B2000007814214143BB4A885801231843885058
:100B300001B0704781B00146684601700078142109
:100B40004143B44A885820239843885001B07047E5
:100B5000B0B581B001466846017001781422134691
:100B60004B43AC4C19590125A9431951017813463F
:100B70004B4300211951047813466343AE4C19517D
:100B8000047813466343604C195103785A435F4B12
:100B9000D150007880000F228240654908681043D8
:100BA000086001B0B0BDC04682B0024601A8027024
:100BB0000091009A0078800082405D4908681043E7
:100BC000086002B07047C04683B002AA107001915D
:100BD000874800680199127892009140084204D039
:100BE000FFE769460120087003E0694600200870AD
:100BF000FFE76846007803B07047C046B0B584B0E0
:100C0000024603A80090027002910078FFF776FF79
:100C1000009B029800681C7814210A4662433A4CF3
:100C20001051029880681C780A466243374C105174
:100C30000298008A1C780A4662437F4C10511A7849
:100C400008465043734A80580190019843F6007457
:100C5000A043019002984468C5682C43406904434E
:100C600001982043019001981B78594388500298BD
:100C7000007E01280AD1FFE703A800781421414330
:100C8000644A885840231843885009E003A8007834
:100C9000142141435F4A8858402398438850FFE716
:100CA0000298407E01280AD1FFE703A800781421AA
:100CB0004143584A885880231843885009E003A8C4
:100CC000007814214143534A885880239843885020
:100CD000FFE70298807E50B9FFE703A8007814214F
:100CE00041434C4A885810239843885009E003A890
:100CF000007814214143474A8858102318438850EC
:100D0000FFE704B0B0BDC04610000240140002402E
:100D100082B0024601A802700091009A007880001B
:100D20008240034908681043086002B07047C0461B
:100D30000400024086B004AA1070039100200290C3
:100D4000019003980090022808D0FFE7009804283B
:100D500016D0FFE70098082824D035E02448016821
:100D6000039A04A803789B009A40114001910178EE
:100D7000142048432749405802210840029024E0AB
:100D80001B480168039A04A803789B009A4011400D
:100D900001910178142048431E494058042108401D
:100DA000029012E012480168039A04A803789B009D
:100DB0009A40114001910178142048431549405848
:100DC00008210840029000E0FFE7019838B1FFE7F2
:100DD000029820B1FFE705A90120087003E005A9EA
:100DE00000200870FFE705A8007806B07047C046ED
:100DF0000000024081B0014668460170007814216D
:100E00004143044A885844F200039843885001B093
:100E10007047C0460800024083B000910246009827
:100E200002A90A70019001A800880A781421514390
:100E3000014A885003B070470C00024080B584B06E
:100E4000014603A8018002AA0A211180008818B96E
:100E5000FFE70020019051E003A80088052806D193
:100E6000FFE702A8018805204843019045E003A858
:100E700000882B49884207DBFFE702A8018864202D
:100E8000B0FBF1F0019037E003A80088042801DCF2
:100E9000FFE742E003A80088332810DCFFE703A83F
:100EA000018840F2E83048430621B0FBF1F102A886
:100EB00000884843642190FBF1F001901AE003A8F8
:100EC00000883F280FDCFFE703A80188282048435B
:100ED00041F60011411802A800884843642190FBA4
:100EE000F1F0019005E002A801885A2048430190E2
:100EF000FFE7FFE7FFE7FFE7FFE7FFE701980949A3
:100F0000884204D3FFE740F2E8300190FFE7019AFE
:100F10000548002101F0C4F8FFE704B080BDC046D9
:100F2000FFFF0000E9030000002C014080B584B001
:100F3000014603A8017000780290022805D3FFE75C
:100F40000298801E02280CD317E00D48019040F251
:100F5000004100F089F9019840F6000100F084F9A1
:100F60000CE00748009040F2004100F075F900984D
:100F700040F6000100F070F900E0FFE704B080BD2A
:100F80000004004880B588B007902D4800F0F4FDBB
:100F90002C48009001F0F4FA00980021049101F02F
:100FA000CCFB0098049901F0A4FB0098049901F08F
:100FB0007CFB0098079901F081FA0098042101F068
:100FC00089FB0098082101F0A9FB009801F002FBC1
:100FD00004991B2000F022FA0098052101F003FB80
:100FE000194800F0C9FD0920C006039001210591B0
:100FF00040F20022019200F0CFF80398059940F2E8
:101000000042069200F0C8F8019B0398059A02215D
:10101000029100F031F9019B03980499059A00F0C0
:1010200072F902990398059A069B00F025F9039836
:101030000499059A069B00F066F908B080BDC04689
:101040000E060000003801401105000083B0019039
:101050006846017001994889401C8A89B0FBF2F307
:101060005A43801A0989884204D1FFE702A9002067
:10107000087011E00098019A5168528988540199CA
:101080004889401C8A89B0FBF2F35A43801A488190
:1010900002A901200870FFE702A8007803B070479A
:1010A00087B005AA108004A801702E480390002084
:1010B000029037492C480860FFE72C48006801215E
:1010C00008400290FFE70398411E03910020019021
:1010D00029B1FFE70298411E88410190FFE701987E
:1010E000C0070028E9D1FFE7029820B1FFE706A971
:1010F0000020087031E004A800781D4908601948F4
:101100000390FFE719480068022108400290FFE7BA
:101110000398411E03910020009029B1FFE7029837
:10112000411E88410090FFE70098C0070028E9D1E0
:10113000FFE7029820B1FFE706A9002008700CE045
:1011400005A800880B4908400B49086010490D4864
:10115000086006A901200870FFE706A8007807B01C
:101160007047C046FFFF0F00555500000C3000408F
:1011700004300040FF0F00000830004004490148DF
:1011800008607047AAAA0000014902480860704739
:1011900000300040CCCC000086B005900491039252
:1011A0000598006A01900598406A009002A9002005
:1011B0000880FFE702A8008807281DD8FFE702A8DB
:1011C00001880398C840C00780B1FFE702A80188E2
:1011D00089000F228A400199914301910499008866
:1011E00080008140019808430190FFE7FFE70298E3
:1011F000401C02A90880DDE702A908200880FFE75B
:1012000002A800880F281FD8FFE702A801880398CA
:10121000C840C00790B1FFE702A8018889002039C3
:101220000F228A4000999143009104990088800020
:1012300020388140009808430090FFE7FFE70298BC
:10124000401C02A90880DBE7019805990862009814
:101250000599486206B0704782B0019000910098ED
:101260000199886202B0704782B0019000910098A5
:101270000199C86202B0704787B006900591049248
:1012800003930698006801900698C068009002A930
:1012900000200880FFE702A800880F282BD8FFE76E
:1012A00002A801880398C840C007F0B1FFE702A870
:1012B00001884900032213468B400199994301910B
:1012C000059B018849008B400199194301910188D0
:1012D00049008A4000999143009104990088400098
:1012E0008140009808430090FFE7FFE70298401C08
:1012F00002A90880CFE7019806990860009806992E
:10130000C86007B0704710B586B0059004A801709A
:10131000039202930078012806D1FFE7029A05990B
:1013200048681043486005E0029A05994868904370
:101330004860FFE705988068009001A900200880B8
:10134000FFE701A800880F281DD8FFE701A8018842
:101350000298C840C00780B1FFE701A80188490092
:1013600003228A400099914300910399008840002C
:101370008140009808430090FFE7FFE70198401C78
:1013800001A90880DDE700980599886006B010BDC6
:1013900082B0014601A8017001780B01174A0021B3
:1013A000D15403781B01D318198103781B01D2187B
:1013B00051810078009020B1FFE7009801280DD0FE
:1013C00019E001A9087802010C48831880229A814B
:1013D0000978090141180B4848600DE001A9087817
:1013E00002010648831880229A8109780901411870
:1013F0000348486000E0FFE702B07047B8020020F1
:1014000038020020B801002080B582B00020019091
:10141000FEF7D0FEFFE7FEF7C7FEFCE780B584B01D
:101420000A46014603A80190017002A90A700078DB
:1014300040B20978FFF7AEF90198007840B2FFF7A3
:101440004FF904B080BD000082B001900091019876
:101450000099044A1140084303490860BFF34F8FC5
:1014600002B0704780FFFF1F08ED00E082B0014628
:1014700001A801705D4A11684CF2000399431160A4
:101480005B4A11685B4B1940116000780090092895
:1014900000D9A7E000998A0001A080188746C046BD
:1014A00000F012B800F01CB800F026B800F02EB81A
:1014B00000F03BB800F046B800F056B800F061B854
:1014C00000F071B800F07CB84949086801221204A4
:1014D00090430860086840F200129043086082E080
:1014E000434908680122120410430860086840F26A
:1014F00000129043086076E0F64908680860F949F0
:10150000086840F20012104308606CE0F149086876
:101510000860F44908680122D2071043086008688F
:1015200040F20012104308605DE0EA49086844F2A6
:10153000000210430860EB49086840F200121043B3
:10154000086050E0E349086844F200021043086074
:10155000E44908680122D20710430860086840F295
:101560000012104308603EE0DA49086848F20002C1
:1015700010430860DB49086840F20012104308601D
:1015800031E0D449086848F2000210430860D549A8
:1015900008680122D20710430860086840F2001270
:1015A000104308601FE0CB4908684CF2000210436A
:1015B0000860CC49086840F200121043086012E04D
:1015C000C44908684CF2000210430860C549086825
:1015D0000122D20710430860086840F2001210434D
:1015E000086000E0FFE702B07047C0460410024008
:1015F00030100240FFFEFE7F9DB01CA90870002045
:1016000002901B901A9019901890179016901590B0
:10161000149013901290119010900F900E900D90C6
:101620000C90AA490B91AA490A9109900890079138
:10163000069005910490A74800680C210840800896
:101640001B901B98039040B1FFE70398012807D037
:10165000FFE70398022806D044E0A148179044E031
:101660009F48179041E09B4801680F229204114067
:10167000890C119100680121C9060840C00E109024
:101680001098012804D1FFE71198113011900BE058
:1016900011980F2803D1FFE71020119003E0119853
:1016A000801C1190FFE7FFE78A48006801210904C8
:1016B0000840000C0F900F9870B1FFE78748006852
:1016C0000F210840401C0E900E998548B0FBF1F1A7
:1016D00011984843179004E011997F4848431790A8
:1016E000FFE702E07E481790FFE77A480168C9B239
:1016F00009090D910D9A08A9895C0C9117990C9A0A
:10170000D1401691016840F200721140090A0D9112
:101710000D9A06A9895C0C9116990C9AD1401591E5
:10172000006843F600010840C00A0D900D9904A816
:10173000405C0C9016980C99C84014901CA8007836
:101740000190052800D9BCE001998A0001A0801809
:101750008746C04600F00AB800F00BB800F00CB89D
:1017600000F00DB800F00EB800F07DB81798189092
:10177000A8E016981890A5E015981890A2E0149883
:1017800018909FE05748006840F2001108408842D6
:101790000FD0FFE753480068012109040840884240
:1017A00003D0FFE75148139002E04F481390FFE742
:1017B00056E04848006880B2800B1A90494800689B
:1017C000C00F19901A980090032847D800998A00F2
:1017D00001A080188746C04600F006B800F012B895
:1017E00000F01EB800F02CB8199820B9FFE7149843
:1017F0004008139005E016980321B0FBF1F0139018
:10180000FFE72CE0199820B9FFE71498800813909F
:1018100005E016980521B0FBF1F01390FFE71EE0FC
:10182000199830B9FFE714980621B0FBF1F0139036
:1018300005E016980721B0FBF1F01390FFE70EE0EA
:10184000199820B9FFE71498C008139005E016987E
:101850000921B0FBF1F01390FFE700E0FFE7FFE79D
:10186000139818902EE01F480068800718B9FFE70A
:101870001498129022E01B480068032108400128B8
:1018800003D1FFE71798129017E01648006803216C
:101890000840022804D1FFE748F2000012900BE054
:1018A0001048006803210840032803D1FFE70C48D3
:1018B000129000E0FFE7FFE7FFE7FFE712981890BC
:1018C00000E0FFE718981DB07047C04606070809FA
:1018D000010203040410024000093D002C100240E4
:1018E00000127A0030100240003FAB01809FD5000B
:1018F00082B06946088008888009EE4A80580988C5
:101900001F221140C840C00720B1FFE701A90120F4
:10191000087003E001A900200870FFE701A8007823
:1019200002B0704781B001466846018000881F22DE
:101930000146114001238B408109DE4A8858184333
:10194000885001B07047C04680B58CB001460BA8E6
:10195000018000210A9109AA117008AA117000885B
:101960000790002864D0FFE70798102816D0FFE7FB
:101970000798182800D1CBE0079840F6000188426C
:1019800031D0FFE7079840F60011884200D19AE075
:10199000079840F60051884270D0DEE0FFE708A8C3
:1019A00001780020069039B9FFE70A98C249401A29
:1019B000411E88410690FFE70698C00748B1FFE73F
:1019C0001120FFF795FF08A908700A98401C0A909B
:1019D000E5E71120FFF78CFF20B1FFE709A90120FF
:1019E0000870FFE7BAE0FFE708A80178002005903B
:1019F00039B9FFE70A985E49401A411E88410590AF
:101A0000FFE70598C00748B1FFE75A48FFF770FFA6
:101A100008A908700A98401C0A90E5E75548FFF7A6
:101A200067FF20B1FFE709A901200870FFE795E0F3
:101A3000FFE708A801780020049041B9FFE70A9861
:101A400040F20051401A411E88410490FFE704987B
:101A5000C00748B1FFE70120FFF74AFF08A9087057
:101A60000A98401C0A90E4E70120FFF741FF20B1EB
:101A7000FFE709A901200870FFE76FE0FFE708A86A
:101A800001780020039039B9FFE70A983549401AD8
:101A9000411E88410390FFE70398C00748B1FFE764
:101AA0003248FFF725FF08A908700A98401C0A90E1
:101AB000E5E72E48FFF71CFF20B1FFE709A9012049
:101AC0000870FFE74AE0FFE708A8017800200290CD
:101AD00039B9FFE70A982349401A411E884102900C
:101AE000FFE70298C00748B1FFE71F48FFF700FF74
:101AF00008A908700A98401C0A90E5E71A48FFF701
:101B0000F7FE20B1FFE709A901200870FFE725E0F3
:101B1000FFE708A801780020019039B9FFE70A988B
:101B20001049401A411E88410190FFE70198C00703
:101B300048B1FFE71920FFF7DBFE08A908700A98F3
:101B4000401C0A90E5E71920FFF7D2FE20B1FFE71D
:101B500009A901200870FFE700E0FFE709A8007865
:101B60000CB080BDFFFF0F0001090000010D000057
:101B7000FFFFFF030108000081B0014668460180B5
:101B800000881F220146114001238B408109494AE8
:101B900088581843885001B07047C04681B001464C
:101BA0006846018000881F220146114001238B40B6
:101BB0008109404A88589843885001B07047C04610
:101BC00081B001466846018000881F22014611400D
:101BD00001238B408109374A88581843885001B047
:101BE0007047C04684B000200390029031490868D5
:101BF0000122120410430860FFE70398401C039081
:101C00002C4800680121490408400290FFE702992E
:101C10000020019039B9FFE703982749401A411E77
:101C200088410190FFE70198C0070028E5D1FFE750
:101C3000204800688003002802D4FFE7FFE7FEE7A2
:101C40001E490868022210430522904308601C497F
:101C500000910868086008680860086808600868FB
:101C6000184A1040086008681D22120410430860DA
:101C7000104908680122120610430860FFE70D486A
:101C800000688001002801D4FFE7F8E70C490868E4
:101C90000322904308600868022210430860FFE7AF
:101CA000074800680C210840082801D0FFE7F7E743
:101CB00004B0704700100240FFFF00000020024007
:101CC00004100240FFFFC27780B5FFF78BFF80BD95
:101CD00080B50848006840F2E831B0FBF1F0FEF74B
:101CE000E9FA10B1FFE7FFE7FEE70021C843FEF77E
:101CF00011FD80BD0000002081B0009000990868AF
:101D000080221043086001B07047000084B0039047
:101D100002A80180019200880090032800D964E1A4
:101D200000998A0001A080188746C04600F006B8D6
:101D300000F063B800F0CBB800F023B90399086A4B
:101D400001229043086203998869032290438861C5
:101D5000019802880399086A104308620399086A87
:101D6000022290430862019882880399086A10430E
:101D7000086203989E4988420FD0FFE703989D4967
:101D800088420AD0FFE703989B49884205D0FFE7C5
:101D900003989A4988422FD1FFE70399086A0422E1
:101DA00090430862019842880399086A10430862C8
:101DB0000399086A0822904308620198C28803992F
:101DC000086A104308620399486840F20012904381
:101DD0004860019802890399486810434860039954
:101DE000486840F200229043486001984289039974
:101DF000486810434860FFE7F8E00399086A10223A
:101E0000904308620399886940F2003290438861E8
:101E10000198008802010399086A10430862039937
:101E2000086A202290430862019880880201039981
:101E3000086A1043086203986D49884233D1FFE76E
:101E40000399086A40229043086201984088020181
:101E50000399086A104308620399086A8022904334
:101E600008620198C08802010399086A1043086259
:101E70000399486840F20042904348600198008905
:101E8000820003994868104348600399486840F607
:101E90000002904348600198408982000399486895
:101EA00010434860FFE70398EE4988420ED1FFE7F0
:101EB0000399486840F200429043486001980089C5
:101EC00082000399486810434860FFE78EE0039959
:101ED000086A40F20012904308620399C86903221D
:101EE0009043C8610198008802020399086A104370
:101EF00008620399086A40F2002290430862019840
:101F0000808802020399086A104308620398D44942
:101F1000884235D1FFE70399086A40F200429043B6
:101F200008620198408802020399086A1043086217
:101F30000399086A40F60002904308620198C0883D
:101F400002020399086A104308620399486841F243
:101F50000002904348600198008902010399486893
:101F6000104348600399486842F200029043486079
:101F70000198408902010399486810434860FFE7CF
:101F800034E00399086A41F2000290430862039921
:101F9000C86940F200329043C8610198008802038A
:101FA0000399086A104308620399086A42F2000222
:101FB000904308620198808802030399086A1043DD
:101FC00008620398A64988420ED1FFE70399486842
:101FD00044F200029043486001980089820103990D
:101FE000486810434860FFE700E0FFE704B070472F
:101FF000002C0140004001400044014000480140E5
:1020000084B0039002A8018001A90A800088009092
:10201000032841D800998A0001A080188746C0464D
:1020200000F006B800F010B800F01CB800F026B8B8
:102030000399886970229043886101A802880399F6
:1020400088691043886128E00399886947F2000293
:102050009043886101A800880202039988691043AF
:1020600088611AE00399C86970229043C86101A889
:1020700002880399C8691043C8610EE00399C869D2
:1020800047F200029043C86101A800880202039948
:10209000C8691043C86100E0FFE704B07047000062
:1020A00084B0039002A80180019200880090032868
:1020B0001CD800998A0001A08018874600F006B855
:1020C00000F008B800F00AB800F00CB801980399C5
:1020D00048630CE001980399886308E0019803992C
:1020E000C86304E001980399086400E0FFE704B0C6
:1020F0007047000084B0039002A8018001A90A8003
:1021000000880090032841D800998A0001A0801817
:102110008746C04600F006B800F010B800F01CB8C2
:1021200000F026B80399886908229043886101A8C5
:102130000288039988691043886128E003998869B7
:1021400040F600029043886101A8008802020399CA
:102150008869104388611AE00399C869082290438E
:10216000C86101A802880399C8691043C8610EE0DC
:102170000399C86940F600029043C86101A800882D
:1021800002020399C8691043C86100E0FFE704B088
:102190007047000080B58AB0099009980890864978
:1021A000884226D0FFE708982C49884229D0FFE7CB
:1021B0000898824988422CD0FFE708987D498842D8
:1021C0000FD0FFE708987E4988422BD0FFE7089898
:1021D0007C4988422FD0FFE708987B49884232D05B
:1021E00039E025480790FFF7EBFC0798FFF7D6FC8E
:1021F00032E020480690FFF7E3FC0698FFF7CEFC9C
:102200002AE01B480590FFF7DBFC0598FFF7C6FCAA
:1022100022E040F208400490FFF7D2FC0498FFF758
:10222000BDFC19E040F210300390FFF7C9FC0398A1
:10223000FFF7B4FC10E00D480290FFF7C1FC0298D4
:10224000FFF7ACFC08E008480190FFF7B9FC0198E3
:10225000FFF7A4FC00E0FFE70AB080BD00100040DB
:10226000002C014000400140120300001103000057
:1022700004040000010400000B03000082B0019080
:102280006846018002880199C8681043C86002B09E
:102290007047000083B00290019100920299886C0F
:1022A000054A10408864019A009802430299886C9C
:1022B0001043886403B07047E0E0FFFF81B00090F6
:1022C0000099086801221043086001B070470000BF
:1022D00082B00190009100988088019988620198ED
:1022E0003449884205D0FFE701983349884212D12A
:1022F000FFE7019908687022904308600098C2883F
:1023000001990868104308600098028901990868DB
:1023100010430860FFE7009800680199C8620198BF
:102320002449884219D0FFE701982349884214D0F4
:10233000FFE70198214988420FD0FFE70198204923
:1023400088420AD0FFE701981E49884205D0FFE77E
:1023500001981D4988420DD1FFE70199086840F2B4
:102360000032904308600098428901990868104340
:102370000860FFE701980F4988420FD0FFE70198F6
:102380000F4988420AD0FFE701980E49884205D0DC
:10239000FFE701980C49884205D1FFE70098007BD0
:1023A00001990863FFE701994869012210434861D8
:1023B00002B07047002C01400004004000200040A3
:1023C00000400140004401400048014082B00190BB
:1023D0000091009A0199C8681043C86002B0704724
:1023E00082B0019000910098C0430199086102B049
:1023F000704784B0029001910298C068019908402A
:102400000090029800690199084207D0FFE7009800
:1024100020B1FFE703A90120087003E003A9002011
:102420000870FFE703A8007804B0704782B00190FD
:10243000684601700078012807D1FFE70199486CD0
:1024400048F200021043486406E00199486C48F2E3
:10245000000290434864FFE702B0704781B00090EB
:102460000099002088800099C88000990881009A0E
:1024700003491160009948810099087301B07047C1
:10248000FFFF000080B582B00A4601A908706846C7
:10249000027000780201084880180978FEF7D6FD1E
:1024A00030B9FFE76846007808B1FFE7FFE7FFE7CC
:1024B000012002B080BDC046B802002080B588B0BF
:1024C00007900691002005900490039002900798D1
:1024D00001903C4988420AD0FFE701983A49884276
:1024E0000AD1FFE70520FFF787F8059005E00220F5
:1024F000FFF782F8059000E0FFE707980068000406
:10250000002818D5FFE70598400006994A0880186A
:10251000B0FBF1F002900298134908400490029831
:102520000007400F039004A8008803A90988084306
:102530000799C86016E0059806994A088018B0FB0C
:10254000F1F00290029808490840049002980F2187
:102550000840039004A8008803A909880843079944
:10256000C860FFE708B080BDF0FF000081B00090B8
:102570000098406A0149084001B07047FF0100001F
:1025800080B584B00390039802900E4988420DD024
:10259000FFE702980C49884210D1FFE70C480190F0
:1025A000FFF70EFB0198FFF7F9FA08E007480090E3
:1025B000FFF706FB0098FFF7F1FA00E0FFE704B031
:1025C00080BDC046004400400038014011040000B6
:1025D0000E03000081B000900099086801221043AA
:1025E000086001B0704782B00190684601800088A1
:1025F0001F220146114001238B400199820988580E
:102600001843885002B0704782B001900091009842
:102610000C49884208D1FFE70199D022885848F236
:102620000003984388500BE000981F2109040840DC
:10263000000C012282400199086A10430862FFE7FA
:1026400002B0704709340F3410B585B00390029181
:10265000002001900090039802A909888909405838
:10266000029C1F231C4001210A46A24010400190F9
:102670000398029A920D8058029A1B041A40120C79
:10268000914008400090009838B1FFE7019820B1D0
:10269000FFE704A90120087003E004A900200870E6
:1026A000FFE704A8007805B010BD82B0019000914A
:1026B000019908680122904308600199086840F276
:1026C000006290430860009A01990868104308600E
:1026D00002B0704782B0019000910199086804220D
:1026E00090430860009A019908681043086002B09E
:1026F000704782B0019000910199086801229043CF
:1027000008600199486843F2000290434860009ACB
:10271000019948681043486002B0704782B0019048
:10272000009101990868082290430860009A019975
:1027300008681043086002B0704782B001900091B1
:10274000019908680122904308600199086841F2E4
:10275000000290430860009A0199086810430860DD
:1027600002B0704780B58CB001460BA801700078AC
:102770000090082800D987E000998A0001A08018FD
:102780008746C04600F010B800F01BB800F026B82D
:1027900000F031B800F03CB800F047B800F05FB886
:1027A00000F065B800F04EB8B44882780AA98A7083
:1027B000027840780002801808800A9800F00EFA2B
:1027C0006AE0AD48827809A98A70027840780002F0
:1027D00080180880099800F001FA5DE0A548827829
:1027E00008A98A700278407800028018088008984A
:1027F00000F0F4F950E09E48827807A98A700278C8
:102800004078000280180880079800F0E7F943E05C
:102810009648827806A98A7002784078000280186B
:102820000880069800F0DAF936E08F48827805A92A
:102830008A7002784078000280180880059800F0BD
:10284000CDF929E08648827804A98A700278407818
:10285000000280180880049800F0C0F91CE003A969
:10286000002088700880039800F0B8F914E07D48D3
:10287000827802A98A700278407800028018088065
:10288000029800F0ABF907E001A9002088700880E9
:10289000019800F0A3F9FFE70CB080BD80B58AB0C5
:1028A00040F20050FFF768F904200290FEF750F95B
:1028B000029803A901228A76C74B05934A7640F213
:1028C00000420692D82207920D4A039200220A760D
:1028D00040F200120192049242F200020892FEF7C6
:1028E0008DF90298FEF726F901990648FFF7C6FC14
:1028F0000298FEF77FFA0298FEF70EF90AB080BD43
:10290000402C0140002C014080B584B01148FFF7F5
:1029100033F90920C00601900221029100220092A1
:1029200040F600030393FEF7A7FC00990198039B70
:102930000322FEF7E8FC01980299039AFEF72CFCAB
:1029400000F0B6F9FFF7AAFF0620FFF70BFF04B06F
:1029500080BDC0461105000084B0014602A8017088
:102960000078009008286CD800998A0001A080188F
:102970008746C04600F010B800F018B800F020B844
:1029800000F028B800F030B800F038B800F040B8D7
:1029900000F043B800F04BB83848827803A98A7039
:1029A000027840780002801808804FE03248827830
:1029B00003A98A700278407800028018088045E0F8
:1029C0002C48827803A98A70027840780002801827
:1029D00008803BE02648827803A98A700278407814
:1029E00000028018088031E02048827803A98A70AC
:1029F0000278407800028018088027E01A48827820
:102A000003A98A70027840780002801808801DE0CF
:102A100003A900208870088018E01248827803A972
:102A20008A70027840780002801808800EE00C4816
:102A3000827803A98A7002784078000280180880A2
:102A400004E003A9002088700880FFE7039801A92B
:102A5000088003A880788870019804B07047C04649
:102A6000772D0008802D0008832D0008742D0008A4
:102A70007D2D00086E2D0008712D00087A2D0008AC
:102A800080B582B0FFE704200221FEF79DF808B967
:102A9000FFE7F8E7042001900221FEF785F801988E
:102AA000FEF72CF80198D821FEF7B6F90198FEF749
:102AB00033F802B080BD00008EB00991014609983C
:102AC0000C900CA880780DAA90700C9810800BA820
:102AD00001700078062801DBFFE77AE00AA90020F0
:102AE0000870FFE70AA80078072820DCFFE70DA898
:102AF00040780AA90A7806920721891AC840C107B6
:102B0000322014220792089009B907980890069A73
:102B100008980BA9097830234B432F49C918520054
:102B20008852FFE70A98401C0AA90870DAE70AA948
:102B300008200870FFE70AA800780F2820DCFFE7CC
:102B40000DA800780AA90A7803920F21891AC840B3
:102B5000C107322014220492059009B90498059007
:102B6000039A05980BA9097830234B431A49C918D1
:102B700052008852FFE70A98401C0AA90870DAE759
:102B80000AA910200870FFE70AA80078172820DC9F
:102B9000FFE70DA880780AA90A7800921721891A00
:102BA000C840C107322014220192029009B901984D
:102BB0000290009A02980BA9097830234B430649EA
:102BC000C91852008852FFE70A98401C0AA90870E9
:102BD000DAE70EB07047C0461C00002080B584B014
:102BE000029002A8807803A988700298088001A941
:102BF00000200880FFE701A80088052811DCFFE716
:102C000001A8007803A989786A4691700399118018
:102C10000099FFF751FFFFE70198401C01A90880C8
:102C2000E9E7FFF72DFF04B080BD000080B588B054
:102C3000024607A8027006AA11800078062801DB68
:102C4000FFE730E0069807A909784A00174988523B
:102C500005A900200870FFE705A8007804281FDCFC
:102C6000FFE705A80078019041001048405CFFF79D
:102C700073FE01460198039103A98A7804A98A701A
:102C8000039A0A80897802AA9170049911800299A6
:102C9000FFF712FFFFE70598401C05A90870DBE766
:102CA000FFF7EEFEFFE708B080BDC046060000203B
:102CB00080B58CB02448FEF75FFF24480490FFF7EE
:102CC00069FA049805A9002202928A80CA800A81C2
:102CD000592305934A810A73FFF7FAFA0299049877
:102CE00009AA01230193138051809180D18040F281
:102CF000001303931381518103210091FFF706F81C
:102D0000009904986022FFF77BF90099029A0498D1
:102D1000FFF7C6F90099029A0498FFF7EBF90199B9
:102D20000498FFF783FB029A04981021FFF7B2FA88
:102D300003990498FFF7A2FA0498FEF7DDFF0498C0
:102D4000FFF7BCFA0CB080BD0B060000002C014060
:102D500002E008C8121F08C1002AFAD17047704764
:102D6000002001E001C1121F002AFBD170470000C2
:102D7000FF00FF00FF00FF98FB98FF000000FFFF2F
:102D8000FFFFFFFFFF00000000008A430000384300
:102D900010005F78B82D0008000000201800000027
:102DA000502D0008D02D000818000020D00600008B
:102DB000602D00080000000000A24A04030806007D
:102DC00006000600060006000000000000000000EB
:04000005080000CD22
:00000001FF
